:020000040800F2
:1000000038140120DD0100089F390008473200083C
:100010009D39000879130008BD4300080000000066
:100020000000000000000000000000000B4300087A
:10003000B515000800000000A13900080D430008B4
:10004000F7010008F7010008F7010008F7010008B0
:10005000F7010008F7010008F7010008F7010008A0
:10006000F7010008F7010008F7010008F701000890
:10007000F7010008F7010008F7010008F701000880
:10008000F7010008F7010008F7010008F701000870
:10009000F7010008F7010008F7010008F701000860
:1000A000F7010008F7010008F7010008F701000850
:1000B000F7010008F7010008F7010008F701000840
:1000C000F7010008F7010008F7010008F701000830
:1000D000F7010008F7010008F7010008F701000820
:1000E000F7010008F7010008F7010008F701000810
:1000F000F7010008F7010008F7010008F701000800
:10010000F7010008AD400008F7010008F7010008FA
:10011000F7010008F7010008F7010008F7010008DF
:10012000F7010008F7010008F70100082115000891
:10013000F7010008F7010008F7010008F7010008BF
:10014000F7010008F7010008F7010008F7010008AF
:10015000F70100082D150008F7010008F701000855
:10016000F7010008F7010008F7010008F70100088F
:10017000F7010008F7010008F7010008000000007F
:10018000F7010008F7010008F7010008F70100086F
:10019000F7010008F7010008F7010008F70100085F
:1001A000F7010008F7010008F7010008F70100084F
:1001B000F7010008F7010008F7010008F70100083F
:1001C000F7010008F7010008DFF80CD000F036FB5B
:1001D0000048004799490008381401200648804724
:1001E00006480047FEE7FEE7FEE7FEE7FEE7FEE71C
:1001F000FEE7FEE7FEE7FEE711430008C90100083D
:100200002DE9F05F0546002092469B46884606464B
:10021000814640241BE0284641464746224600F0DE
:100220003EFA53465A46C01A914110D31146184619
:10023000224600F025FA2D1A67EB01084F462246A8
:100240000120002100F01CFA17EB00094E41201E8E
:10025000A4F10104DFDC484631462A464346BDE8A6
:10026000F09F40EA01039B0703D009E008C9121F71
:1002700008C0042AFAD203E011F8013B00F8013B60
:10028000521EF9D270472DE9FE4F804681EA0300E5
:10029000C00F0C46009021F0004123F00045B8EB60
:1002A0000200A94105D24046214690461C460B4615
:1002B000024623F00040104347D0270DC7F30A0041
:1002C000C3F30A510290401A019040286BDAC3F33D
:1002D000130040F4801B0098924620B10023D2EB1B
:1002E000030A63EB0B0B01985946C0F140025046DC
:1002F00000F0C6F906460D4650465946019A00F0F0
:10030000DEF910EB08006141002487EA115284EA0B
:10031000E7731A4340D0009A62B3019A012A4FEA68
:10032000075215DC001B61EB02014FF0004202EAAC
:100330000752CDE90042001C41F5801132462B46A0
:1003400000F015FA03B0BDE8F08F40462146F9E70A
:10035000001B61EB0201001C41F5801300185B419A
:100360002018A2F5001747EB030140EAD570B61933
:100370006D4111E06D084FEA360645EAC0754FEA57
:100380000752001B61EB0201001C41F58011490876
:100390004FEA30000019514132462B4603B0BDE808
:1003A000F04F00F0D5B90098012240000023D0EBB7
:1003B000020263EBE073009821464FEAE074B8EB69
:1003C000000061EB0401E9E783F000435BE781F0A3
:1003D000004158E72DE9FE4F81EA030404F0004490
:1003E00021F0004100944FF0000B23F0004350EA4D
:1003F00001045ED052EA03045BD0C3F30A54C1F394
:100400000A552C44A4F2F3340194A0FB0254C1F326
:10041000130141F48011C3F3130343F4801301FB70
:10042000024400FB034E840A970A44EA815447EAD7
:100430008357A4FB076802958D0A05FB07854FEAE1
:10044000932C04FB0C542705029D4FEA065847EAFB
:100450001637B5EB08056EEB070C870E920E47EAD0
:10046000811742EA8312A7FB0201B6EB0B0164EB92
:1004700000042B0D43EA0C335E1844EB1C50DA46A3
:100480005146E7FB0201C5F313044FEA0B3343EA7D
:1004900014534FEA0432019C43EA0603A4F10C040E
:1004A0000294009CCDE900B400F061F903B0BDE80E
:1004B000F08F00200146F9E72DE9F04D81EA0304B1
:1004C00004F0004B21F0004514464FF0000A23F0E1
:1004D000004150EA050220D054EA01021DD0C5F3C4
:1004E0000A570246C5F31303C1F31300C1F30A56BA
:1004F00040F4801543F48013A7EB0608101BD64682
:1005000008F2FD3873EB050002D308F1010801E0A1
:1005100092185B41B8F1000F03DA00200146BDE8F4
:10052000F08D00204FF48011064684460EE0171B24
:1005300073EB050705D3121B63EB050306434CEA77
:10054000010C49084FEA300092185B4150EA01075C
:10055000EDD152EA030012D082EA040083EA0501D9
:10056000084305D0101BAB4106D20122002306E050
:1005700000224FF0004302E06FF0010253101AEB2B
:1005800006004CEB085110EB0A0041EB0B01BDE8F3
:10059000F04D00F0DDB80EB5C10F80EAE070084400
:1005A000CA07002140F233438DE80E000A460B468D
:1005B00000F0DDF803B000BD70B5C1F30A5201F0E0
:1005C00000450024C1F3130140F2FF3341F48011D0
:1005D0009A4201DA002070BD40F233439A42A2F2FF
:1005E000334203DC524200F05AF800E090402C43C2
:1005F000F1D0404270BD00F0004230F000400AD01F
:10060000C10D01F56071C0F3160042EA0151C20844
:1006100040071143704700200146704701F0004336
:1006200030B421F0004150EA010206D00A0DA2F5D3
:100630006072C1F31301002A02DC30BC0020704755
:10064000440F44EAC104C100E01830BC00EBC250C2
:1006500000F047B830B50B460146002020220124A7
:1006600009E021FA02F59D4205D303FA02F5491B80
:1006700004FA02F52844151EA2F10102F1DC30BD96
:10068000202A04DB203A00FA02F100207047914052
:10069000C2F1200320FA03F3194390407047202A47
:1006A00004DB203A21FA02F00021704721FA02F31C
:1006B000D040C2F120029140084319467047202AD9
:1006C00006DBCB17203A41FA02F043EAE07306E07A
:1006D00041FA02F3D040C2F120029140084319468A
:1006E00070470029A8BF7047401C490008BF20F090
:1006F0000100704710B4B0FA80FC00FA0CF050EA28
:10070000010404BF10BC704749B1CCF1200421FAA8
:1007100004F411FA0CF118BF012121430843A3EBA3
:100720000C01CB1D4FEA00614FEA102042BF0020B0
:1007300010BC704700EBC35010440029A4BF10BC8C
:100740007047401C490008BF20F0010010BC7047F2
:1007500010B5141E73F1000408DA401C41F10001C9
:1007600092185B411A4301D120F0010010BD2DE920
:10077000F04D92469B4611B1B1FA81F202E0B0FA17
:1007800080F220329046FFF77BFF04460F4640EA96
:100790000A0041EA0B0153465A46084313D011465A
:1007A00053EA010019D0C8F140025046FFF777FF25
:1007B00005460E46504659464246FFF761FF08433C
:1007C00005D0012004E020463946BDE8F08D002028
:1007D000054346EAE0762C4337430A986305E40A6A
:1007E000A0EB08000022FD0A44EA47540A3002D573
:1007F00000200146E9E7010510196941DDE90845D6
:1008000000196941BDE8F04DA2E7000030B5041EB3
:1008100071F1000404DB4FF00044404264EB01013D
:10082000141E73F1000405DB1C464FF000435242D6
:1008300063EB0403994208BF904230BD064C074D5C
:1008400006E0E06840F0010394E8070098471034A0
:10085000AC42F6D3FFF7BCFC80710208A07102081D
:1008600070B58C1810F8015B15F0070301D110F872
:10087000013B2A1106D110F8012B03E010F8016B9F
:1008800001F8016B5B1EF9D12B0705D40023521E22
:100890000DD401F8013BFAE710F8013BCB1A921C8A
:1008A00003E013F8015B01F8015B521EF9D5A14288
:1008B000D8D3002070BD00009FED201AB5EE002AAD
:1008C00000EE012A9FED1E1ABDEEC20AB5EEC02A47
:1008D000F1EE10FA10EE100AB8BF013800EE100A5F
:1008E0000020B8EEC00A32EE400A9FED162A20EE34
:1008F000010ABDEEC01A11EE101A30EE021AB0EB6A
:10090000512F18BF002102EE101A46F67C1000FE8F
:10091000010AC0F60200B8EE422A00EB810090ED19
:10092000011A30EE420AB7EE002A32EE402A20EEDB
:10093000010A90ED001A02EE010A704783F9223E87
:1009400000000044000000C49FED1F1A20EE010AC1
:100950009FED1F2ABDEEC01AB5EEC00AF1EE10FAE7
:1009600011EE100AB8BF013801EE100A0020B8EEEF
:10097000C11A30EE410A9FED151A20EE010ABDEEB4
:10098000C01A11EE101A30EE021AB0EB512F18BF38
:10099000002102EE101A46F67C1000FE010AC0F695
:1009A0000200B8EE422A00EB810090ED011A30EE11
:1009B000420AB7EE002A32EE402A20EE010A90EDFC
:1009C000001A02EE010A704783F9223E000000443B
:1009D000000000C41CB5044600F0E6F8034600F031
:1009E000D3F802460020CDE900040648064C006812
:1009F00000EB800101EBC00104EB8101C96D02F045
:100A0000A5FE1CBD28090120D40A01200648C023E8
:100A100030B408240522046061034361C261C162ED
:100A200030BC01F0D7BD00008009012030B40A4C71
:100A30000A4B246804EB440403EB84039B689C8802
:100A40001D68E41DDB88E408203A14FB02F203FB76
:100A5000025230BC00F0B0BD28090120BC0B0120BF
:100A6000094810B50068816941F0010181610122E6
:100A70000648110301F04EFA01220548BDE8104076
:100A8000082101F047BA0000D40A012000200240EA
:100A9000002802402DE9F047002704461546894604
:100AA00010463A4600E0521C10F8011B0029FAD10A
:100AB00000F06AF8DFF89CC0012B274EDCF800102C
:100AC00001EB410106EB810189688988B0FBF1F0F7
:100AD00002D0022B09D104E0801A484304EB5000F5
:100AE00002E0801A4843001B84B247F6FF71601E83
:100AF000884200D30124E04600F046F80146D8F8C9
:100B0000000000EB400006EB80008068808807FB57
:100B1000101189B2814213D3012012E049462046C8
:100B2000FFF784FFD8F800007F1CBFB26D1C00EBFC
:100B3000400006EB800080688088204484B2DBE7B8
:100B400000202A780AB1012100E000210842E5D105
:100B5000BDE8F08728090120BC0B0120084B10B527
:100B6000C1EB01141B6800EB441003EB830101EBA4
:100B7000C301044B03EB8101C96D41F8202010BD76
:100B800028090120D40A01200548006800EB8001F3
:100B900001EBC000034901EB8000006E70470000CC
:100BA00028090120D40A01200548006800EB8001D3
:100BB00001EBC000034901EB8000406E704700006C
:100BC00028090120D40A01202DE9F041244C2820D5
:100BD000092140F21B1604F1140840F215253522B4
:100BE00040F21D1C0B2340F2352788E8EF1000214E
:100BF0002046FFF70BFF4FF4F07222664FF4887126
:100C00006166002084F8340084F8350084F83600EA
:100C10006060A060134AE06022602061204601F01D
:100C2000C2FB18B90021204600F060F80C4801F022
:100C3000BDFB0B48002101F03BFC01220A481103D7
:100C400001F068F909480122082101F063F900F078
:100C500055F9074800F0FAF80020BDE8F0810000DF
:100C6000D40A012000680140002002400028024010
:100C70002C09012030B58DB00A46002304460093AC
:100C8000FFF782FFCDE90103FFF78EFFFF210390FD
:100C900007208DF8303009924FF4C0658DF831305F
:100CA000CDE9043106938DF83230CDE90750FFF7D6
:100CB0006BFF0A90FFF778FF0B90224609486946C0
:100CC00001F048FB074904EB44004FF0FF34E831E2
:100CD00001EB800223065460034C946041F82030FD
:100CE0000DB030BDD40A01202C0901204748F0B5D1
:100CF000016887B041F080610160006800F08060A9
:100D0000059042481438016841F40001016001680F
:100D100001F400010591016841F0100101600168D2
:100D200001F010010591016841F040010160016886
:100D300001F040010591016841F480710160016892
:100D400001F480710591016841F40071016001684E
:100D500001F400710591016841F48061016001684E
:100D600001F480610591016841F4807101600168BE
:100D700001F480710591016841F4806101600068AF
:100D800002240E2500F4806005901020CDE90004B7
:100D900002A8002180E832001D48694600F0CEFF1D
:100DA000E6026946092004901A48CDE9006400F083
:100DB000C5FF194F4FF46740CDE900046946384636
:100DC000049500F0BBFF4EF6FF706946CDE90004C4
:100DD0001248049500F0B2FF0495F720104D6946C3
:100DE000CDE90004284600F0A9FF012469463846F1
:100DF000CDE9006400F0A2FF08206946CDE90004B7
:100E0000284600F09BFF07B0F0BD000044380240C8
:100E1000001002400018024000200240002402405E
:100E2000002802400149086070470000280901209D
:100E30000449054A096801EB410102EB8101486060
:100E40007047000028090120BC0B01200449054A15
:100E5000096801EB410102EB8101886070470000E5
:100E600028090120BC0B0120094A8423012903EB36
:100E7000C01011680B5808D023F001030B50106804
:100E8000416A41F001014162704743F00103F5E717
:100E9000D40A01200349044A096801EB410142F8E0
:100EA0002100704728090120BC0B012030B5002823
:100EB00087B01BD10F490E4D086840F48070086060
:100EC000086803220C4C00F4807005900120216812
:100ED000CDE90010CDE902026946284600F02EFF58
:100EE0002088002281B2284601F014F807B030BDF6
:100EF00000200240303802405C6902081B48022290
:100F00002DE9F04100F13401174E07230660042556
:100F100081E82C00CB6000240A61D7014A611023CC
:100F20008A61910244604026C0E902454A00C0E956
:100F30000741C0E909241030002180E8C8001038BA
:100F400000F05EF809490948343102F025F8084DEF
:100F500010B10120287000E02C7040F2036000F016
:100F600009F82878BDE8F081400100A0300F012089
:100F70003C0901202DE9F843204C102700254FF6AD
:100F8000FF780126009521468146C4E90067C4E93F
:100F90000265A1F15000424602F032F8012000F053
:100FA000BBFE02202146C4E90007C4E90265A1F1A5
:100FB0005000424602F024F803214246C4E90017DB
:100FC00008202146C4E90205A1F1500002F018F8FA
:100FD0004FF40870009004214246C4E90260C4E95D
:100FE00000172146A1F1500002F00AF8A4F15000C8
:100FF0004946BDE8F84301F0F1BF0000800F012031
:10100000F0B504464F4887B0016841F00101016026
:1010100000684C4900F0010005900839086840F468
:1010200080000860086800F480000590086840F0BF
:1010300004000860086800F004000590086840F0AB
:1010400008000860086800F008000590086840F093
:1010500010000860086800F010000590086840F073
:1010600020000860086800F020000590086840F043
:1010700040000860086800F040000590086840F0F3
:1010800080000860086801210C2200F080000590B3
:101090000220CDE9010108230093CDE903022A488B
:1010A000694600F04BFE4CF20370009027486946F9
:1010B00000F044FE4FF6837000902548694600F02A
:1010C0003DFE4FF63F0000902248694600F036FE94
:1010D00048F2331000902048694600F02FFE282087
:1010E00000901E48694600F029FE1D494FF4007526
:1010F00000224FF0800CEE006F004A606801C1E9E9
:1011000002C5C1E904761831164EC300032581E8F3
:101110000D00C1E903254A618A6141F8186D216318
:101120000F488C6300F085FC0D4800F083FD002221
:101130000F21382001F0E6F9382001F0D6F907B088
:10114000F0BD00003838024000080240000C0240A8
:10115000001002400014024000180240001C02402F
:10116000700E012010640240704770477047000005
:101170002DE9F04F95B0584D4FF0000B06465C46F8
:10118000CDF844B0CDF848B0CDF84CB0A8680169AE
:1011900068788847002830707ED000240DF1100A4E
:1011A0000DF1380908AF8BE0A8680DF12C080AEBA7
:1011B000440208EB4401436968789847287801287D
:1011C00007D138F8142029F814203AF8141027F819
:1011D0001410810705D538F81410C1F5805129F88D
:1011E0001410410705D53AF81410C1F5805127F8BD
:1011F0001410000707D538F8140027F814003AF83F
:10120000141029F81410DFF8D48039F8140058F8B5
:101210002410884201D9421A00E00A1A2F491FFA05
:1012200082FC37F81420143151F824309A4201D945
:10123000D31A00E09B1A9BB26344052B03D948F8EC
:10124000240041F8242095F801C0BCF1700F26D08D
:1012500058F8242006EB44006B885A43120B428056
:1012600051F82410AA885143090B818113A8214603
:1012700012AB009011AA604603F084FA301911995C
:101280008175129980F82010139979B101290FD036
:10129000022910D0032900E01AE010D10DE006EB7E
:1012A0004401488037F814008881DFE7012100E01D
:1012B0000221C17603E00321FBE780F81BB0641C28
:1012C0003078A0423FF670AF304600F009F804468F
:1012D00015B02046BDE8F08F40090120900F012095
:1012E000F8B504461448002669460096354640780D
:1012F00003F038FA0098182816D005DC68B11028D9
:101300000DD0142806D10CE01C280FD040280FD097
:1013100049280FD001252846F8BDA662FBE7012029
:1013200000E00220A062F6E70320FBE70420F9E7D3
:101330000520F7E70620F5E74009012070B50C4CC1
:1013400000260C4D60807020A1802968884769685C
:1013500070208847512802D00326304670BDA56012
:101360007020607008212170E9688847F5E7000067
:10137000400901204C090120FEE700003F484FF0E2
:10138000000C2DE9F043011D3D4A0B1D3D4C1D1D78
:10139000C1F800C005261A602C600660BFF34F8FAD
:1013A000BFF36F8F3848C0F800C0BFF34F8FBFF353
:1013B0006F8F324980390A6842F480220A60BFF395
:1013C0004F8F0A68920311D4BFF34F8FBFF36F8F13
:1013D000C0F800C0BFF34F8FBFF36F8F086840F4B1
:1013E00000300860BFF34F8FBFF36F8FDFF88C9032
:1013F000A9F11009C9F800C0BFF34F8FA9F1040883
:10140000214A43F6FF731032D8F80000C0F34E347F
:10141000C0F3C90603EA4417304600BF47EA8075A7
:101420001560401EFAD2641EF4D2BFF34F8FBFF393
:101430006F8F0868C0031ED4C9F800C0BFF34F8F78
:10144000D8F80000C0F34E34C0F3C90503EA4416CF
:10145000284600BF46EA80771760401EFAD2641E15
:10146000F4D2BFF34F8F086840F480300860BFF3B8
:101470004F8FBFF36F8FBDE8F083000094ED00E065
:10148000100001203D00020350EF00E0F0B5059C84
:1014900044EA034503685C6C04F040442C435C64FC
:1014A0000368DA634268B2F5403F02D00068C16069
:1014B000F0BD01F47F42856801F47F04224301F00E
:1014C0007F4301F47F0701F47F46CCB2BDB1012D0B
:1014D00016D001F47F02C1F3C401D20C022D11D049
:1014E000032D14D0320B390D15011A0F45EA0123D3
:1014F000210943EA02320A4300688263F0BD1A43BD
:101500002243F9E7B30A5B0143EAC222F3E7F40A94
:10151000DB0F640144EA822242EAC332EBE70000B7
:101520000148C06B00F0B6BAEC0D01200148006C18
:1015300000F0B0BAEC0D012001681823CAB2103ACD
:10154000B2FBF3F2054B6FF30901032A9B5CC36501
:1015500000D9091D8165084670470000204A02082D
:1015600010B583694FF0C074826A0146002053B100
:10157000B3F5005F15D072B1012A0CD0022A0AD04F
:10158000032A09D104E01AB1012A06D0022A03D1A4
:10159000C96AC90100D5012010BDC96AA142FAD0AB
:1015A00010BD002AF7D0012AF2D0022AF3D0032A74
:1015B000F3D010BD704700002DE9F74F29480026F1
:1015C000DFF89CA0006800EB40000AEB8000806818
:1015D0008588C788E81D834620F00700401B00F07F
:1015E000FF0939E04FEADB010298012901FB0600FF
:1015F00009D0022909D0017842788378080440EAAA
:101600000220184303E0007801E0008840BA00247B
:1016100080461AE02A1B02EB09010120491E88407E
:1016200010EA080F009800EB04020E48016890B21F
:1016300001EB410202D05AF8222002E00AEB8201BB
:101640004A680199FFF78AFA641CAC42E2D3019818
:10165000401C80B20190761CBE42C3D3BDE8FE8F11
:10166000BC0B01202809012070B5114C20684007EF
:10167000FCD5104D00216868FFF7F6FB2068400795
:10168000FCD5686868B100200121FFF7EDFB6868B0
:1016900048B10020FFF7C6FB686830B100206860E1
:1016A00070BD0120F0E70120F4E70120F7E700001A
:1016B0004868014000000120F0B5D1E90125D1E9D9
:1016C0000343D1E905762A43D1F800C044EA030474
:1016D000D1E9073542EA0402496A42EA0702BCF14D
:1016E000010F42EA060208D004681A432A430A435B
:1016F000E30BDB031A4302600BE0066844682B43EC
:1017000026F4F84529430B4303606FF30E0422438C
:1017100042600020F0BD426942EA4101416100207F
:10172000704738B591E81C00C9686FF01F051A436F
:1017300005EB441444EA41210A430092026100206F
:1017400038BD00002DE9F043914691E81C006FF090
:101750000F05521E2E0105EB03131A430B7E06EBF9
:1017600004268C8A2F034FEA054C0D8A32434FF032
:101770007F4808EB0366CB68B9F1010F07EB05451D
:101780000CEB04540CD081683F1107EB03331A4370
:101790002A432243324301F070410A43826011E040
:1017A0008168DFF828C0C7681B03A3F58053234373
:1017B0002A4301EA0C0132430B43836007F0704473
:1017C0002243C2600020BDE8F0830000FF0F0FFF3E
:1017D00070B590F83820012A23D0244C012680F8D7
:1017E0003860022300EB011280F83930158CD36980
:1017F00018320A2B43EA054515D0092B13D0137B69
:1018000045EA0363056899B1E969A1431943E961B0
:10181000016813680B6151680A291BD0092919D086
:101820001DE0022070BDD36803F07F432B43E9E73E
:10183000696AA14319436962016813688B61516841
:101840000A2901D009290AD1D168026821F07F4113
:10185000916204E0D168026821F07F4111620021A9
:1018600080F8396080F83810084670BD0F0003FF1B
:1018700070B5040004D094F83900002510B106E0DA
:10188000012070BD204684F8385000F01EF8022078
:1018900084F83900D4E900030121026822F44032BF
:1018A0001A4302602068A368426B22F007021A43C1
:1018B00042632068E368026C6FF30D021A4302640E
:1018C000E56384F83910002070BD70472DE9F843B6
:1018D0000026044604270D4600964FF003080068D2
:1018E0000068C00726D000F01BFB81461EE0406860
:1018F000009010F0210F10D00098800603D5E06B07
:1019000040F00200E0630098C00703D0E06B40F0B5
:101910000100E0632168212035E0681C06D000F05A
:10192000FFFAA0EB0900A8424DD8A5B32068416892
:101930008907DCD52068C169406A01F0200100F008
:101940002000084335D000F0EBFA81462DE04068D6
:10195000009010F0290F1FD00098000703D5E06B0E
:1019600040F00400E0630098800603D5E06B40F08F
:101970000200E0630098C00703D0E06B40F0010074
:10198000E06321682920886084F83970012084F898
:101990003860BDE8F88316E0681C06D000F0C0FA95
:1019A000A0EB0900A8420ED86DB120684168C906B5
:1019B000CDD5226812210120916084F839000020E1
:1019C00084F83860E5E7E16B84F8386041F0200185
:1019D000E16384F839800320DBE7F8B50446069814
:1019E00094F83850012D10D0012684F83860022573
:1019F00084F8395000902046FFF748FD20680168C0
:101A000041F0010101600020F8BD0220F8BD90F80E
:101A10003510022903D0802141650120704705213E
:101A200080F835100068016821F001010160002094
:101A3000704770B504002BD094F83500022826D0EA
:101A4000206800252122016821F001010160206841
:101A5000056020684560206885602068C560206852
:101A60000561206842612046FFF766FD94F85C201E
:101A70003F2191408160E56325646564A564E56468
:101A80002565656584F83550002084F8345070BDB4
:101A9000012070BD2DE9F84304464FF00009644B66
:101AA0000820CDF800904FF41652A56D94F85C1004
:101AB0001B682E68B3FBF2F700FA01F131420FD038
:101AC00021680A6852070BD50A6822F004020A60EE
:101AD00094F85C108840A860606D40F0010060657B
:101AE00094F85C104FF0010808FA01F0304208D079
:101AF00021684969090604D5A860606D40F00200BC
:101B0000606594F85C1004208840304208D0216859
:101B10000968890704D5A860606D40F0040060651D
:101B200094F85C1010208840304218D02168096871
:101B3000090714D5A86020680168490304D5006826
:101B4000000308D5A16C07E00168C90503D401684A
:101B500021F008010160216C09B12046884794F802
:101B60005C1020208840304231D021680968C906C5
:101B70002DD5A86094F8350005282068016806D0A6
:101B8000490347D5006800031DD4616C1CE021F0B7
:101B9000160101602068416921F080014161206CDB
:101BA00008B9A06C20B12068016821F0080101602B
:101BB00094F85C303F229A40AA6084F8349084F80C
:101BC0003580216D1FE0E16B09B120468847606DCB
:101BD00000282BD0606DC00714D0052084F8350094
:101BE0002068016821F0010101600098401C00900C
:101BF000B84203D820680068C007F6D184F8349052
:101C000084F83580E16C002910D001B02046BDE891
:101C1000F04308470168C905D5D4036823F01003D1
:101C2000036084F8349084F83580CCE7BDE8F8830D
:101C30007C0901202DE9F047044600F071F90546C2
:101C400064B14FF0000984F83490022184F8351013
:101C50002068016821F0010101600EE00120BDE86B
:101C6000F08700BF00F05CF9401B052805D9202152
:101C70006165032084F83500F1E720680068C0073B
:101C8000F0D1D4E90020D4E90251D4E9043C28433E
:101C900004F1180519430843116895E8E00140EA8A
:101CA0000C001C4B2843194040EA060040EA07009C
:101CB000B8F1040F40EA010003D1D4E90B13194332
:101CC0000843106020680126656A4069042D20F0F1
:101CD000070045EA00050CD1D4E90A01054341B1EA
:101CE0002046FFF73DFC20B14020606584F8356058
:101CF000B4E7206845612046FFF71EFC94F85C308D
:101D00003F229A408260C4F8549084F835600020E5
:101D1000A5E700003F8010F070B5044600F000F920
:101D20000546601C02D004480078044400F0F8F82E
:101D3000401BA042FAD370BD1C0901202DE9F84FC9
:101D4000DFF89CE100224FF001084FF0030B4FF049
:101D50000F0A00BF0B6808FA02F42340A34271D1B6
:101D60004D68022D01D0122D0FD1D5080E695707ED
:101D700000EB8505A9462D6AFF0E0AFA07FCBE4056
:101D800025EA0C052E43C9F820600F795500066836
:101D90000BFA05FC07F0030726EA0C06AF403743B1
:101DA00007604E68012E05D0022E03D0112E01D0FF
:101DB000122E0ED18668CF6826EA0C06AF40374354
:101DC000876046680F79A643C7F3001797403743EB
:101DD0004760C4688E6824EA0C04AE402643C6609F
:101DE0004C68E40075D53F4C256845F48045256076
:101DF000246822F00306950704F4804400943A4CCA
:101E00002D0F2644D6F80848DFF8E0C00AFA05F797
:101E1000604524EA070401D100272EE0344FB84280
:101E200001D1012729E0334FB84201D1022724E034
:101E3000314FB84201D103271FE0304FB84202D1E1
:101E400004271AE045E02E4FB84201D1052714E0DF
:101E50002C4FB84201D106270FE02B4FB84201D1D9
:101E600007270AE0294FB84201D1082705E0284F8B
:101E7000B84201D1092700E00A27AF402743754641
:101E8000C6F808784E68DEF80040F60324EA03043A
:101E900000D51C43124E2C60361D4D683468AD03CE
:101EA00024EA030400D51C430D4F346008374D6805
:101EB0003C68ED0224EA030400D51C43084D3C6055
:101EC0000C354E682C68B60224EA030400D51C4386
:101ED0002C60521C102AFFF43DAFBDE8F88F0000C3
:101EE000003C014044380240003001400000024004
:101EF0000004024000080240000C024000100240B2
:101F00000014024000180240001C02400020024061
:101F1000002402400AB1816170470904FBE7000018
:101F200001488068704700001C09012010B50400BA
:101F300014D0242084F841002068016821F00101B8
:101F40000160204600F0CAF90020606484F8410076
:101F5000206384F8420084F8400010BD012010BDC9
:101F600090F841007047000070B5040004D094F868
:101F70004100002510B106E0012070BD204684F824
:101F8000405000F0ACF9242084F84100206801683A
:101F900021F001010160D4E9001020F070600861B7
:101FA0002068816821F400418160E068216801288F
:101FB000A06806D040F404408860E068022803D09E
:101FC00006E040F40040F7E721684FF40060486005
:101FD00020212068114A4368134343602068C26887
:101FE00022F40042C26054F8106B0DCC104340EA5A
:101FF0000320F06054F81C3CD4E900021043186040
:1020000054F81C0D026842F001020260656484F815
:102010004110256384F84250002070BD008000020A
:102020002DE9FF4F83B0044690F841009A4693464D
:10203000DDE91087DDF84890202874D15FEA0800B8
:1020400014D09FB194F8400001286CD0012084F88E
:102050004000FFF765FF0122064619230090D103D7
:10206000204601F0C1F9002871D103E04FF400705F
:1020700060646CE00025C4F82480222184F84110BB
:10208000402084F8420065646785534665635A467C
:1020900004992046CDE9009601F02CF910B184F89E
:1020A000405054E0618DFF2734484FF08078FF297D
:1020B0004FF0007A04D927853A464346009005E060
:1020C000618D53462185009094F82820204604997C
:1020D00001F074F900224B4604212046009601F0DD
:1020E00083F9A0BB2068616A406A0870606A401C7E
:1020F0006062208D401E81B22185608D401E60850A
:10210000608DD8B1D1B900224B468021204600967F
:1021100001F06AF9D8B9608DFF2805D927853A46BC
:102120004346009506E026E0608D534620850095E5
:1021300094F828202046049901F040F9608D002889
:10214000C8D132464946204601F07BF918B101203A
:1021500007B0BDE8F08F21682020094AC8612168D6
:102160004B6813404B6084F8410084F842500020D3
:1021700084F84050ECE70220EAE7000000240080E9
:1021800000E800FE2DE9FF4F83B0044690F84100BF
:102190009A469346DDE91087DDF84890202871D1F2
:1021A0005FEA080014D09FB194F84000012869D07C
:1021B000012084F84000FFF7B3FE012206461923F0
:1021C0000090D103204601F00FF900286ED103E002
:1021D0004FF40070606469E00025C4F82480212178
:1021E00084F84110402084F84200656467855346B6
:1021F00065635A4604992046CDE9009601F0ACF893
:1022000010B184F8405051E0608DFF274FF0807886
:10221000FF284FF0007A04D927853A4643460095B7
:1022200005E0608D53462085009594F828202046CF
:10223000049901F0C3F832464946204601F028F9D6
:10224000A0BB606A216800788862606A401C606296
:10225000608D401E6085208D401E80B22085618D7E
:10226000D9B1D0B900224B4680212046009601F01A
:10227000BBF8D8B9608DFF2805D927853A46434673
:10228000009506E026E0608D53462085009594F881
:1022900028202046049901F091F8608D0028CAD1C9
:1022A00032464946204601F0CCF818B1012007B06B
:1022B000BDE8F08F20682021074AC161206843688B
:1022C0001340436084F8411084F84250002084F8A1
:1022D0004050ECE70220EAE700E800FE7047704754
:1022E0000248816802781144816070471C0901200E
:1022F000074810B5016841F400710160032000F047
:1023000021F90F2000F006F800F0EEF8002010BDD3
:10231000003C024070B50D4D04464FF47A700C4AF3
:1023200029781268B0FBF1F0B2FBF0F000F078FF12
:1023300048B9102C07D200222146501E00F0E2F8C6
:1023400000206C6070BD012070BD00001C090120E0
:102350007C0901202DE9F041044690F8A0001646C2
:102360000F4601281DD0012584F8A050022084F8D2
:10237000A10006EB860000EBC600342204EB8000CF
:102380003830FDF76EFF32463946204601F01EFA1E
:10239000216800204D6284F8A15084F8A000BDE8B7
:1023A000F0810220FBE790F8A10070472DE9F04191
:1023B000040004D094F8A100002518B107E0012022
:1023C000BDE8F081204684F8A05000F06FF8364850
:1023D000022184F8A110012202CC8B6923F0704302
:1023E0008B6194E84A001943E3681E4354F8043DA6
:1023F00031439E693143996121688B6803408B604A
:102400002168A68AA7698B683B4343EA06438B6031
:102410002168CB680340CB602168A38B276ACE6814
:102420003E4346EA0346CE6021680B6903400B61D8
:102430002168A68CA76A0B693B4343EA06430B61FC
:1024400021684B6903404B612168A38D266B486965
:10245000304340EA03404861236894F8351094F80B
:102460003600DE6A000406F07F46DE62236840EA3A
:10247000012094F83460D96A31430143D96220685D
:10248000416B41F0040141632068416B41F002015E
:1024900041632068816941F001018161C4F8A45061
:1024A00084F8A12000208BE700F800F070470000BE
:1024B00070B590F8A020012A12D0012280F8A02047
:1024C000022380F8A13050F8A03B064D00245E6B3B
:1024D00046F001065E63296042700470204670BDBC
:1024E000022070BD406801407047002809DB4109A7
:1024F00000F01F028900012001F1E0219040C1F8A5
:10250000000170470E4BF0B41B680D46C3F3022365
:10251000C3F10706042E00D90426191D072901D28C
:10252000002300E0DB1E012404FA06F19C40491E52
:102530002940641E994014402143F0BC01F054BF6F
:102540000CED00E0064900F0070210B54FF6FF045D
:102550000868044B204040EA02201843086010BD80
:102560000CED00E00000FA051848F8B5016841F0EC
:10257000805101600068164C00F080500090206887
:1025800040F480302060FFF7CBFC4FF47A760546AC
:1025900005E000BFFFF7C4FC401BB0420FD86068E5
:1025A000C003F7D5206840F400302060FFF7B8FC86
:1025B000054606E0FFF7B4FC401BB04201D90320FA
:1025C000F8BD60688003F5D50020F8BD40380240B2
:1025D000007000402DE9F84F04460078DFF824949D
:1025E0004FF000063746C0070ED0D9F8001021F48E
:1025F0000001C9F80010D9F80010626B1143C9F846
:102600000010606B00B90126FE4D20688435000380
:102610000ED5E16B286820F4401008432860E06B79
:10262000B0F5801F01D010B102E0012600E00127C3
:1026300020684FF4800BC0020CD5216C286820F470
:10264000400008432860206C584501D1012601E074
:1026500000B901272068C10100D50126800666D592
:10266000E8483830016841F0805101600068DFF8C7
:1026700098A300F080500090DAF8001041F48071C7
:10268000CAF80010FFF74CFC804605E0FFF748FC55
:10269000A0EB080064287DD8DAF80000C005F5D565
:1026A000DFF8608308F16808D8F8000010F4407083
:1026B0002AD0218E01F44071814225D0D8F8001033
:1026C000D8F8002021F4407142F48032C8F800208C
:1026D000D8F8002022F48032C8F80020C8F8001092
:1026E000D8F80000C0070FD0FFF71AFC824607E0B9
:1026F000FFF716FCA0EB0A0141F288308142CAD8EC
:10270000D8F800008007F3D5206BC0F3012103291E
:102710007ED0D9F8001021F4F811C9F80010228EEB
:10272000D8F80010C2F30B021143C8F8001020784B
:10273000C00607D5286820F0807028602868A16B43
:10274000084328602188AF488830490405D5626E67
:10275000016821F44031114301602188090405D545
:10276000A26E016821F44021114301602168C90370
:1027700005D5E26E016821F4401111430160216822
:10278000890305D5226F016821F4400111430160DE
:10279000217800E018E1490605D5626C016821F056
:1027A0000301114301602178090605D5A26C016877
:1027B00021F00C01114301602188C90505D5E26CA7
:1027C000016821F03001114301602188890505D598
:1027D000226D016821F0C001114301602188490583
:1027E00005D5626D016821F44071114301602188B3
:1027F000090505D5A26D016821F44061114301600E
:102800002188C90407D5E26D016821F4405100E038
:1028100041E0114301602188890405D5226E0168D9
:1028200021F44041114301602168490205D5A26F9E
:10283000016821F080611143016021684FF0006A56
:10284000890209D5E26F016821F00061114301603E
:10285000E16F514500D1012721680A0700D5012702
:10286000490305D5626F016821F040711143016091
:102870002168090206D5D4F88020016821F0805132
:1028800011430160DFF88491012E0ED02068B0F171
:10289000007F0AD08FE05E4AD9F80030104023F460
:1028A000F8120243C9F8002039E7D9F800004E4673
:1028B00020F08060C9F80000FFF732FB804605E099
:1028C000FFF72EFBA0EB080064287DD830680001DC
:1028D000F6D421784B487C30C90712D0616B81B99E
:1028E000237A62680168D0F800C09201C1F3014107
:1028F00042EA0142CCF3036142EA016141EA037119
:10290000016021680A0303D5E26BB2F5801F04D091
:10291000C9021AD5216C594517D16368016894F82A
:102920000CC002689B01C1F3014143EA0141C2F3BB
:10293000027241EA0C6141EA027101602968626A2F
:1029400021F01F01521E114329602168C90110D5D1
:10295000238A62680168D0F800C09201C1F3036164
:1029600042EA034242EA0162CCF3027142EA017197
:102970000160216889010CD56168228A237B94F863
:1029800008C0890141EA024141EA036141EA0C7150
:1029900001603168B04641F080613160FFF7C0FAF4
:1029A000064604E0FFF7BCFA801B64280CD8D8F870
:1029B00000000001F6D56FB3D9F800004E4620F0B4
:1029C0008050C9F8000000E079E0FFF7A9FA074657
:1029D00005E000BFFFF7A4FAC01B64286FD8306879
:1029E000C0438000F6D50748216880300A0301D52E
:1029F000E26B1AB1C90225D5216C19BB6369016864
:102A0000277E08E00838024000700040003802408D
:102A1000FFFCFF0F5AE00268C1F301419B0143EA4A
:102A20000143C2F3027143EA076242EA01710160A5
:102A300029686FF0FF03A26A21F4F85103EB022228
:102A4000114329602168890212D5E16F51450FD1E8
:102A5000238C6269016807689201C1F3036142EA4D
:102A6000034242EA0162C7F3027142EA0171016066
:102A70002178090716D561690268D0F800C08B017A
:102A8000277FC2F30362CCF3014143EA014141EAEB
:102A9000026141EA077101602868E16A20F4403070
:102AA00008432860306840F080503060FFF738FA03
:102AB000044607E0FFF734FA001B642802D903201C
:102AC000BDE8F88F3068C0438000F3D40020F7E7FA
:102AD0002DE9F04705000F4663D0444E306800F002
:102AE0000F00B84209D2306820F00F003843306040
:102AF000306800F00F00B84253D128683C4C810781
:102B000012D5400703D5206840F4E05020602878B3
:102B1000000703D5206840F460402060A968206861
:102B200020F0F000084320602878C0072AD0304900
:102B300068680839012810D00968022810D0890770
:102B400000292EDA216821F0030101432160FFF7FB
:102B5000E7F9804641F288390DE009688903EFE71B
:102B60008901EDE7FFF7DCF9A0EB0801494502D93F
:102B70000320BDE8F0876868216801F00C01B1EB23
:102B8000800FEFD1306800F00F00B8420BD93068E9
:102B900020F00F0038433060306800F00F00B8427A
:102BA00001D00120E5E72878400705D5E9682068CD
:102BB00020F4E050084320602878000706D52869F3
:102BC000216821F4604141EAC000206000F016F85D
:102BD0002168084AC1F30311515CC84006490860E6
:102BE0000F20FFF797FB0020C3E70000003C0240E6
:102BF000083802406C6902087C090120154910B5AB
:102C00001548096811F00C0213D01449042A0FD09A
:102C1000082A0ED10F4C241F2268236802F03F02BD
:102C20005B0207D52068C0F38810A0FB010106E015
:102C3000084610BD2168C1F38811A1FB00010023E3
:102C4000FDF7DEFA2168C1F30141491C4900B0FBE0
:102C5000F1F010BD083802400024F40040787D01F6
:102C60002DE9F84F05004FF000076ED02878DFF807
:102C70001C93A9F1040AC007AAF104044CD0D9F8A6
:102C800000104846C1F38101012908D00068C0F353
:102C9000810002280AD1DAF80000400206D5206837
:102CA000800339D568680028DFD035E06868B0F562
:102CB000803F0BD010B1B0F5A02F11D0206820F4C8
:102CC00080302060206820F4802002E0206840F4FA
:102CD00080302060686890B1FFF722F906460AE06C
:102CE000206840F480202060F0E700BFFFF718F96B
:102CF000801B642872D820688003F7D50CE0FFF7AA
:102D00000FF9064605E000BFFFF70AF9801B6428AB
:102D1000F0D820688003F7D42878800742D5D9F806
:102D20000010484611F00C0F08D00068C0F3810075
:102D300002280BD1DAF80000400207D4206880078F
:102D400018D5E868012800D114E01CE1E8680028E3
:102D5000206817D040F001002060FFF7E1F8064638
:102D600005E000BFFFF7DCF8801B0228C2D820680E
:102D70008007F7D52869216821F0F80141EAC000F1
:102D800020600FE020F001002060FFF7C9F8064640
:102D900005E000BFFFF7C4F8801B02281ED820689A
:102DA0008007F7D42878000729D5784869696C30FE
:102DB00000298046016812D041F001010160FFF74F
:102DC000AFF8064605E000BFFFF7AAF8801B02280F
:102DD00004D8D8F800008007F6D510E089E021F08B
:102DE00001010160FFF79CF8064604E0FFF798F840
:102DF000801B02287DD8D8F800008007F6D42878F8
:102E000040076BD5DFF8848108F13808D8F8000056
:102E1000C0000BD4D8F8001041F08051C8F8001061
:102E2000D8F80000012700F0805000905848016851
:102E3000C90512D40168834641F480710160FFF72F
:102E40006FF8064605E000BFFFF76AF8801B6428AC
:102E50004FD8DBF80000C005F6D54C4EA8686836A0
:102E600001280AD008B1052811D0306820F00100EF
:102E70003060306820F0040002E0306840F001006B
:102E80003060A868A0B1FFF74BF883460CE03068CB
:102E900040F004003060F0E7FFF742F8A0EB0B01D0
:102EA00041F28830814266D830688007F4D50EE060
:102EB000FFF736F8834607E0FFF732F8A0EB0B0187
:102EC00041F28830814256D830688007F4D42FB15F
:102ED000D8F8001021F08051C8F80010A869C8B3D4
:102EE000D9F80010C1F3810102294CD002282068D2
:102EF00000E040E020F08070206003D0FFF710F881
:102F000005463BE0FFF70CF8064604E0FFF708F83B
:102F1000801B02282FD820688001F7D4D5E90962E8
:102F2000D5E907011B4B570895F82C20084303EB04
:102F3000074343EA8611084340EA026040F000502C
:102F4000CAF80000206840F080702060FEF7E8FFBB
:102F5000054606E015E000BFFEF7E2FF401B022831
:102F600009D820688001F7D50BE000BFFEF7D8FF35
:102F7000401B022802D90320BDE8F88F2068800199
:102F8000F4D40020F8E70120F6E7000008380240FA
:102F9000007000400000FFFF70B504000D4603D034
:102FA00094F82C0010B107E0012070BD002084F8D7
:102FB0002D00204600F011F8022084F82C00206833
:102FC000211DFEF779FBD4E900022946FEF7BAFB82
:102FD000012084F82C00002070BD704710B5044615
:102FE00090F82C00022809D0022084F82C002068D8
:102FF000FEF791FB012084F82C00002010BD00009A
:1030000070B5044690F82C000D4602280DD0022021
:1030100084F82C002068FEF784FB2868022805D07D
:103020005FF0010084F82C00002070BD0520F9E756
:1030300010B5FEF799F810BD704770B5B0F8501094
:10304000002504460068090401F036F818B1A16BA8
:103050000143A16304E02068002101F0EFF8054678
:10306000C5F3432070BD000070B50446006801251B
:1030700040F2FF56416BC90548D52902816320689B
:10308000C16B21F49D71C163206B0007206B20D5BB
:10309000800702D4206B800609D5206801F026F84D
:1030A00028B1A16B0143A1632046FFF7C5FF20684B
:1030B000866384F83450206BC00702D1206B8007F0
:1030C00003D5204600F0A4F870BD204600F0A4F817
:1030D00070BD0006FCD5206B800609D5206801F084
:1030E00005F828B1A16B0143A1632046FFF7A4FFB7
:1030F000206BC007ECD1206B8007E9D42068C16A3F
:1031000021F00801C16284F83450DEE7416B4904C4
:1031100010D54FF480418163266A0025206806EBB4
:10312000850101F0A5F86D1C082DF7D3206A203029
:10313000206270BD416B090410D54FF400418163DA
:10314000A66A0025206801F07FF846F825006D1C6E
:10315000082DF7D3A06A2030A06270BD416B11F03A
:103160003A0FFAD0416B890703D5A16B41F00201F8
:10317000A163416B090703D5A16B41F00801A1636D
:10318000416B890603D5A16B41F02001A163416B1E
:10319000C90603D5A16B41F01001A16386632068C5
:1031A000C16B21F49D71C163206B000623D5206C97
:1031B00058B115490165206CFEF729FC0028CCD0D8
:1031C000206CBDE8704001F07CB8E06B58B10F494D
:1031D0000165E06BFEF71BFC0028BED0E06BBDE88C
:1031E000704001F04AB80020A06384F834502046B3
:1031F000FFF71EFF70BD206B0007FBD584F834502D
:103200002046FFF719FF70BDC34200087B4200084B
:1032100010B5FDF7AAFF10BD10B5FDF7A7FF10BD53
:10322000401EB0F1807F10B501D3012010BD4FF0DA
:10323000E02460610F21601701F0D6F80020A06142
:103240000721216110BDFEE701688A69D243920718
:1032500001D400228A6200688169C943C90703D08A
:10326000816941F001018161704700002DE9F04161
:103270000446006890460E468069C043C00635D4B7
:103280000025202720688069C043800616D5701C61
:10329000F8D0FEF745FEA0EB0800B04201D8002EA2
:1032A000F0D1606C84F8405040F02000606484F8F5
:1032B000417084F842500120BDE8F081216810205F
:1032C000C8612068C7612046FFF7BEFF2068084933
:1032D00042680A404260606C40F00400606484F818
:1032E000417084F8425084F84050E4E70020E3E75E
:1032F00000E800FE2DE9F843174604461548DAB207
:10330000DDE908981E4600900023204600F056F89C
:1033100042464946204600F0BBF8B8B9012EFDB23E
:1033200008D02068390A816242464946204600F0AA
:10333000AFF858B920688562002240214B462046EC
:10334000CDF8008000F050F8002800D00120BDE842
:10335000F8830000002000802DE9F8430446164859
:1033600017461E46DAB20090C3022046DDE90898EF
:1033700000F024F842464946204600F089F8B8B9E2
:10338000012EFDB208D02068390A816242464946C2
:10339000204600F07DF858B920688562002280211F
:1033A0004B462046CDF8008000F01EF8002800D0E3
:1033B0000120BDE8F88300000020008070B500689F
:1033C000C1F30901074E41EA0241049C4FF48065B4
:1033D0004268194305EA54553543AA4321430A4339
:1033E000426070BDFF63FF032DE9F0411D461746A3
:1033F0000E460446DDF8188008E0681C06D0FEF78B
:103400008FFDA0EB0800A8420BD855B12068806959
:1034100036EA000013D00020B842EED00020BDE80C
:10342000F081626C002084F84000202142F02002EC
:10343000626484F8411084F842000120EFE7012023
:10344000EAE770B516460D4604460DE032462946B9
:103450002046FFF70BFF08B1012070BDFEF760FDAD
:10346000801BA84207D835B120688069C043800618
:10347000ECD4002070BD626C002084F84000202154
:1034800042F02002626484F8411084F84200E3E7CD
:1034900070B516460D4604460FE0324629462046D2
:1034A000FFF7E4FE08B1012070BD681C05D0FEF7EF
:1034B00037FD801BA84207D835B120688069C0431A
:1034C0008007EAD4002070BD626C002084F84000C0
:1034D000202142F02002626484F8411084F8420006
:1034E000E1E710B50446FEF721FD2046BDE8104097
:1034F000AFF3008010B50446FEF732FD002818D166
:103500000C48844201D10C4800E00C4801210C4ACF
:10351000206000206260C4E9020120616061E06116
:103520002062204600F00EF82046BDE81040FEF76D
:103530001BBD10BDD40B0120005C004000540040B6
:1035400032279140F0B542490022424B87B0424DAC
:103550004FF48076414C9842D1F800C04FF01200F1
:103560004FF002034FF0040737D14CF0800CC1F844
:1035700000C009680DF1080C01F08001059180215F
:10358000CDE900108CE88C00354F69463846FEF7CF
:10359000D5FB694638460096FEF7D0FB286840F414
:1035A00000002860286800F400000590206840F4BE
:1035B00000002060206820F40000206000220F211D
:1035C0004820FEF79FFF4820FEF78FFF00220F21C3
:1035D0004920FEF797FF492035E04CF0020CC1F876
:1035E00000C00968CDE9022301F00201CDE90471B0
:1035F000CDE900601B4E69463046FEF79FFB701513
:10360000694600903046FEF799FB286840F40010A8
:103610002860286800F400100590206840F400102D
:103620002060206820F40010206000220F211F205D
:10363000FEF768FF1F20FEF758FF00220F21202011
:10364000FEF760FF2020FEF750FF07B0F0BD00003E
:1036500030380240D40B012040380240203802406C
:10366000001C024000040240FEB50D4606464FF421
:103670007A74DDE908018DE8130029463046FEF72B
:10368000CFFC040003D029463046FFF72AFF20462E
:10369000FEBDFEB50D4606464FF47A74DDE908011D
:1036A0008DE8130029463046FEF76CFD040003D078
:1036B00029463046FFF715FF2046FEBD70B5FDF7E1
:1036C00083FA4FF0404500202946FDF7D3FAFDF775
:1036D0005BFA0446FDF768FA4443012005EB8401D8
:1036E000FDF7C8FAFDF7BCF90020FDF79BFBAC1114
:1036F0002046FDF79DFB25162846FDF7CBFB20460F
:10370000FDF768F90120FDF78DFB2046FDF790FBE2
:103710002846FDF7BFFB2046FDF75CF90A4C6068C0
:1037200070B10020FDF77EFB606858B100200121D8
:10373000FDF79AFB60680021BDE87040FDF794BB7F
:103740000120EFE70120F2E7000001202DE9F84316
:1037500007461B480E461546DDE908184FF440326F
:103760001C464260174A126802EB820303EBC20256
:10377000A0F1A80303EB8202926C022A00D000227F
:103780008260114A0260C1600D48FEF771F800289E
:1037900014D10B483946FEF71BF800280ED1084813
:1037A0002B46324641460094FEF717F9002805D112
:1037B000BDE8F84302480A21FEF788B8BDE8F8835F
:1037C0007C0B01202809012000B002402DE9FE4FAA
:1037D00081460068882493468D888C2204EBCB17A1
:1037E0008A46C3689421BE46C459C3F30B432B4495
:1037F00004F470441F04019702EBCB1240F80E4012
:1038000001EBCB13DAF800709C214FF0AC0C01EB0C
:10381000CB1440F2077102910CEBCB11D9F800C028
:1038200098250020CDF800C0A02605EBCB15DCF8CC
:103830000CC006EBCB16CCF30B4C0CF1010C07EBD8
:103840000C08DDF800C0019F48EA07084CF80E801C
:10385000D9F80070BAF80CC0B846FF68C7F30A0779
:1038600067444FEA074E58F8027007F4704C48F866
:1038700002C0D9F800C0DAF80870DCF80C80C8F390
:103880000A0808F10108B84448EA0E084CF802801A
:10389000D9F80020D75827F00707D750D9F800707B
:1038A000DAF81020FA509AF831209AF818304FEAD6
:1038B000022C9AF83220120442EA0362D9F800304E
:1038C0001F5918519AF8303043EA0C031343D9F8C2
:1038D00000201351D9F80020535923F0FF0353510E
:1038E000D9F80020DAF814305351D9F80020935950
:1038F000029CA3439351D9F80030DAE9072422430C
:103900009A51D9F8002053585050D9F80020DAF8CD
:1039100024005050DAF81000C8B301283AD0042827
:103920003AD0022838D0032836D0072834D00120D6
:10393000D9F80030B02505EBCB11B42284245D58B2
:1039400002EBCB1205F0E0255D50DAE9003504EB1F
:10395000CB14EB1ABAF8285043434543D9F800007A
:10396000DB1C43EA05434350D9F8000081586FF34C
:103970000A018150D9F80000DAF82C108150D9F8EA
:103980000000015941F001010151BDE8FE8FFFE740
:103990000420CDE70320CBE70220C9E7FEE770470C
:1039A000704700002DED108B90B09FEDFE8A9FEDCB
:1039B000FEDAFE484FF4F0710B91F3EE068AB2EE98
:1039C000079AFFEE009AB0EE48AA8DED0A8ADFED65
:1039D000F8AAF8494FF48874016001F5803141601C
:1039E000A1F580418160A1F50041C160A1F50041D0
:1039F000016101F54041416101F540418161A1F55D
:103A0000E031C161EC4801684907FBD5EB4800682B
:103A100000287CD05FF00000FDF704FA00F0ACFF56
:103A200083464FF07F40FCF7D5FFDFEDE53A9FED91
:103A3000E54A39EECA2A79EE8A0A78EE6A1A38EE31
:103A40002A0AE14E002070EEC24A30EE615A00BFF1
:103A5000A0F1880100EE101AF0EE680AA0F20F1330
:103A6000B8EEC00A0021C0EB001AA3EB031983EEE5
:103A7000801AB0EE490A24EE813A65EE012A41EE41
:103A8000020A01EE210AC3EE045A82EE843A00BF14
:103A9000BDEEE01AFDEEC02AC44A01EB4A1CCB4F32
:103AA00001EB4918B8EEC11AB8EEE26AD26970EEBD
:103AB000C12A30EE461A70EEA50A30EE030A62EE15
:103AC0008D2A21EE0D6ABDEEE21AFDEEC62A11EE38
:103AD000105A12EE903A05F03F0503F03F0305EB54
:103AE000831352F8232007EA520242F07F424BF838
:103AF0002C204BF82860491CB1F5F07FC8DB401C36
:103B0000A042A5D3BDEEC90A8DED090A00E03EE052
:103B1000BDEEE80A4FF0000A8DED0E0A0B984FEA51
:103B20004A0101EE101A00EE900AB7EE000AB0EE5C
:103B300069BAF8EE601ADDED0E0AF0EE48BA10EE42
:103B4000906ADDED090A10EE905AF8EEC10A80EE97
:103B5000A11A71EE400A0AEE20BA4AEEA0BA80EE2F
:103B60000B1AB5EEC0BAC0EE2B0AF1EE10FAB0EEA9
:103B7000C1EAF0EEE0DA0CD200EE106A4FF0FF3945
:103B8000B8EEC00A38EEC00A60EE0EEA24E001206A
:103B900042E71EEE100A4FF00109FCF72CFD41EC44
:103BA0001F0B18EE900AFCF726FD41EC1C0B30466B
:103BB000FCF7F1FC9FED861B53EC112BFCF763FB2C
:103BC00053EC1C2BFCF700FC53EC1F2BFCF702FC06
:103BD000FCF724FD0EEE900AF5EEC0BAF1EE10FAF5
:103BE0000AD200EE105A4FF0FF38B8EEC00A39EE94
:103BF000400A20EE2D0A22E01DEE900A4FF0010847
:103C0000FCF7F9FC41EC1F0B19EE100AFCF7F3FC72
:103C100041EC1C0B2846FCF7BEFC9FED6D1B53ECE2
:103C2000112BFCF730FB53EC1C2BFCF7CDFB53ECBA
:103C30001F2BFCF7CFFBFCF7F1FC00EE100A6649E6
:103C4000F4EEC0EAF1EE10FA04D200277EEE8EEA1E
:103C50004E4403E030EE2D0A0127454406EB4600B2
:103C600001EB401050F825000028E9DDF7B300EE25
:103C7000105AC8F10100B8EEC00A00EBD070401035
:103C800070EE490A00EE100AB8EEC00A70EE200A83
:103C900080EEAB0A00EE904AF8EE600A80EE801AE1
:103CA000FDEEC10A10EE900A0890404200EBD07081
:103CB000401000EB54005FEA000801D54FF0000807
:103CC000089800EBD0700D90401000EB5409A1450E
:103CD00001D3A4F1010906EB460001EB401050F8B6
:103CE0002500A0F101000C90F7B300E02AE0F0EE0F
:103CF00068DA40EE0BDA00BF1DEE900AFCF77BFCA1
:103D000041EC100B00F084FBB0EE40CAF0EE60CA4C
:103D10001DEE900AFCF76FFC53EC1C2BFCF754FBD8
:103D2000FCF77CFC00EE100A20EE0D0ABDEEC00A86
:103D300010EE105A0FB33FB3F5EEC0BAF1EE10FA21
:103D400020D321E000EE106AC9F10100B8EEC00AEC
:103D500000EBD070401070EE680A00EE100AB8EE6A
:103D6000C00A70EE200A00E002E080EE8B0A91E7C4
:103D7000F0EE49DA40EE2BDABEE7B5EEC0BAF1EE6E
:103D800010FA01DDC5F13F050898FCF704FC41EC91
:103D9000100B53EC102B9FED110B51EC100BFCF79B
:103DA0008BFB1FE00000000000008042300A012071
:103DB000C3F5283F20CA00084868014004000120DC
:103DC000000008430000F043FF8080FF7F7F7F00FA
:103DD000000000000000F03F1C0001200000000077
:103DE00000005040FCF71AFC00EE900A0D98A8EB7A
:103DF0005401A34BA34E01EB600000EE100A4046B5
:103E0000B8EE400A20EE200A1CE000BFBDEEC01A4A
:103E100030EE200A012F11EE101A01F03F020C992A
:103E200005EB821253F8211051F8221003D106EA53
:103E3000510141F07F41C0EB001C0AEB4C1C4BF8D8
:103E40002C10401C4845E1DB0B990AF1010A8A4518
:103E5000FFF464AE9DED0ABAFEF762F800EE100AB8
:103E6000DFED890AB8EE400A8DED0A0A30EE4B0A02
:103E700080EE20BA1BEE100AFCF7BDFB41EC100BE4
:103E800053EC102B1FED2E0B51EC100BFCF714FB19
:103E9000FCF792FB7DA10246684600F091FA4FF0D4
:103EA000FF30FCF7F7FF7B48FCF7D0FF01236A46A1
:103EB00000204FF48271FCF7EDFD77480168490757
:103EC000FCD576480068FCF7ADFFF1EE040AB0EED1
:103ED000080A6BEE20BA72482BEE00BAFDF748F9DB
:103EE0006F480178012906D06E490020C1F8000012
:103EF000FDF7BAFB86E56B490A684AB36A4D41880B
:103F00006A88891A09B2E9808089AA88801A00B271
:103F10002881B5F90A208A1A0A32142A05D8B5F977
:103F20000C20821A0A32142AE2D969810022A8815F
:103F30006A702A70E9B301F10A0014284CD90029EB
:103F4000B0EE69CA0CDDB1EE4B0AB0EE40BA09E042
:103F5000554A01230B604188518080899080C7E7D2
:103F6000B0EE4B0AFCF7A8FC60EE299AB0EE4B0AC3
:103F7000FCF7EAFC48EE409AB0EE4B0AFCF7E4FC92
:103F800020EE0CCAB0EE4B0AFCF796FCF0EE480AA5
:103F9000B0EE4C8AB0EE4ACA00EE808AB0EE4B0A10
:103FA000FCF78AFC20EE0AAAB0EE4B0AFCF7CCFC28
:103FB00000E011E00AEEC0AAB0EE4B0AFCF7C4FC28
:103FC00020EE0CCAB0EE4B0AFCF776FCF0EE6A0A63
:103FD000F0EE4CAA40EE80AAB5F90800002887D080
:103FE00000F10A01142983D90028B0EE680A19DD0E
:103FF00009EEEB0ADDED090A2B4910EE902A10318B
:10400000FDEEC00A10EE900A00EB400001EB4010FC
:1040100050F8220008B9F0EE408AB0EE490A08EEE6
:104020006B0A18E009EEAB0ADDED090A1E4910EE35
:10403000902A1031FDEEC00A10EE900A00EB40000D
:1040400001EB401050F8220008B9F0EE408AB0EEC3
:10405000490A08EE2B0AFDEEE80A10EE900AFDEE82
:10406000C00A00EB400001EB401110EE900A51F83D
:10407000200000287FF473AFB0EE409A38E70000CC
:10408000300A01207F7F7F0000007A4423256420CE
:10409000662F7300340901204868014004000120A4
:1040A000040A0120080001200C0001200148FEF74D
:1040B000DBBF0000EC0D012030B585B004460D20BB
:1040C00040220DF1080CCDE90010002369461501CE
:1040D00020468CE82C0000F0BAF80D2141F288321D
:1040E000204600F01DF805B030BD000010B586B0C8
:1040F000044600210C204022CDE90221CDE9001028
:10410000130169462046049300F0A1F8034A0C21EC
:10411000204600F005F806B010BD000000E1F505EE
:1041200010B5444C4FF4FA532468B4FBF3F35343F3
:104130005B1E02D24FF0004010BD426B12F0450FE3
:10414000F6D0426B520703D504218163084610BDA7
:10415000426BD20702D00121816303E00269D2B22F
:104160008A4201D0012010BD40F2FF51816300213D
:1041700000F064F83049084201D1002010BD002849
:1041800002DA4FF0007010BD410001D5402010BD93
:10419000810001D5802010BDC10002D54FF4807090
:1041A00010BD010102D54FF4007010BD410102D5D0
:1041B0004FF4806010BDC10102D54FF4006010BD06
:1041C000010202D54FF4805010BD410202D54FF4D8
:1041D000005010BD810202D54FF4804010BDC102D5
:1041E00002D54FF4004010BD410302D54FF400301A
:1041F00010BD810302D54FF4802010BDC10302D54C
:104200004FF4002010BD010402D54FF4801010BD02
:10421000410402D54FF4001010BD810402D54FF4C3
:10422000800010BD000702D54FF4000010BD4FF410
:10423000803010BD7C09012008E0FFFD084408B56E
:1042400014300090006808BDD0F88000704770B549
:104250000A688260C468D1E90125D1E90336210BDF
:104260002A43334309031A431143C160002070BD40
:104270000968C0F880100020704770B5846B002575
:10428000E06B00B1E563206C002816D12046FEF7F4
:10429000D4FE0121A563062884F8341001D0052836
:1042A0000BD12068FFF722FFA16B0843A063A06B2E
:1042B0000028204602D0FEF7BBFE70BDFEF7BCFE14
:1042C00070BD70B5846B0025206C00B12564E06B77
:1042D000002816D12046FEF7B0FE0121A56306286E
:1042E00084F8341001D005280BD12068FFF7FEFEBA
:1042F000A16B0843A063A06B0028204602D0FEF704
:1043000097FE70BDFEF798FE70BD7047FDF7E8BFE1
:10431000104A30B51048146800210F4B44F4700463
:104320001460083305680D4A0D4C45F00105056021
:1043300019600368051D1340074A03600C322C60A6
:104340000568E305034C25F480250560803C116079
:10435000236030BD88ED00E000380240FFFFF6FE2C
:1043600010300024FDF7D8BC0148FFF7C3B80000A7
:10437000D40B01203EB50124002202AB8DF80820A9
:10438000CDE900340A46234601460348FFF76CF99D
:104390009DF808003EBD0000D40B012007B50123A5
:1043A00082B004AACDE900230A4601460248FFF77D
:1043B00070F905B000BD0000D40B0120FEE700003D
:1043C0000FB4084B10B504A902AA039800F0BCF87A
:1043D000044602A9002000F061F9204610BC5DF8F7
:1043E00014FB00009D460008090700284FEA1161F0
:1043F00004DB00F1E02080F80014704700F00F00AB
:1044000000F1E02080F8141D70470000000000005B
:104410002DE9F0412DED020B9FED3D0B2DED028BB3
:104420009FED3D8BDDE90254C4F30A50A0F2FF3644
:10443000142E37DA002E18DA53EC102B9DED020BF8
:1044400051EC100BFBF71FFF53EC182BFCF7DEF9B8
:1044500057D2002CA4BF0024254652DA24F0004095
:10446000284318BF2E4C4CD01AE02E4820FA06F7ED
:1044700004EA070028431FD053EC102B9DED020BDC
:1044800051EC100BFBF7FFFE53EC182BFCF7BEF9B9
:1044900037D2002C03DA4FF48010F0400444BC43C0
:1044A00000252EE0332E07DCA6F114004FF0FF317B
:1044B00021FA00F73D4206D19DED020BBDEC028BC7
:1044C00002B0BDE8F08153EC102B9DED020B51ECD6
:1044D000100BFBF77CFF53EC182BFCF797F910D26D
:1044E000002C0DDA142E08BF641C09D0C6F134006C
:1044F000012101FA00F02844A84238BF641C054697
:10450000BD43CDE902549DED020BD7E7000000004A
:104510009C7500883CE4377E00000000000000002D
:104520000000F0BFFFFF0F0002E008C8121F08C123
:10453000002AFAD170477047002001E001C1121F24
:10454000002AFBD1704700002DE9FF4F89B09B4640
:104550000446002506E025280BD05A460B999047C3
:10456000641C6D1C20780028F5D10DB02846BDE8EC
:10457000F08F0027B8460122474900E0074314F8AE
:10458000013F203B02FA03F00842F7D120782E28A1
:1045900019D114F8010F47F004072A280ED06FF044
:1045A0002F022078A0F1300109290CD808EB8801EE
:1045B00002EB410100EB0108641CF2E70A98641C5D
:1045C00050F8048B0A9020780028CED0642808D0B8
:1045D000692806D075281ED05A460B9990476D1C45
:1045E00058E00A994FF00A0901C90A91002802DA35
:1045F00040422D2102E0390504D52B218DF82010F1
:10460000012103E0F90704D02021F7E78A4608AE2C
:104610000DE00021FAE70A994FF00A0901C90A9151
:10462000F7E74946FCF716F8303106F8011D002877
:10463000F7D1ADEB060000F12009780701D44FF067
:104640000108C84502DDA8EB090000E00020804613
:10465000002706E008A85A46C05D0B9990476D1CDC
:104660007F1C5745F6DB04E030205A460B999047F3
:104670006D1CB8F10001A8F10108F5DC05E016F8A1
:10468000010B5A460B9990476D1CB9F10001A9F135
:104690000109F4DC641C65E7092801000A68531C61
:1046A0000B6010707047000010B5044C2078002893
:1046B00003D1FFF759FE0120207010BD76090120BB
:1046C000C82010B5FFF74EFEBDE81040FFF7ECBF65
:1046D000F8B5064600208DF8000004460546FFF7B1
:1046E000E3FFA821F0B2FFF745FE8DF800009DF82A
:1046F0000000512800D10125641CE4B2032C01D232
:10470000002DEED09DF80000F8BD70477047000006
:1047100038B500248DF800400221C0B2FFF72AFE10
:104720008DF800009DF8000000F00F008DF80000EB
:104730009DF80000052801D98DF800409DF8001073
:104740000248417084709DF8000038BD7609012050
:104750000022A421C0B2FFF721BE0122A421C0B2D1
:10476000FFF71CBE38B50C4600218DF80010012162
:10477000C0B2FFF7FFFD8DF800009DF8000020603B
:1047800038BD00002DE9F84306461F46002090463C
:10479000DDF820900A468DF8000001462B480025E0
:1047A0002C46407890424FD90A2A2DD2DFE802F0F9
:1047B00005090D1115191D21252903210725082497
:1047C00022E009210D250E241EE00F2113251424BB
:1047D0001AE0152119251A2416E01B211F25202473
:1047E00012E02121252526240EE027212B252C242B
:1047F0000AE02D213125322406E0332137253824E3
:1048000002E039213D253E24F0B2FFF7B3FD8DF8DB
:1048100000009DF800008109C9F800102946F0B297
:10482000FFF7A8FD8DF800009DF80010F0B2C8F861
:1048300000102146FFF79EFD8DF800009DF8000056
:10484000042101EA10103860BDE8F88376090120E0
:104850002DE9F84F8A4607464448002193468DF8D3
:1048600000100E460D460C46827843789A427AD262
:104870000A2A814637D2DFE802F0050A0F14191E12
:1048800023282D3204210326062505242BE00A21A6
:1048900009260C250B2426E010210F2612251124B1
:1048A00021E016211526182517241CE01C211B26A3
:1048B0001E251D2417E0222121262425232412E071
:1048C000282127262A2529240DE02E212D263025D2
:1048D0002F2408E0342133263625352403E03A21FD
:1048E00039263C253B24F8B2FFF744FD8DF8000043
:1048F0009DF80010F8B2DFF87480A8F10208A8F85B
:1049000000103146FFF736FD8DF800009DF80010CD
:10491000B8F8000001F00F0140EA0120A8F80000FB
:104920002946AAF80000F8B2FFF724FD8DF8000030
:104930009DF80010F8B2A8F800102146FFF71AFD04
:104940008DF800009DF80020B8F8001002F00F026A
:1049500041EA0221A8F80010ABF8001099F8021003
:10496000491C89F80210BDE8F88F00007609012083
:1049700000207047FFF7ECBE0548006800EB80019F
:1049800001EBC000034901EB8000C06D70470000DF
:1049900028090120D40A012092B0FCF7EFFCFDF7B2
:1049A000A7FC012000901923010401918205082031
:1049B00002241E01CDE9064200250395CDE90A40F7
:1049C000CDE908366846FEF74BF9FDF7CDFDE2026A
:1049D0004FF4A0510F20CDE90F120CAA062182E856
:1049E00031000CA8FEF774F80020FCF75FFAFEF720
:1049F00065FEFCF7D9F884B2FCF7C6F880B2214610
:104A0000FCF79CFC0549087000B1FEE74FF07F40C1
:104A1000FBF7E0FFFEF7C6FFFEE700000000012005
:104A20007C7C7CFF7C7C7CFF7C7C7CFF183848FF96
:104A30001C3C54FF20405CFF20405CFF284C74FF6E
:104A400020405CFF20405CFF20405CFF20405CFF7A
:104A500020405CFF20405CFF20405CFF20405CFF6A
:104A600020405CFF20405CFF20405CFF20405CFF5A
:104A700020405CFF20405CFF1C3C54FF183040FF8E
:104A8000183848FF20405CFF20405CFF20405CFF5E
:104A900020405CFF1C3C54FF1C3C54FF183848FF6E
:104AA000545454FF646464FF7C7C7CFF7C7C7CFFFA
:104AB000707070FF707070FF707070FF707070FFBA
:104AC0002C2C2CFF2C2C2CFF2C2C2CFF2C2C2CFFDA
:104AD0002C2C2CFF2C2C2CFF2C2C2CFF484848FF76
:104AE000646464FF707070FF545454FF646464FF26
:104AF000545454FF545454FF4C4C4CFF4C4C4CFFFA
:104B00004C4C4CFF4C4C4CFF545454FF5C5C5CFFD1
:104B10005C5C5CFF646464FF707070FF7C7C7CFF95
:104B20007C7C7CFF707070FF707070FF545454FF79
:104B3000183848FF1C3C54FF20405CFF284C74FF91
:104B400020405CFF20405CFF20405CFF20405CFF79
:104B500020405CFF20405CFF20405CFF1C3C54FF79
:104B600020405CFF20405CFF20405CFF20405CFF59
:104B700020405CFF20405CFF1C3C54FF183040FF8D
:104B8000183848FF20405CFF20405CFF20405CFF5D
:104B90001C3C54FF183848FF183848FF545454FF41
:104BA000646464FF7C7C7CFF7C7C7CFF707070FFA5
:104BB0007C7C7CFF707070FF7C7C7CFF7C7C7CFF4D
:104BC000484848FF2C2C2CFF2C2C2CFF2C2C2CFF85
:104BD0002C2C2CFF2C2C2CFF484848FF646464FFCD
:104BE000707070FF545454FF646464FF545454FF55
:104BF0004C4C4CFF4C4C4CFF545454FF545454FFF9
:104C00005C5C5CFF646464FF646464FF646464FF10
:104C1000646464FF646464FF646464FF707070FFC4
:104C2000707070FF707070FF707070FF646464FF6C
:104C3000545454FF183848FF1C3C54FF24486CFF60
:104C400020405CFF20405CFF20405CFF20405CFF78
:104C500020405CFF20405CFF20405CFF20405CFF68
:104C60001C3C54FF1C3C54FF20405CFF20405CFF78
:104C700020405CFF20405CFF1C3C54FF183040FF8C
:104C8000183848FF20405CFF1C3C54FF1C3C54FF7C
:104C9000183848FF484848FF545454FF646464FF80
:104CA000646464FF484848FF20405CFF20405CFF8C
:104CB00020405CFF20405CFF484848FF646464FF7C
:104CC000646464FF484848FF2C2C2CFF2C2C2CFFDC
:104CD0002C2C2CFF484848FF646464FF707070FF00
:104CE000545454FF646464FF545454FF4C4C4CFFC0
:104CF000545454FF5C5C5CFF646464FF646464FF50
:104D0000646464FF646464FF646464FF646464FFF7
:104D1000646464FF646464FF646464FF646464FFE7
:104D2000545454FF707070FF7C7C7CFF707070FF77
:104D3000646464FF545454FF183848FF24486CFFDF
:104D400020405CFF20405CFF20405CFF20405CFF77
:104D500020405CFF20405CFF20405CFF20405CFF67
:104D60001C3C54FF1C3C54FF20405CFF20405CFF77
:104D700020405CFF20405CFF183848FF183040FF9F
:104D8000183848FF1C3C54FF183848FF183848FFB3
:104D9000545454FF646464FF7C7C7CFF484848FFA3
:104DA00020405CFF20405CFF183848FF183848FF5F
:104DB000183040FF183848FF183040FF183848FFB7
:104DC000646464FF646464FF484848FF484848FFDF
:104DD000484848FF646464FF707070FF545454FF87
:104DE000646464FF646464FF646464FF646464FF17
:104DF000646464FF646464FF5C5C5CFF545454FF4F
:104E0000545454FF4C4C4CFF4C4C4CFF4C4C4CFFFE
:104E10004C4C4CFF4C4C4CFF4C4C4CFF4C4C4CFF06
:104E20004C4C4CFF545454FF707070FF707070FF06
:104E30007C7C7CFF646464FF183848FF24486CFF66
:104E400020405CFF20405CFF20405CFF20405CFF76
:104E500020405CFF20405CFF20405CFF20405CFF66
:104E600020405CFF20405CFF20405CFF20405CFF56
:104E700020405CFF1C3C54FF183848FF183040FFAE
:104E8000183848FF183848FF545454FF646464FFCE
:104E90007C7C7CFF7C7C7CFF484848FF20405CFF9A
:104EA000183848FF183848FF183848FF183848FFA6
:104EB000183040FF183848FF183040FF183848FFB6
:104EC000484848FF7C7C7CFF646464FF646464FF42
:104ED000646464FF707070FF545454FF646464FF32
:104EE0005C5C5CFF5C5C5CFF5C5C5CFF5C5C5CFF76
:104EF0005C5C5CFF5C5C5CFF5C5C5CFF5C5C5CFF66
:104F00005C5C5CFF5C5C5CFF5C5C5CFF5C5C5CFF55
:104F10005C5C5CFF5C5C5CFF5C5C5CFF5C5C5CFF45
:104F20004C4C4CFF4C4C4CFF545454FF707070FF71
:104F3000707070FF707070FF183848FF1C3C54FF91
:104F400020405CFF20405CFF20405CFF20405CFF75
:104F500020405CFF1C3C54FF20405CFF20405CFF75
:104F600020405CFF20405CFF20405CFF20405CFF55
:104F70001C3C54FF183040FF183040FF183848FFE1
:104F8000545454FF646464FF7C7C7CFF7C7C7CFF15
:104F9000646464FF20405CFF20405CFF183848FFD9
:104FA000183848FF183848FF183848FF183848FFA5
:104FB000183040FF183848FF183040FF183040FFC5
:104FC000142C38FF646464FF8C8C8CFFA8A8A8FFA5
:104FD000707070FF545454FF646464FF545454FF61
:104FE0004C4C4CFF4C4C4CFF4C4C4CFF4C4C4CFF35
:104FF0004C4C4CFF4C4C4CFF4C4C4CFF4C4C4CFF25
:105000004C4C4CFF4C4C4CFF4C4C4CFF4C4C4CFF14
:105010004C4C4CFF4C4C4CFF4C4C4CFF4C4C4CFF04
:105020004C4C4CFF4C4C4CFF4C4C4CFF545454FFDC
:10503000707070FF7C7C7CFF545454FF183848FF1C
:105040001C3C54FF20405CFF20405CFF20405CFF84
:1050500020405CFF20405CFF20405CFF20405CFF64
:1050600020405CFF20405CFF20405CFF1C3C54FF64
:10507000183040FF183040FF484848FF545454FF50
:10508000646464FF7C7C7CFF7C7C7CFF484848FF38
:1050900020405CFF183848FF183848FF183848FF90
:1050A000183848FF183848FF183848FF183848FFA4
:1050B000183040FF183040FF183848FF142C38FFD4
:1050C000142C38FF646464FFA8A8A8FF7C7C7CFFD4
:1050D000545454FF646464FF545454FF4C4C4CFFCC
:1050E0004C4C4CFF4C4C4CFF4C4C4CFF4C4C4CFF34
:1050F000484848FF4C4C4CFF4C4C4CFF4C4C4CFF30
:105100004C4C4CFF4C4C4CFF4C4C4CFF4C4C4CFF13
:105110004C4C4CFF4C4C4CFF4C4C4CFF4C4C4CFF03
:105120004C4C4CFF4C4C4CFF4C4C4CFF4C4C4CFFF3
:10513000545454FF707070FF7C7C7CFF545454FFB7
:10514000183848FF1C3C54FF20405CFF20405CFFA7
:1051500020405CFF20405CFF20405CFF20405CFF63
:1051600020405CFF1C3C54FF1C3C54FF183040FFA7
:10517000183848FF545454FF646464FF646464FF47
:105180007C7C7CFF646464FF20405CFF20405CFF0B
:10519000183848FF183848FF183848FF183848FFB3
:1051A000183848FF183848FF183848FF183848FFA3
:1051B000183040FF183040FF183848FF142C38FFD3
:1051C000142C38FF646464FF989898FF7C7C7CFF03
:1051D000646464FF545454FF4C4C4CFF4C4C4CFFE3
:1051E0004C4C4CFF4C4C4CFF4C4C4CFF4C4C4CFF33
:1051F0004C4C4CFF4C4C4CFF4C4C4CFF4C4C4CFF23
:105200004C4C4CFF4C4C4CFF4C4C4CFF4C4C4CFF12
:105210004C4C4CFF4C4C4CFF4C4C4CFF4C4C4CFF02
:105220004C4C4CFF4C4C4CFF4C4C4CFF4C4C4CFFF2
:10523000484848FF545454FF7C7C7CFF646464FFFE
:10524000545454FF183848FF1C3C54FF20405CFF66
:1052500020405CFF20405CFF20405CFF1C3C54FF72
:105260001C3C54FF183040FF183040FF545454FF8A
:10527000646464FF646464FF7C7C7CFF7C7C7CFFF2
:10528000484848FF20405CFF1C3C54FF183848FF4A
:10529000183848FF183848FF183848FF183848FFB2
:1052A000183848FF183040FF183848FF183848FFB2
:1052B000183040FF142C38FF183848FF142C38FFE2
:1052C000142C38FF646464FF989898FF646464FF4A
:1052D000545454FF4C4C4CFF4C4C4CFF4C4C4CFF2A
:1052E0004C4C4CFF484848FF4C4C4CFF4C4C4CFF3E
:1052F0004C4C4CFF4C4C4CFF4C4C4CFF4C4C4CFF22
:105300004C4C4CFF4C4C4CFF4C4C4CFF484848FF1D
:105310004C4C4CFF4C4C4CFF4C4C4CFF4C4C4CFF01
:105320004C4C4CFF4C4C4CFF4C4C4CFF4C4C4CFFF1
:10533000484848FF484848FF7C7C7CFF7C7C7CFFD9
:10534000646464FF545454FF183848FF1C3C54FFF5
:105350001C3C54FF1C3C54FF1C3C54FF183040FFC5
:10536000183040FF545454FF646464FF7C7C7CFF1D
:105370007C7C7CFF7C7C7CFF646464FF20405CFF61
:1053800020405CFF1C3C54FF183848FF183848FF89
:10539000183848FF183848FF183848FF183848FFB1
:1053A000183848FF183040FF183848FF183848FFB1
:1053B000183040FF142C38FF183040FF142C38FFF1
:1053C000142C38FF646464FF8C8C8CFF646464FF6D
:1053D000545454FF4C4C4CFF4C4C4CFF4C4C4CFF29
:1053E000484848FF4C4C4CFF4C4C4CFF4C4C4CFF3D
:1053F0004C4C4CFF4C4C4CFF4C4C4CFF4C4C4CFF21
:105400004C4C4CFF4C4C4CFF4C4C4CFF4C4C4CFF10
:105410004C4C4CFF4C4C4CFF4C4C4CFF4C4C4CFF00
:105420004C4C4CFF4C4C4CFF4C4C4CFF4C4C4CFFF0
:10543000484848FF484848FF7C7C7CFF707070FFFC
:105440007C7C7CFF646464FF545454FF183040FF3C
:10545000183040FF183040FF183040FF484848FFE0
:10546000545454FF646464FF7C7C7CFF7C7C7CFF30
:10547000646464FF484848FF20405CFF1C3C54FFC4
:105480001C3C54FF183848FF183848FF183848FFAC
:10549000183848FF183848FF183848FF183848FFB0
:1054A000183848FF183848FF183848FF183848FFA0
:1054B000183848FF142C38FF183040FF142C38FFE0
:1054C000404040FF646464FF8C8C8CFF646464FF24
:1054D0005C5C5CFF4C4C4CFF484848FF4C4C4CFF1C
:1054E0004C4C4CFF4C4C4CFF484848FF4C4C4CFF3C
:1054F0004C4C4CFF4C4C4CFF4C4C4CFF4C4C4CFF20
:105500004C4C4CFF4C4C4CFF4C4C4CFF4C4C4CFF0F
:105510004C4C4CFF4C4C4CFF4C4C4CFF4C4C4CFFFF
:105520004C4C4CFF4C4C4CFF4C4C4CFF4C4C4CFFEF
:10553000484848FF484848FF707070FF707070FF1F
:105540007C7C7CFF7C7C7CFF646464FF545454FF4F
:10555000545454FF545454FF545454FF545454FF5F
:10556000646464FF7C7C7CFF7C7C7CFF646464FFFF
:1055700020405CFF20405CFF1C3C54FF183848FF73
:10558000183848FF183848FF1C3C54FF183848FFAB
:10559000183848FF183848FF183848FF183848FFAF
:1055A000183848FF142C38FF183848FF183848FFBF
:1055B000183848FF142C38FF142C38FF142C38FFEF
:1055C0004C4C4CFF707070FF7C7C7CFF646464FF0B
:1055D0005C5C5CFF4C4C4CFF4C4C4CFF4C4C4CFF0F
:1055E000484848FF4C4C4CFF4C4C4CFF4C4C4CFF3B
:1055F0004C4C4CFF4C4C4CFF4C4C4CFF484848FF2B
:10560000484848FF4C4C4CFF4C4C4CFF4C4C4CFF1A
:105610004C4C4CFF4C4C4CFF4C4C4CFF484848FF0A
:105620004C4C4CFF4C4C4CFF4C4C4CFF4C4C4CFFEE
:10563000484848FF383838FF707070FF707070FF4E
:10564000646464FF545454FF545454FF545454FF3E
:10565000646464FF707070FF989898FF989898FF42
:105660008C8C8CFF707070FF646464FF20405CFF62
:105670001C3C54FF1C3C54FF183848FF1C3C54FF92
:105680001C3C54FF183848FF183848FF183848FFAA
:10569000183848FF183848FF183848FF183848FFAE
:1056A000183848FF142C38FF183848FF183848FFBE
:1056B000183848FF142C38FF142C38FF142C38FFEE
:1056C000545454FF707070FF8C8C8CFF646464FFC2
:1056D000545454FF4C4C4CFF4C4C4CFF4C4C4CFF26
:1056E0004C4C4CFF4C4C4CFF4C4C4CFF4C4C4CFF2E
:1056F0004C4C4CFF4C4C4CFF4C4C4CFF484848FF2A
:10570000484848FF4C4C4CFF484848FF484848FF31
:10571000484848FF484848FF4C4C4CFF4C4C4CFF15
:105720004C4C4CFF4C4C4CFF4C4C4CFF484848FFF9
:10573000383838FF646464FF7C7C7CFF646464FFF9
:10574000545454FF545454FF545454FF545454FF6D
:10575000484848FF646464FF989898FF8C8C8CFFDD
:105760008C8C8CFF646464FF20405CFF183848FF19
:105770001C3C54FF1C3C54FF183848FF1C3C54FF91
:105780001C3C54FF183848FF183848FF183848FFA9
:10579000183848FF183848FF183848FF183848FFAD
:1057A000183848FF142C38FF183848FF183848FFBD
:1057B000183848FF142C38FF142C38FF142C38FFED
:1057C000646464FF707070FF7C7C7CFF646464FFC1
:1057D000545454FF4C4C4CFF4C4C4CFF4C4C4CFF25
:1057E0004C4C4CFF4C4C4CFF4C4C4CFF4C4C4CFF2D
:1057F0004C4C4CFF4C4C4CFF4C4C4CFF4C4C4CFF1D
:105800004C4C4CFF4C4C4CFF484848FF484848FF24
:10581000484848FF484848FF4C4C4CFF4C4C4CFF14
:105820004C4C4CFF4C4C4CFF484848FF383838FF34
:10583000646464FF7C7C7CFF707070FF545454FF80
:10584000545454FF545454FF545454FF545454FF6C
:10585000484848FF484848FF707070FF8C8C8CFFA8
:105860007C7C7CFF20405CFF1C3C54FF183848FFC8
:1058700020405CFF183848FF183848FF183848FFA8
:10588000183848FF183848FF183848FF183848FFBC
:10589000183848FF183848FF183848FF183848FFAC
:1058A000183848FF142C38FF183848FF183848FFBC
:1058B000183848FF142C38FF142C38FF404040FFA4
:1058C000646464FF7C7C7CFF7C7C7CFF646464FF9C
:1058D000545454FF4C4C4CFF4C4C4CFF4C4C4CFF24
:1058E0004C4C4CFF4C4C4CFF4C4C4CFF4C4C4CFF2C
:1058F0004C4C4CFF4C4C4CFF4C4C4CFF4C4C4CFF1C
:105900004C4C4CFF4C4C4CFF484848FF484848FF23
:10591000484848FF484848FF4C4C4CFF4C4C4CFF13
:105920004C4C4CFF484848FF383838FF646464FFEB
:105930007C7C7CFF7C7C7CFF646464FF545454FF5B
:10594000545454FF545454FF545454FF545454FF6B
:10595000484848FF484848FF484848FF646464FF97
:10596000545454FF20405CFF183848FF20405CFF2F
:105970001C3C54FF183848FF183848FF183848FFB7
:10598000183848FF183848FF183848FF183848FFBB
:10599000183848FF183848FF183848FF183848FFAB
:1059A000183040FF142C38FF183848FF183848FFCB
:1059B000183848FF142C38FF142C38FF4C4C4CFF7F
:1059C000707070FF7C7C7CFF7C7C7CFF646464FF77
:1059D000545454FF4C4C4CFF4C4C4CFF4C4C4CFF23
:1059E0004C4C4CFF4C4C4CFF4C4C4CFF4C4C4CFF2B
:1059F0004C4C4CFF4C4C4CFF4C4C4CFF4C4C4CFF1B
:105A00004C4C4CFF4C4C4CFF484848FF484848FF22
:105A1000484848FF484848FF4C4C4CFF484848FF1E
:105A2000484848FF383838FF646464FF7C7C7CFF5A
:105A30007C7C7CFF707070FF646464FF545454FF7E
:105A4000545454FF545454FF545454FF545454FF6A
:105A5000404040FF4C4C4CFF545454FF484848FFD2
:105A6000646464FF20405CFF183848FF20405CFFFE
:105A7000183848FF183848FF1C3C54FF183848FFB6
:105A8000183848FF183848FF183848FF183848FFBA
:105A9000183848FF183848FF183848FF183848FFAA
:105AA000183040FF142C38FF183848FF183848FFCA
:105AB000183040FF142C38FF142C38FF545454FF76
:105AC0007C7C7CFF7C7C7CFF7C7C7CFF545454FF82
:105AD0004C4C4CFF4C4C4CFF4C4C4CFF4C4C4CFF3A
