:020000040800F2
:10000000808A01200D020008CB4700080B41000840
:10001000C9470008D915000845580008000000002D
:100020000000000000000000000000005156000821
:10003000B917000800000000D14B00085356000813
:1000400027020008270200082702000827020008EC
:1000500027020008270200082702000827020008DC
:1000600027020008270200082702000827020008CC
:1000700027020008270200082702000827020008BC
:1000800027020008270200082702000827020008AC
:10009000270200082702000827020008270200089C
:1000A000270200082702000827020008270200088C
:1000B000270200082702000827020008270200087C
:1000C000270200082702000827020008270200086C
:1000D000270200082702000827020008270200085C
:1000E000270200082702000827020008270200084C
:1000F000270200082702000827020008270200083C
:10010000270200082702000827020008270200082B
:10011000270200082702000827020008270200081B
:10012000270200082702000827020008270200080B
:1001300027020008270200082702000827020008FB
:1001400027020008270200082702000827020008EB
:1001500027020008270200082702000827020008DB
:1001600027020008270200082702000827020008CB
:1001700027020008270200082702000800000000EC
:1001800027020008270200082702000827020008AB
:10019000270200082702000827020008270200089B
:1001A000270200082702000827020008270200088B
:1001B000270200082702000827020008270200087B
:1001C000270200082702000827020008270200086B
:1001D000270200082702000827020008270200085B
:1001E000270200082702000827020008270200084B
:1001F0002702000827020008DFF80CD000F0B0FA50
:1002000000480047718E0008808A01200648804718
:1002100006480047FEE7FEE7FEE7FEE7FEE7FEE7EB
:10022000FEE7FEE7FEE7FEE759560008F901000881
:100230002DE9F003002590F900C0A1F101092E4637
:1002400000F101045FEA99071FD000BF04F1010823
:1002500094F90000844518F9014BBCBF6E1C84461C
:10026000A445BCBFAE1CA44698F9000008F10104E7
:10027000844514F9018BBCBFEE1C8446C445BCBF49
:100280002E1DC4462D1D7F1EE0D119F0030013D092
:10029000B0F1004F054615D20028C8BF00270BDD7E
:1002A00094F90080E04502DDCE19C446361A641C7C
:1002B0006D1E07F10107F3D182F800C01E60BDE892
:1002C000F003704714F9015BAC45BCBF0E1AAC4695
:1002D000401EF7D1F0E710B5431A934209D28318B4
:1002E000881803E010F8011D03F8011D521EF9D211
:1002F00010BD40EA01039B0703D009E008C9121FA3
:1003000008C0042AFAD203E011F8013B00F8013BCF
:10031000521EF9D210BDD2B201E000F8012B491EE5
:10032000FBD270470022F6E710B513460A46044692
:100330001946FFF7F0FF204610BD00F0004230F0F4
:1003400000400AD0C10D01F56071C0F3160042EA09
:100350000151C20840071143704700200146704711
:1003600030B50B46014600202022012409E021FA85
:1003700002F59D4205D303FA02F5491B04FA02F582
:100380002844151EA2F10102F1DC30BD2DE9F05F19
:100390000546002092469B468846064681464024F4
:1003A0001BE0284641464746224600F0FAF95346EC
:1003B0005A46C01A914110D311461846224600F001
:1003C000E1F92D1A67EB01084F4622460120002172
:1003D00000F0D8F917EB00094E41201EA4F10104EA
:1003E000DFDC484631462A464346BDE8F09F2DE90A
:1003F000FE4F804681EA0300C00F0C46009021F0BA
:10040000004123F00045B8EB0200A94105D2404667
:10041000214690461C460B46024623F000401043FE
:1004200047D0270DC7F30A00C3F30A510290401AC0
:10043000019040286BDAC3F3130040F4801B00984E
:10044000924620B10023D2EB030A63EB0B0B019819
:100450005946C0F14002504600F094F906460D4658
:1004600050465946019A00F0ACF910EB0800614182
:10047000002487EA115284EAE7731A4340D0009AB5
:1004800062B3019A012A4FEA075215DC001B61EBA7
:1004900002014FF0004202EA0752CDE90042001C7F
:1004A00041F5801132462B4600F0ACF903B0BDE8AF
:1004B000F08F40462146F9E7001B61EB0201001C6A
:1004C00041F5801300185B412018A2F5001747EB97
:1004D000030140EAD570B6196D4111E06D084FEA8D
:1004E000360645EAC0754FEA0752001B61EB020170
:1004F000001C41F5801149084FEA300000195141B4
:1005000032462B4603B0BDE8F04F00F06CB90098BE
:10051000012240000023D0EB020263EBE07300985D
:1005200021464FEAE074B8EB000061EB0401E9E713
:1005300083F000435BE781F0004158E72DE9FE4F6F
:1005400081EA030404F0004421F0004100944FF0DC
:10055000000B23F0004350EA01045ED052EA03048A
:100560005BD0C3F30A54C1F30A552C44A4F2F3340C
:100570000194A0FB0254C1F3130141F48011C3F3B1
:10058000130343F4801301FB024400FB034E840A6F
:10059000970A44EA815447EA8357A4FB0768029507
:1005A0008D0A05FB07854FEA932C04FB0C542705A5
:1005B000029D4FEA065847EA1637B5EB08056EEB81
:1005C000070C870E920E47EA811742EA8312A7FBB7
:1005D0000201B6EB0B0164EB00042B0D43EA0C3374
:1005E0005E1844EB1C50DA465146E7FB0201C5F3A6
:1005F00013044FEA0B3343EA14534FEA0432019CCD
:1006000043EA0603A4F10C040294009CCDE900B473
:1006100000F0F8F803B0BDE8F08F00200146F9E7DC
:100620002DE9F04D81EA030404F0004B21F0004570
:1006300014464FF0000A23F0004150EA050220D092
:1006400054EA01021DD0C5F30A570246C5F313034D
:10065000C1F31300C1F30A5640F4801543F480132C
:10066000A7EB0608101BD64608F2FD3873EB050011
:1006700002D308F1010801E092185B41B8F1000FC4
:1006800003DA00200146BDE8F08D00204FF4801110
:10069000064684460EE0171B73EB050705D3121BB5
:1006A00063EB050306434CEA010C49084FEA3000AE
:1006B00092185B4150EA0107EDD152EA030012D0D3
:1006C00082EA040083EA0501084305D0101BAB4110
:1006D00006D20122002306E000224FF0004302E090
:1006E0006FF0010253101AEB06004CEB085110EBAF
:1006F0000A0041EB0B01BDE8F04D00F074B8C1F306
:100700000A52C1F3130140F2FF3341F480119A42BF
:1007100002DA00200146704740F233439A42A2F2C7
:10072000334202DC524200F03CB800F02BB800002B
:1007300030B5041E71F1000404DB4FF00044404268
:1007400064EB0101141E73F1000405DB1C464FF03D
:100750000043524263EB0403994208BF904230BD0C
:10076000064C074D06E0E06840F0010394E80700FE
:1007700098471034AC42F6D3FFF742FD00BB0008A7
:1007800020BB0008202A04DB203A00FA02F10020F6
:1007900070479140C2F1200320FA03F319439040BF
:1007A0007047202A04DB203A21FA02F0002170472A
:1007B00021FA02F3D040C2F12002914008431946C9
:1007C0007047202A06DBCB17203A41FA02F043EAB1
:1007D000E07306E041FA02F3D040C2F120029140FA
:1007E00008431946704710B5141E73F1000408DA67
:1007F000401C41F1000192185B411A4301D120F0E5
:10080000010010BD2DE9F04D92469B4611B1B1FAA1
:1008100081F202E0B0FA80F220329046FFF7B2FF98
:1008200004460F4640EA0A0041EA0B0153465A4685
:10083000084313D0114653EA010019D0C8F1400211
:100840005046FFF7AEFF05460E4650465946424613
:10085000FFF798FF084305D0012004E02046394601
:10086000BDE8F08D0020054346EAE0762C4337438F
:100870000A986305E40AA0EB08000022FD0A44EA96
:1008800047540A3002D500200146E9E70105101956
:100890006941DDE9084500196941BDE8F04DA2E76D
:1008A00070B58D1810F8014B14F0030201D110F847
:1008B000012B231106D110F8013B03E010F8016B66
:1008C00001F8016B521EF9D1ABB110F8012B04F005
:1008D0000C048A1A0C2C03D0A2EB84129B1C08E097
:1008E00010F8014BA2EB0422F8E712F8014B01F8D3
:1008F000014B5B1EF9D5A942D4D3002070BD000086
:1009000009491CB50024D1E90023CDE900408868DD
:10091000064C00EB800101EBC00104EB8101C96DC5
:1009200003F03CFE1CBD0000589A002084680120A2
:1009300070B50F4E0F4DB16801EB410105EB81031E
:1009400055F821405A6845F8212031888AB29968C3
:10095000CB88584381B2002000F00AF9B06800EB60
:10096000400045F820402046BDE8704000F0D8BA6D
:10097000589A00204869012030B40A4C0A4BA468F8
:1009800004EB440403EB84039B689C881D68E41D0E
:10099000DB88E408203A14FB02F203FB025230BC6D
:1009A00000F00CBF589A0020486901202DE9F0475B
:1009B000002615468946314600E0491C12F8014BD5
:1009C000002CFAD1DFF89080012B244FD8F8084092
:1009D000D8F8002004EB440407EB8404A468A4883E
:1009E000B2FBF4F203D0022B06D0044608E0511A01
:1009F000614300EB510002E0511A6143081A84B2CE
:100A000047F6FF71601E884212D3012410E0494668
:100A10002046FFF7B1FFD8F80800761CB6B26D1C6F
:100A200000EB400007EB800080688088204484B29F
:100A30002A78002A0ED0D8F80830D8F8001003EB36
:100A4000430007EB80008068808806FB101189B2A4
:100A50008142DCD2BDE8F087589A00204869012025
:100A60000A46034610B500F0B3F8C088BDE8104050
:100A70005843032381B20020FFF798BF2DE9FC41C2
:100A80000E4B0446002598681B6800EB800703FBAB
:100A900001410B4B07EBC00700EB400603EB87045B
:100AA000C433E46D53F8263004EB8101CDE90053E3
:100AB000012303F073FDBDE8FC810000589A00207B
:100AC00084680120084B30B59C681B6804EB8405E2
:100AD00001FB0300054905EBC40401EB8401C96D6A
:100AE00041F8202030BD0000589A00208468012081
:100AF0002DE9F0411C4616460D460746FFF7BEFF9E
:100B00002819324681B23846FFF7B8FF22462946F7
:100B1000384600F009F8B81922462946BDE8F041E8
:100B200080B200F001B800007CB50F4C0346A0680D
:100B3000246800EB800504FB01310C4B05EBC0057C
:100B4000641E03EB8503094DC435DB6D03EB8101A6
:100B500000EB400355F82330CDE900431346012252
:100B600003F01CFD7CBD0000589A00208468012021
:100B70002DE9FC419846144B0746144D14460E4689
:100B8000986800EB400055F8200000F0C9F998681B
:100B90001A6800EB800102FB067301EBC001A5F1AE
:100BA000C40606EB8101121BC96D01EB830100EB4A
:100BB000400355F82330CDE900234346224603F095
:100BC000EDFCBDE8FC810000589A00204869012036
:100BD00004480549806800EB400001EB8000806814
:100BE00070470000589A00204869012001480068B9
:100BF00070470000589A0020014840687047000084
:100C0000589A0020012000F001B800002DE9FE43B1
:100C1000814646F6253600F041F900F0EBF8534DD9
:100C200051482860284601F00CFA4FF2244043F660
:100C30000451B0FBF1F14FF005082846012264236E
:100C400000240294CDE90038C5E90212694601F09A
:100C500029FA474DB9F1000F4FF4F0704FF4487185
:100C60007ED0C5E9001044494448B1FBF6FCD5E903
:100C70000013404A00F1100EC0E9004804624FF032
:100C80000208B2FBF6F7C46101F22F12C0F80C8023
:100C90004FF22448446202FB08F240F6FF78B2FBB0
:100CA000F6F68EE81201C0E90A7C00F1340C0C2142
:100CB0000A460F4606638CE886004FF40041C0E9FF
:100CC00010311021C0E91214490201654910416533
:100CD000491081654910C165491001664910416696
:100CE0000146224801F082F8204E3E20A83E706165
:100CF000B620F061286800F1B60171627831F162C6
:100D00003066082168687066A6F5AA7001604FF425
:100D1000C07141610721C462C16101F077FF86F8AB
:100D2000344086F8354086F836401548346113491A
:100D30003060304601F0C5FE304601F041FE0B4800
:100D400001F0E1FA00F028F909480C3000F0DAF877
:100D50000020494603F03CFD0020BDE8FE83FFE78C
:100D6000C5E900017FE70000006C01402C6901200B
:100D7000589A0020DC143C00E0707200C06701202B
:100D80000068014070B5194A8EB0002304460DF189
:100D90000C0C0093FF2510684FF4C066CDE90103E9
:100DA0005268099107218CE82C0006938DF83030A9
:100DB000CDE90A028DF8313022468DF83230CDE986
:100DC00007610B48694601F0D1FD094904EB440075
:100DD0004FF0FF34C43101EB800223065460034C12
:100DE0000C34946041F820300EB070BD589A002049
:100DF00084680120284908B5086840F080600860D0
:100E0000086800F08060009023482038026842F0B3
:100E100080620260026822F0806202601E4A143A18
:100E2000136843F400031360126802F40002009296
:100E3000194A343A136843F400031360136823F427
:100E4000000313600A6842F000620A60096801F05A
:100E500000610091016841F000610160016821F0CA
:100E60000061016000220321582001F067FE582034
:100E700001F056FE002203215A2001F05FFE5A20A5
:100E800001F04EFE00220321622001F057FEBDE872
:100E90000840622001F044BE44380240144830B596
:100EA00087B0016841F40071016000680321114DB1
:100EB0004FF4004400F4007005900120CDE90201D8
:100EC0006946CDE90040284601F040FA002221465B
:100ED000284601F02CFB142001F02CFA01222146B7
:100EE000284601F024FB0A2001F024FA07B030BDA7
:100EF00030380240002402400149886070470000F9
:100F0000589A00200449054A896801EB410102EB27
:100F10008101886070470000589A002048690120CC
:100F20000349044A896801EB410142F821007047F6
:100F3000589A0020486901200E4900B587B00A6818
:100F400042F400720A60096803230B4A01F400713D
:100F50000591012152F82020CDE90021CDE90213AD
:100F60000549083151F82000694601F0EFF907B052
:100F700000BD000030380240489A00200549054A6B
:100F8000083231F8201052F8200089B2012201F015
:100F9000CEBA0000489A00201C4802222DE9F041F8
:100FA00000F13401184E07230660042581E82C0067
:100FB000CB6000240A6120234A6140268A619102A5
:100FC00044604FF4C077C0E902454A00C0E90741D8
:100FD000C0E909241030002180E8C800103800F072
:100FE0005FF80A490948343102F0B6FC084D10B1E7
:100FF0000120287000E02C7040F2036000F00AF835
:101000002878BDE8F0810000400100A0206A01209E
:101010006C9A00202DE9F843204C102700254FF64C
:10102000FF780126009521468146C4E90067C4E99E
:101030000265A1F15000424602F0C2FC012001F01D
:1010400079F902202146C4E90007C4E90265A1F14B
:101050005000424602F0B4FC03214246C4E90017A6
:1010600008202146C4E90205A1F1500002F0A8FCC5
:101070004FF40C70009004214246C4E90260C4E9B8
:1010800000172146A1F1500002F09AFCA4F1500093
:101090004946BDE8F84302F081BC0000706A0120B7
:1010A000F0B504464F4887B0016841F00101016086
:1010B00000684C4900F0010005900839086840F4C8
:1010C00080000860086800F480000590086840F01F
:1010D00008000860086800F008000590086840F003
:1010E00010000860086800F010000590086840F0E3
:1010F00020000860086800F020000590086840F0B3
:1011000040000860086800F040000590086840F062
:1011100080000860086800F080000590086840F4CE
:1011200080700860086801AE03254CF2037300F478
:10113000807005900220009301210C22049286E821
:1011400023002948694601F001F94FF683700090A9
:101150002648694601F0FAF84FF63F00009024480F
:10116000694601F0F3F848F23710009021486946CB
:1011700001F0ECF84FF62C7000901F48694601F022
:10118000E5F840F2FF6000901C48694601F0DEF887
:101190001B49802300229E00DF00C1E901230C319E
:1011A0004FF4805CD801A1E8C010C300154E81E85F
:1011B0000D00C1E903254A618A6141F8186D216378
:1011C0000F488C6300F076FD0D4800F09FFD002273
:1011D0000F21382001F0B2FC382001F0A1FC07B04B
:1011E000F0BD000038380240000C02400010024000
:1011F0000014024000180240001C0240002002407F
:1012000060690120106402400B4800B587B0016896
:1012100041F48071016000680021012200F48070B7
:10122000059003234FF400408DE80F000348694602
:1012300001F08CF807B000BD3038024000200240B9
:101240000146014802F00DBDAC660120044810B50E
:1012500002F019FD042801D0012010BD002010BDAE
:10126000AC66012014480021124A10B50C46C0E9B2
:1012700000218160C160016141618161FFF7C4FFAC
:1012800000F01CF8012801D0022010BD0A480021FE
:1012900000F026F8084802F00CFD08B1012406E031
:1012A00005484FF4006102F0A3FB0028F6D1204668
:1012B00010BD0000001C0140AC66012008B50120F3
:1012C0008DF80000C103054801F02CF9012802D176
:1012D00000208DF800009DF8000008BD00200240AD
:1012E0002DE9F04F0446564887B0016841F080016F
:1012F0000160006800F080000590514814380168D2
:1013000041F480010160016801F4800105910168E8
:1013100041F002010160016801F0020105910168DC
:1013200041F008010160016801F0080105910168C0
:1013300041F04001016000680A21032500F04000EF
:101340000590022201231820CDE903518DE80D00FC
:101350003C48694600F0FAFF0B200490C0213A484F
:101360000091694600F0F2FF680200903748694634
:1013700000F0ECFF00220E21672001F0DFFB672068
:1013800001F0CEFB324800264FF0B0574FF0040B6F
:101390004FF480524FF48069C0E90176C660910035
:1013A000C0E9049220224FF400084FF4001AC0E96B
:1013B00006122904C0E9081B264940F8281B80E8CA
:1013C00020052838E0638463214800F073FC20483E
:1013D00000F09CFC1E4840212B04603000F1080204
:1013E000476082E8420289014161C0F830A02022B2
:1013F0008F0018498761783140F81C1B80E80C0881
:10140000C0E903581C38206484631148603000F040
:1014100051FC0F48603000F079FC00220F21382089
:1014200001F08CFB382001F07BFB00220F214420CF
:1014300001F084FB442001F073FB07B0BDE8F08F9E
:101440004438024000040240000C024000180240F0
:101450002C6501201064024008B5009313460A462B
:101460000146034802F06CFC002800D0012008BDB2
:10147000AC66012008B5009313460A4601460348AE
:1014800002F036FD002800D0012008BDAC66012026
:101490002DE9FE4F364E0746002000907068016926
:1014A000307888473870C0B3002401AD0DF10809C9
:1014B00006F1080A06F1100B54E0706809EB4402CB
:1014C00005EB4401C84643693078984770780107B6
:1014D00007D535F8142038F8143025F8143028F8DA
:1014E0001420810706D535F81410A1F21F314942A6
:1014F00025F81410400706D538F81410A1F2DF11B2
:10150000494228F8141035F8141052465AF82400AD
:10151000814203D9A1EB000C02E026E0A0EB010C14
:1015200040461FFA8CF85BF824C05B4630F8140084
:10153000604502D9A0EB0C0C01E0ACEB000C1FFAEB
:101540008CFCC444BCF1050F03D942F8241043F8C5
:10155000240007EB44003AF8241041803BF82410A3
:10156000641CC1803878A042A7D80098BDE8FE8FDF
:10157000709A00202DE9F041154D8846154C002643
:101580000746296820788847696854208847C0B290
:1015900011280BD069687020884770212170C0B273
:1015A000112805D003263046BDE8F0815420207074
:1015B0004745656001D2012000E00C206070A968F9
:1015C000207888476068C16820788847EBE700008A
:1015D000149A0020709A0020FEE70000F0B5BFF3D7
:1015E0004F8FBFF36F8F1A4900200860BFF34F8FF2
:1015F000BFF36F8F174A116841F400311160BFF3D8
:101600004F8FBFF36F8F134970310860BFF34F8F57
:10161000081F43F6FF7400680D4D1035C0F34E31BE
:10162000C0F3C90304EA4116184600BF46EA8077B2
:101630002F60401EFAD2491EF4D2BFF34F8F1068BC
:1016400040F480301060BFF34F8FBFF36F8FF0BD59
:1016500050EF00E014ED00E0F0B50468254E059D64
:1016600096FAA6F7666CB7FA87F7BB402B4306F0ED
:1016700040451D4365640368DA634268B2F5403F44
:1016800002D00068C160F0BD01F47F42856801F4BA
:101690007F04224301F07F4301F47F0701F47F467A
:1016A000CCB2BDB1012D16D001F47F02C1F3C4014B
:1016B000D20C022D11D0032D14D0320B390D15018F
:1016C0001A0F45EA0123210943EA02320A4300685E
:1016D0008263F0BD1A432243F9E7B30A5B0143EA90
:1016E000C222F3E7F40ADB0F640144EA822242EAF1
:1016F000C332EBE70000FF3F01681823CAB2103A7B
:10170000B2FBF3F2054B6FF30901032A9B5CC3653F
:1017100000D9091D8165084670470000A7BA000876
:1017200010B583694FF0C074826A0146002053B13E
:10173000B3F5005F15D072B1012A0CD0022A0AD08D
:10174000032A09D104E01AB1012A06D0022A03D1E2
:10175000C96AC90100D5012010BDC96AA142FAD0E9
:1017600010BD002AF7D0012AF2D0022AF3D0032AB2
:10177000F3D010BD10B542EA811141EA0321029C69
:1017800041EA0441C16610BD1CB5012808D848785B
:10179000152200900B780021064800F085FD1CBD45
:1017A0000A5C0346CDE9002102483922002100F0FD
:1017B0002BFD1CBD2C690120704700002DE9F74F5F
:1017C00029480026DFF89CA0806800EB40000AEB67
:1017D000800080688588C788E81D834620F0070060
:1017E000401B00F0FF0939E04FEADB0102980129B4
:1017F00001FB060009D0022909D0017842788378DC
:10180000080440EA0220184303E0007801E0008861
:1018100040BA002480461AE02A1B02EB090101208D
:10182000491E884010EA080F009800EB04020E4899
:10183000816890B201EB410202D05AF8222002E006
:101840000AEB82014A680199FFF73CF9641CAC423B
:10185000E2D30198401C80B20190761CBE42C3D3F3
:10186000BDE8FE8F48690120589A0020002200F050
:1018700001B800000E4B70B505469C7B0120022C80
:1018800015D89E7B002403F10C009C559E7B03EB36
:10189000860675609D7B2A54987B421C9A733A2376
:1018A0002F22303008704B7020468A70CC7070BD8B
:1018B000A89C0020F0B5D1E90125D1E90343D1E985
:1018C00005762A43D1F800C044EA0304D1E907357C
:1018D00042EA0402496A42EA0702BCF1010F42EA05
:1018E000060208D004681A432A430A43E30BDB03C9
:1018F0001A4302600BE0066844682B4326F4F8455F
:1019000029430B4303606FF30E042243426000201F
:10191000F0BD426942EA4101416100207047F8B5DB
:1019200005461446D1E90003D1E902216FF01F06F4
:10193000184306EB421242EA412108430090286115
:1019400000F0FAFD064609E0601C07D024B100F063
:10195000F3FD801BA04201D90320F8BDA8698006D1
:10196000F2D40020F8BD00002DE9F043914691E843
:101970001C006FF00F05521E2E0105EB03131A43D6
:101980000B7E06EB04268C8A2F034FEA054C0D8A4A
:1019900032434FF07F4808EB0366CB68B9F1010F83
:1019A00007EB05450CEB04540CD081683F1107EBA5
:1019B00003331A432A432243324301F070410A435E
:1019C000826011E08168DFF828C0C7681B03A3F5B7
:1019D000805323432A4301EA0C0132430B438360C3
:1019E00007F070442243C2600020BDE8F08300008D
:1019F000FF0F0FFF2DE9F047894690F850304FF464
:101A0000403201EB490100EBC1012031012B40D0F4
:101A100002254FF0010A80F850A0EC0480F85150E4
:101A200092FAA2F3670094FAA4F22C4C97FAA7F862
:101A3000B3FA83F7D1E90136B2FA82FCD1E9045254
:101A4000B8FA88F8BE401E4305FA0CF5354302FA91
:101A500008F20A2B42EA05021ED0092B1CD04FF0D7
:101A60007F45CB6895FAA5F5B5FA85F5AB401343EC
:101A70000268B9F1000F13D0D569A5431D43D561A4
:101A800002680B6813614A680A2A1BD0092A19D018
:101A90001DE00220BDE8F087CB6803F07F43E6E756
:101AA000556AA5431D43556202680B6893614A68F5
:101AB0000A2A01D0092A0AD10268C96821F07F41A7
:101AC000916204E00268C96821F07F41116200223E
:101AD00080F851A080F850201046DBE70F0033FF5C
:101AE0002DE9F041040004D094F85100002518B10C
:101AF00007E00120BDE8F081204684F8505000F056
:101B000038F8022084F85100C1040205D4E9000726
:101B100091FAA1F192FAA2F201230668B1FA81F1D9
:101B2000B2FA82F226F440363E4306602068A76887
:101B3000466B26F007063E4346632068E768066C5E
:101B40006FF30D063E43066420682669476B8E409E
:101B500027F480113143416320686169466B9140ED
:101B600026F400120A434263656584F85130002070
:101B7000C0E770472DE9F8430026044604270D46C8
:101B800000964FF0030800680068C00727D000F0F7
:101B9000D3FC81461FE04068009010F0210F11D067
:101BA0000098800603D5606D40F0020060650098E3
:101BB000C00703D0606D40F00100606520682121FE
:101BC000816034E0681C06D0C5B300F0B5FCA0EB22
:101BD0000900A8423CD8206841688907DBD5206805
:101BE000C169890602D4406A80063FD500F0A4FC92
:101BF000814637E04068009010F0290F1FD0009810
:101C0000000703D5606D40F0040060650098800611
:101C100003D5606D40F0020060650098C00703D0F6
:101C2000606D40F00100606521682920886084F8BB
:101C30005170012084F85060BDE8F88308E0681C0A
:101C400010D02DB100F078FCA0EB0900A84209D912
:101C5000616D84F8506041F02001616584F8518025
:101C60000320E9E720684168C906C3D5226812212C
:101C70000120916084F85100002084F85060DBE777
:101C8000F8B50446069894F85050012D10D001265E
:101C900084F85060022584F8515000902046FFF7E8
:101CA000DBFC2068016841F0010101600020F8BD03
:101CB0000220F8BD70B5040025D094F83500022844
:101CC00020D0206800252122016821F00101016057
:101CD0002068056020684560206885602068C560D0
:101CE00020680561206842612046FFF705FD94F8F1
:101CF0005C203F2191408160656584F8355000206B
:101D000084F8345070BD012070BD00002DE9F0470B
:101D1000044600F011FC054664B14FF0000984F858
:101D20003490022184F835102068016821F0010107
:101D300001600EE00120BDE8F08700BF00F0FCFB71
:101D4000401B052805D920216165032084F8350052
:101D5000F1E720680068C007F0D1D4E90020D4E999
:101D60000251D4E9043C284304F1180519430843FF
:101D7000116895E8E00140EA0C001B4B284319402C
:101D800040EA060040EA0700B8F1040F40EA01000B
:101D900003D1D4E90B1319430843106020680126CE
:101DA000656A4069042D20F0070045EA00050AD164
:101DB000A06A05432046FFF7B3FC20B140206065D0
:101DC00084F83560B6E7206845612046FFF794FC4B
:101DD00094F85C303F229A408260C4F8549084F8B2
:101DE00035600020A7E700003F8010E070B5027C5E
:101DF000012A6AD0012202740268536B23F00103A6
:101E000053630268D2F8003423F00103C2F80034AF
:101E10000268936B23F0030393630268CC68936BAF
:101E2000234393630268D36B6FF30D03D36302689C
:101E30000C69D36B2343D3630268136C6FF30C03F9
:101E4000136402684C69136C234313640268536C77
:101E50006FF30C03536402688C69536C234353641F
:101E60000268D36823F00303D36002680C68D36868
:101E70002343D3600268536923F007035361026868
:101E8000D1E90845CE69536934432B432343536159
:101E90000268136923F00F03136102684C68136929
:101EA000234313610268D2F8003423F00E03C2F812
:101EB000003402684B68D2F8004444EA4303C2F895
:101EC00000344A68032A02D00BE0022070BD026889
:101ED000136923F48073136102688C6813692343C8
:101EE000136102680023946C6FF30B04946402681E
:101EF0008D6A946C2C4394640268D46C6FF30B0469
:101F0000D4640268CD6AD46C2C43D4640268146D26
:101F10006FF30E04146502680D6B146D2C43146589
:101F20000268546D6FF30904546502684D6B546D7B
:101F30002C4354650268946D6FF30904946502683C
:101F40008D6B946D2C4394650268D46D6FF3090416
:101F5000D4650268CD6BD46D2C43D4650268146ED1
:101F60006FF30D04146602680D6C146E2C43146636
:101F70000268946B24F40044946302684D6C946B83
:101F80002C4394630268946924F47F04946102688A
:101F9000B1F84840956945EA04449461026894693F
:101FA00024F0FF0494610268CD6C94692C43946121
:101FB0000268946B24F40054946302680D6D946B72
:101FC0002C4394630268946B24F4805494630268F5
:101FD0004D6D946B2C4394630268946B24F40064FD
:101FE000946302688D6D946B2C4394630268946BC8
:101FF00024F4806494630268CD6D946B2C439463E5
:102000000268946B24F40074946302680D6E946B00
:102010002C4394630268946B24F480749463026884
:102020004D6E946B2C4394630268946B24F480444B
:10203000946302688C6E916B21439163037400205A
:1020400070BD10B504002AD0032060742068D0F859
:10205000041421F00801C0F804142068416821F03C
:10206000010141602068D0F8A01021F00601C0F8FD
:10207000A0102068D0F8301421F00101C0F830140D
:102080002068D0F8301421F08071C0F83014204658
:1020900000F008F9002060616074207410BD012018
:1020A00010BD00002DE9F04104000D4602D0607C17
:1020B00018B105E00120BDE8F081204600F0F3F8FA
:1020C000032060742068D0F8301441F08071C0F8AB
:1020D000301400F031FA4FF47A77064605E000BF7D
:1020E00000F02AFA801BB8422BD82068D0F80C04E4
:1020F000C004F5D52068424AD0F830141140C0F829
:1021000030142068D5E900212B89D0F830644FEADB
:10211000C12C46EA82014CEA03421143C0F8301454
:102120002068D0F8301441F00101C0F8301400F0FC
:1021300003FA064607E000BF00F0FEF9801BB84234
:1021400001D90320B7E72068D0F80C04C005F3D507
:102150002068D0F8A01041F00601C0F8A010206857
:10216000D0F8941021F00301C0F89410D4E90002D3
:10217000D0F89410114341F00101C0F89410206888
:10218000D0F8A41021F00301C0F8A4102068E26880
:10219000D0F8A4101143C0F8A4102068816821F081
:1021A000FF0181602068A2688168114381606868CE
:1021B00000B901201349226846F2A81695F808C014
:1021C0002B684843D2F8185400210127734325F0A7
:1021D0003F05C2F8185400FA0CF0B0FBF3F0226887
:1021E000D2F818340343C2F818342068C0F8C41079
:1021F0002068C0F8C810A1616161677400205AE7C7
:102200000386FCFF00093D002DE9FF4F81B0044625
:10221000007C00251E46DDE90EB7012808D001200C
:10222000207400F089F94FF47A7A8046A9460DE0CF
:10223000022005B0BDE8F08F00F07EF9A0EB0800A9
:10224000504503D9032084F81090F2E72068406FCE
:10225000C007F1D016E06DB9387803257978032EE0
:102260002268BB784BEA002040EA014040EA036064
:10227000106709D978192168C278006862F31F6075
:1022800008672D1DB542E6D3761CDDE90212C6F3C0
:10229000072000902068F3B2FFF76CFA002084F862
:1022A0001090C6E7704770472DE9F84F0446007C50
:1022B00099469246DDF8288001288B4608D00120F7
:1022C000207400F039F9002605464FF47A770BE0C8
:1022D0000220BDE8F88F00BF00F02EF9401BB84285
:1022E00002D903202674F4E72068406FC007F3D0BA
:1022F000CDF800804B46206852465946FFF73AFA1F
:1023000000202674E5E7017C012911D00121017428
:10231000016800224B6843F001034B600168D1F86B
:10232000043443F00803C1F80434027410467047C3
:102330000220704731B500F0FFF8044600F0FCF8C9
:102340000099001B8842F9D338BD00002DE9F84FF1
:10235000DFF89CE100224FF001084FF0030B4FF033
:102360000F0A00BF0B6808FA02F42340A34271D1A0
:102370004D68022D01D0122D0FD1D5080E695707D7
:1023800000EB8505A9462D6AFF0E0AFA07FCBE4040
:1023900025EA0C052E43C9F820600F795500066820
:1023A0000BFA05FC07F0030726EA0C06AF4037439B
:1023B00007604E68012E05D0022E03D0112E01D0E9
:1023C000122E0ED18668CF6826EA0C06AF4037433E
:1023D000876046680F79A643C7F3001797403743D5
:1023E0004760C4688E6824EA0C04AE402643C66089
:1023F0004C68E40075D53F4C256845F48045256060
:10240000246822F00306950704F4804400943A4CB3
:102410002D0F2644D6F80848DFF8E0C00AFA05F781
:10242000604524EA070401D100272EE0344FB8426A
:1024300001D1012729E0334FB84201D1022724E01E
:10244000314FB84201D103271FE0304FB84202D1CB
:1024500004271AE045E02E4FB84201D1052714E0C9
:102460002C4FB84201D106270FE02B4FB84201D1C3
:1024700007270AE0294FB84201D1082705E0284F75
:10248000B84201D1092700E00A27AF40274375462B
:10249000C6F808784E68DEF80040F60324EA030424
:1024A00000D51C43124E2C60361D4D683468AD03B8
:1024B00024EA030400D51C430D4F346008374D68EF
:1024C0003C68ED0224EA030400D51C43084D3C603F
:1024D0000C354E682C68B60224EA030400D51C4370
:1024E0002C60521C102AFFF43DAFBDE8F88F0000AD
:1024F000003C0140443802400030014000000240EE
:102500000004024000080240000C0240001002409B
:102510000014024000180240001C0240002002404B
:10252000002402400069084000D0012070470AB131
:10253000816170470904FBE70148006870470000AB
:102540008C9A002010B5040014D0242084F8410097
:102550002068016821F001010160204600F0D6F9F1
:102560000020606484F84100206384F8420084F80D
:10257000400010BD012010BD90F8410070470000E0
:1025800070B5040004D094F84100002510B106E0B5
:10259000012070BD204684F8405000F0B8F9242096
:1025A00084F841002068016821F001010160D4E94C
:1025B000001020F0706008612068816821F40041FB
:1025C0008160E06821680128A06806D040F40440DA
:1025D0008860E068022803D006E040F40040F7E796
:1025E00021684FF40060486020212068114A436848
:1025F000134343602068C26822F40042C26054F86A
:10260000106B0DCC104340EA0320F06054F81C3CE2
:10261000D4E900021043186054F81C0D026842F01F
:1026200001020260656484F84110256384F8425019
:10263000002070BD008000022DE9FF4F83B00446EA
:1026400090F841009A469346DDE91087DDF84890FE
:10265000202875D15FEA080073D0002F71D094F85C
:10266000400001286CD0012084F84000FFF764FF8F
:102670000122064619230090D103204601F016FEE0
:10268000002875D10025C4F82480222184F8411047
:10269000402084F8420065646785534665635A4666
:1026A00004992046CDE9009601F080FD28B1606CC8
:1026B00084F8405004285FD05AE0618DFF274FF422
:1026C0001050FF294FF080784FF0007A04D9278509
:1026D0003A464346009005E0618D534621850090BF
:1026E00094F828202046049901F0CEFD00224B46A4
:1026F00004212046009601F0D9FDC8BB2168606A1C
:10270000496A421C62620170208D401E0004000C68
:102710002085618DA1F1010161851DD1608DD8B148
:1027200000224B4680212046009601F0BFFDF8B9FB
:10273000608DFF2806D927853A464346009507E075
:102740002CE019E0608D53462085009594F82820F0
:102750002046049901F098FD608D0028C6D13246CC
:102760004946204601F0CBFD40B1606C042803D0FF
:10277000032007B0BDE8F08F0120FAE72068202190
:10278000074AC161206843681340436084F84110E0
:1027900084F84250002084F84050EAE70220E8E73D
:1027A00000E800FE2DE9FF4F83B0044690F8410099
:1027B0009A469346DDE91087DDF84890202870D1CD
:1027C0005FEA08006ED0002F6CD094F8400001281A
:1027D00067D0012084F84000FFF7AEFE01220646D4
:1027E00019230090D103204601F060FD002854D148
:1027F0000025C4F82480212184F84110402084F869
:10280000420065646785534665635A4604992046CD
:10281000CDE9009601F001FD28B1606C84F84050CC
:1028200004286CD039E0608DFF274FF08078FF28B6
:102830004FF0007A04D927853A464346009505E0D3
:10284000608D53462085009594F8282020460499F1
:1028500001F01AFD32464946204601F078FD18B1D4
:10286000606C04284BD018E0606A411C61622168EA
:1028700000788862608D401E6085208D401E0004B7
:10288000000C208521D1608DF8B100224B468021BB
:102890002046009601F00AFD28B1032007B0BDE8EC
:1028A000F08F2EE02BE0608DFF2804D927853A4673
:1028B0004346009505E0608D53462085009594F8C9
:1028C00028202046049901F0DFFC608D0028C1D14A
:1028D00032464946204601F012FD0028C0D120684A
:1028E0002021094AC161206843681340436084F88D
:1028F000411084F84250002084F84050CEE7012077
:10290000CCE70220CAE7000000E800FE70477047ED
:1029100002480168491C0160704700008C9A002041
:10292000074810B5016841F400710160032000F010
:1029300025F90F2000F006F800F0F1F8002010BD96
:10294000003C0240084910B504464FF47A7009680B
:10295000B1FBF0F001F09DFB00222146501E00F07B
:10296000EDF8002010BD0000889A00202DE9F0410C
:10297000044690F8A00016460F4601281DD00125F8
:1029800084F8A050022084F8A10006EB860000EB3A
:10299000C600342204EB80003830FDF79CFC324640
:1029A0003946204601F028FE216800204D6284F857
:1029B000A15084F8A000BDE8F0810220FBE70000F0
:1029C0002DE9F041040004D094F8A100002518B1CD
:1029D00007E00120BDE8F081204684F8A05000F017
:1029E0006FF83648022184F8A110012202CC8B69CD
:1029F00023F070438B6194E84A001943E3681E4357
:102A000054F8043D31439E693143996121688B68D4
:102A100003408B602168A68AA7698B683B4343EA21
:102A200006438B602168CB680340CB602168A38B91
:102A3000276ACE683E4346EA0346CE6021680B69AA
:102A400003400B612168A68CA76A0B693B4343EAEC
:102A500006430B6121684B6903404B612168A38DDC
:102A6000266B4869304340EA03404861236894F884
:102A7000351094F83600DE6A000406F07F46DE6208
:102A8000236840EA012094F83460D96A3143014355
:102A9000D9622068416B41F0040141632068416BB9
:102AA00041F0020141632068816941F001018161C7
:102AB000C4F8A45084F8A12000208BE700F800F0AF
:102AC000704710B54A6A0AB14FF00052C2600A6AF4
:102AD000FAB100228260CA69F2B1002242604A6BF8
:102AE000521E8261D1E90D231A44521E0262D1E9BD
:102AF0000D340A6C521E23441A448262D1E90D231C
:102B0000D1E90F141A4421441144491E01630020E5
:102B100010BD4FF08042DDE74FF00042DEE7704726
:102B2000002809DB410900F01F028900012001F1A2
:102B3000E0219040C1F80001704700000E4BF0B456
:102B40001B680D46C3F30223C3F10706042E00D908
:102B50000426191D072901D2002300E0DB1E0124F1
:102B600004FA06F19C40491E2940641E9940144015
:102B70002143F0BC02F07CBE0CED00E0064900F001
:102B8000070210B54FF6FF040868044B204040EAE6
:102B900002201843086010BD0CED00E00000FA05AB
:102BA0001848F8B5016841F0805101600068164C82
:102BB00000F080500090206840F480302060FFF7E3
:102BC000BBFC4FF47A76054605E000BFFFF7B4FC86
:102BD000401BB0420FD86068C003F7D5206840F4AE
:102BE00000302060FFF7A8FC054606E0FFF7A4FCD4
:102BF000401BB04201D90320F8BD60688003F5D5C1
:102C00000020F8BD40380240007000402DE9F84F28
:102C100004460078DFF888844FF000063546C00788
:102C20000ED0D8F8001021F40001C8F80010D8F830
:102C30000010626B1143C8F80010606B00B90126E8
:102C40002068DFF85C94000309F1840910D5E26B79
:102C5000D9F8001021F440111143C9F80010E06BBD
:102C6000B0F5801F01D010B102E0012600E001257F
:102C70002068C00210D5226CD9F8001021F4400160
:102C80001143C9F80010206CB0F5800F01D010B1CD
:102C900002E0012600E001252068C10100D50126DF
:102CA000800658D5FE483830016841F080510160F7
:102CB0000068DFF8F0A300F080500090DAF8001010
:102CC00041F48071CAF80010FFF736FC074604E0B3
:102CD000FFF732FCC01B64287ED8DAF80000C0057C
:102CE000F6D5EF4F6837386810F4407023D0218E46
:102CF00001F4407181421ED03868396820F4407078
:102D000041F480313960396821F4803139603860AC
:102D10003868C0070FD0FFF70FFC824641F2883BAE
:102D200006E000BFFFF708FCA0EB0A015945D3D825
:102D300038688007F6D5216BC1F30120032840468F
:102D40007ED0016821F4F8110160218E3868C1F34A
:102D50000B01084338602078C0060BD5D9F8001065
:102D600021F08071C9F80010D9F80010A26B11434E
:102D7000C9F800102188CA488830490405D5626E18
:102D8000016821F44031114301602188090405D50F
:102D9000A26E016821F44021114301602168C9033A
:102DA00005D5E26E016821F44011114301602168EC
:102DB000890305D5226F016821F4400111430160A8
:102DC0002178490605D5626C016821F003011143A1
:102DD00001602178090600E01EE105D5A26C0168BA
:102DE00021F00C01114301602188C90505D5E26C71
:102DF000016821F03001114301602188890505D562
:102E0000226D016821F0C00111430160218849054C
:102E100005D5626D016821F440711143016021887C
:102E2000090505D5A26D016821F4406111430160D7
:102E30002188C90407D5E26D016821F4405100E002
:102E400021E0114301602188890405D5226E0168C3
:102E500021F44041114301602168490205D5A26F68
:102E6000016821F08061114301602168890213D556
:102E7000E26F016821F0006111430160E16FB1F17F
:102E8000006F08D008E0884A0368114023F4F81264
:102E90000A43026059E7012521680A0700D5012588
:102EA000490305D5626F016821F04071114301604B
:102EB0002168090206D5D4F88020016821F08051EC
:102EC000114301602168490106D5D4F884200168C6
:102ED00021F00051114301602068000108D5D4F8A9
:102EE0008820D9F8001021F000711143C9F80010B2
:102EF0002068C00008D5D4F88C20D9F8001021F043
:102F000080611143C9F80010012E4FF4403B4FF08F
:102F1000706A03D02068B0F1007F7CD1604E083E1B
:102F2000306820F080603060FFF706FB074604E061
:102F3000FFF702FBC01B64286ED8594808380068A8
:102F40000001F5D42078DFF858E1C0070EF17C0EBF
:102F500035D0606B98BBDEF800209BFAABF7DEF84B
:102F600000009AFAAAFCB7FA87F847F6C07602F48E
:102F70004032616896FAA6F722FA08F2BCFA8CF899
:102F8000B7FA87FC9BFAABF600F0706001FA0CF11F
:102F9000B6FA86F69AFAAAF720FA08F04FF0E0435C
:102FA000B24093FAA3FCA668B7FA87F71143B8407A
:102FB000BCFA8CF2014396403143CEF800102068F1
:102FC000010303D5E16BB1F5801F05D0C00243D5E5
:102FD000206CB0F5800F3FD1DEF800109BFAABF605
:102FE0004FF0E04247F6C07CB6FA86F7DEF80060A4
:102FF00001F4403160689CFAACFCF9409AFAAAF7F7
:103000009BFAABF3B7FA87F892FAA2F7BCFA8CFCFA
:10301000B7FA87F701E097E012E100FA0CF0B3FA93
:1030200083FCE36806F0E04601FA0CF192FAA2F2A2
:10303000FE4003FA08F3B2FA82F70843BE40184391
:103040003043CEF80000D9F80000616A20F01F007C
:10305000491E0843C9F800002068C0013DD5DEF8CC
:1030600000109AFAAAF0DEF8003047F6C07601F0B8
:103070007061B0FA80F09BFAABF7C1404FF0E04CC2
:10308000009196FAA6F621699CFAACFCB7FA87F78C
:10309000B6FA86F89AFAAAF6B940BCFA8CFC05E0B2
:1030A0000838024000700040FFFCFF0F60684FF0DE
:1030B000E04703F0E042B6FA86F600FA08F008436B
:1030C000009997FAA7F722FA0CF2B140B7FA87F6FF
:1030D0000843B2401043CEF800002068800122D59A
:1030E00047F6C07004F1080190FAA0F260689BFAFC
:1030F000ABFCB2FA82F346C9BCFA8CFC98409AFA4F
:10310000AAF806FA0CF64FF0E047B8FA88FC97FAEE
:10311000A7F7304302FA0CF2B7FA87F61043B14032
:103120000843CEF800007F4E306840F08060306089
:10313000FFF702FA074604E0FFF7FEF9C01B642818
:103140007ED830680001F7D5002D7AD0754D2868FB
:1031500020F080502860FFF7EFF9064605E000BF39
:10316000FFF7EAF9801B64286AD86E480068C043FC
:103170008000F5D56B48216888300A0301D5E26BE1
:103180001AB1C9023ED5216CE1BB02689BFAABF6CD
:103190004FF0E04347F6C071B6FA86F7066802F4CE
:1031A000403291FAA1FC6169FA409AFAAAF7BCFA96
:1031B0008CFC9BFAABF501FA0CF1B7FA87F893FA9D
:1031C000A3F7B5FA85FCA56906F0E04602FA0CF211
:1031D000B7FA87F793FAA3F3FE4005FA08F5B3FAB6
:1031E00083F311439E402943314301606FF0FF0791
:1031F000D9F80010A36A21F4F85107EB032319430F
:10320000C9F800102168890237D5E16FB1F1006F6C
:1032100033D101689AFAAAF205684FF0E04847F600
:10322000C0769BFAABFC96FAA6F798FAA8F601F0DE
:103230007061B6FA86F6BCFA8CFCB2FA82F201E052
:1032400067E06DE021FA02FE216AB7FA87F762694A
:103250009AFAAAF305F0E04501FA0CF1BA40B3FA84
:1032600083F398FAA8F7F5400A430EFA03F1B7FA88
:1032700087F30A439D402A4302602178090739D524
:103280000168D0F800809BFAABF79AFAAAFC47F6DF
:10329000C07308F44032B7FA87F893FAA3F763696A
:1032A00022FA08F2BCFA8CF8B7FA87FC9BFAABF664
:1032B00001F0706103FA0CF3B6FA86F69AFAAAF7EF
:1032C00021FA08F14FF0E045B24095FAA5FCE66915
:1032D000B7FA87F71343B940BCFA8CF20B43964018
:1032E00033430360D9F80000E16A20F4403008431A
:1032F000C9F800000B4C206840F080502060FFF7B8
:103300001BF9054608E000BFFFF716F9401B6428CB
:1033100002D90320BDE8F88F2068C0438000F3D4B1
:103320000020F7E7003802402DE9F047DFF84C8134
:1033300005460E46D8F8000000F00F00B0420CD24F
:10334000D8F8001021F00F013143C8F80010D8F868
:10335000000000F00F00B04265D12878484C80078B
:1033600005D5A968206820F0F0000843206028787F
:10337000C00747D0424968680839012816D0096853
:10338000022816D0890700294DDA216821F00301AF
:1033900001432160FFF7D0F86968074641F28830A1
:1033A00001290FD00229814619D027E00968890335
:1033B000E9E78901E7E700BFFFF7BEF8C11B494510
:1033C00001D918E081462068C0F381000128F3D1BB
:1033D00018E000BFFFF7B0F8C11B49450BD82068C3
:1033E000C0F381000228F5D10CE000BFFFF7A4F87C
:1033F000C11B494502D90320BDE8F087206810F0C1
:103400000C0FF3D1D8F80010404601F00F01B14283
:103410000BD9016821F00F0131430160006800F011
:103420000F00B04201D00120E6E72878400705D51B
:10343000E968206820F4E0500843206028780007FD
:1034400006D52869216821F4604141EAC000206066
:1034500000F01CF82168F02292FAA2F201F0F001CB
:10346000B2FA82F2D140074A515CC840064908606E
:103470000F20FFF767FA0020BEE70000003C024083
:103480000838024097BA0008889A00201D4930B5D4
:103490001D48096811F00C011AD01C4B042916D0E4
:1034A000082915D1174947F6C072091F0C680D6825
:1034B00004F03F046D020CD50D68B3FBF4F092FAF2
:1034C000A2F31540B3FA83F2D54068430BE01846E7
:1034D00030BD0B68B0FBF4F092FAA2F41340B4FADA
:1034E00084F2D340584309684FF4403292FAA2F272
:1034F00001F44031B2FA82F2D140491C4900B0FBDC
:10350000F1F030BD083802400024F40040787D011D
:103510002DE9F84FDFF86093054600780027A9F100
:10352000040AAAF10404C0074CD0D9F80010484698
:10353000C1F38101012908D00068C0F3810002288D
:103540000AD1DAF80000400206D52068800339D598
:103550006868002870D035E06868B0F5803F0BD00F
:1035600010B1B0F5A02F11D0206820F48030206079
:10357000206820F4802002E0206840F48030206041
:10358000686890B1FEF7D8FF06460AE0206840F46C
:1035900080202060F0E700BFFEF7CEFF801B64288C
:1035A00076D820688003F7D50CE0FEF7C5FF064605
:1035B00005E000BFFEF7C0FF801B6428F0D820683C
:1035C0008003F7D42878800746D5D9F800104846FC
:1035D0004FF0F80811F00C0F08D00068C0F381001C
:1035E00002280AD1DAF80000400206D420688007D9
:1035F00016D5E86801281FD112E0E8680028206885
:103600001BD040F001002060FEF796FF064604E064
:10361000FEF792FF801B0228C2D820688007F7D5EA
:103620002869226898FAA8F1B1FA81F1884022F05D
:10363000F801014321600FE01BE120F00100206050
:10364000FEF77AFF064604E0FEF776FF801B0228AD
:10365000A6D820688007F7D42878000729D586489F
:1036600069696C3000298046016812D041F001017F
:103670000160FEF761FF064605E000BFFEF75CFF54
:10368000801B022804D8D8F800008007F6D510E087
:1036900089E021F001010160FEF74EFF064604E0DB
:1036A000FEF74AFF801B02287DD8D8F8000080076B
:1036B000F6D4287840076BD5DFF8BC8108F13808CC
:1036C000D8F80000C0000BD4D8F8001041F08051A9
:1036D000C8F80010D8F80000012700F080500090D2
:1036E00066480168C90512D40168834641F48071B7
:1036F0000160FEF721FF064605E000BFFEF71CFF54
:10370000801B64284FD8DBF80000C005F6D55A4E60
:10371000A868683601280AD008B1052811D0306899
:1037200020F001003060306820F0040002E03068D2
:1037300040F001003060A868A0B1FEF7FDFE8346AE
:103740000CE0306840F004003060F0E7FEF7F4FE73
:10375000A0EB0B0141F28830814224D83068800709
:10376000F4D50EE0FEF7E8FE834607E0FEF7E4FE40
:10377000A0EB0B0141F28830814272D8306880079B
:10378000F4D42FB1D8F8001021F08051C8F80010FF
:10379000A869E8B3D9F80010C1F38101022968D003
:1037A0000228206800E05CE020F08070206003D0F8
:1037B000FEF7C2FE054657E0FEF7BEFE064604E0F1
:1037C000FEF7BAFE801B02284BD820688001F7D490
:1037D00047F6C0704FF0FF37D5E9091290FAA0F311
:1037E0004FF44036D5E9070C96FAA6F607EB5202DD
:1037F000B3FA83F34FF07067B6FA86F8994097FAF8
:10380000A7F702FA08F24FF0E04640EA0C0000E0A9
:103810002DE01143D5E90B3296FAA6F5B7FA87F7F2
:10382000B5FA85F5BB400843AA4018431043CAF8CF
:103830000000206840F080702060FEF77DFE0546A5
:1038400005E000BFFEF778FE401B022809D820687B
:103850008001F7D50BE000BFFEF76EFE401B02288B
:1038600002D90320BDE8F88F20688001F4D400203D
:10387000F8E70120F6E70000083802400070004039
:103880002DE9F0470446007A0026894601280CD02D
:10389000607A0127B0462772012808D05FF0010640
:1038A00084F808803046BDE8F0870220FBE702205C
:1038B0006072FEF741FE05460BE000BFFEF73CFEDE
:1038C000401B022805D904216172032084F8088076
:1038D000E9E720684068C043C007EFD120688068EE
:1038E0006060C9F800006772DAE710B5011D044690
:1038F000FFF7C6FF08B1002010BD606810BD70B5AD
:10390000040008D0207A012807D0607A012500261B
:10391000257220B107E0012070BD022070BD204655
:10392000267200F00BF8022060722068016841F0F6
:103930000401016065720020267270BD054808B55B
:10394000016841F040010160006800F04000009013
:1039500008BD00003438024070B504000D4603D0A5
:1039600094F82C0010B107E0012070BD002084F80D
:103970002D00204600F011F8022084F82C00206869
:10398000211DFDF797FFD4E900022946FDF7ECFF62
:10399000012084F82C00002070BD704710B504464B
:1039A00090F82C00022809D0022084F82C0020680E
:1039B000FDF7AFFF012084F82C00002010BD0000AF
:1039C00070B5044690F82C000D4602280DD0022058
:1039D00084F82C002068FDF7A2FF2868022805D093
:1039E0005FF0010084F82C00002070BD0520F9E78D
:1039F000FEB504460D46416C032084F834000329CB
:103A000020D0B5F5805F1DD0B5F5006F05D045B16C
:103A1000A06B40F00060A06309E0204601F068FD63
:103A200002E0204601F03DFDA16B0143A163A06BC4
:103A3000012658B1216840F2FF50886384F8346051
:103A40000120FEBDA06B40F08050E4E7211DD4E9C9
:103A500005070EC9CDE900500297206801F0BAFBB6
:103A600084F834600020FEBDF0B5426E120E93095A
:103A70000B70C2F3830402F003024C708A70426E32
:103A8000120CCA70B0F86420120A0A7190F864200F
:103A90004A714FF6FF73826E120E03EA0212CA8059
:103AA000CB88826EC2F3074214092343CB8002F015
:103AB0000F020A72B0F868200025C2F30722D3096A
:103AC0004B72C2F38014C2F34016C2F300178C721B
:103AD000CE720F734D730123446C4FF400766CB1BA
:103AE000012C46D0026840F2FF519163816B41F096
:103AF0008051816380F834300120F0BD9207120DAF
:103B00000A610C6990F8682044EA82020A610C6933
:103B1000C26E120E9709C2F3C20C3C430C6102F054
:103B2000070281F814C04A75C26EC2F307429407B7
:103B300057098F75640FC2F38202CA750C760A7E2C
:103B4000B0F86C40C4F3072442EAD4120A760A693A
:103B5000521C42650F7EBF1CBA4042650F7A03FAC1
:103B600007F787654FEA572C02FB0CF2C0E91726CE
:103B70001CE090F868209206920A0A610C69C26EF5
:103B8000120E44EA02220A610C69C26EC2F30742B5
:103B900014430C610A69B0F86C40521C4FEA82224F
:103BA0004265C4F30724C0E916620666C4F38012B6
:103BB0004FEA84644A764FEA54648C7690F86C201D
:103BC0008C7E4FEAD21602F07F0244EA06048C761D
:103BD000CA7650F8702F4FEA12624FEAD2140C776F
:103BE000C2F34116C2F382074FEA82724E778F7793
:103BF0004FEA1272CA77CC7F0268C2F3074244EAE6
:103C00009214CC77C2F3401602F0010281F82060D2
:103C100081F8215081F822200288C2F307224FEA5E
:103C2000D21481F82340C2F38015C2F34016C2F3C8
:103C30000017C2F3810C02F0030281F8245081F8CE
:103C4000256081F8267081F827C081F82820007847
:103C50004FEA500081F8290081F82A304FF0000027
:103C6000F0BD426C0A60826C4A60C26C8A60026D70
:103C7000CA60426D0A61826D4A61C26D8A61006EDE
:103C8000C8610020704770B5B0F850100025044698
:103C90000068090401F0EAF818B1A16B0143A163BF
:103CA00004E02068002101F08FFA0546C5F34320A7
:103CB00070BD70B5040004D094F83400002510B134
:103CC00005E0012070BD2046257700F038F803207C
:103CD00084F83400204600F007F80120A56325632E
:103CE00084F83400002070BD3EB5044676200021E3
:103CF00000910B460A46CDE90110206801F06AFAEE
:103D00002068416821F480714160206801F073FAF5
:103D10002068416841F480714160204601F06EFBEB
:103D20004FF0010520B9204601F0F5FA002805D032
:103D300084F83450A16B0143A16301203EBD70475C
:103D40002DE9F04F87B09A4617460E460446DDF837
:103D500040B0FEF7F1FB00903EB194F8340001282A
:103D600007D0A06B40F000500FE0A06B40F0006067
:103D70000BE0E16D07EB0A004FF00008C4F8388053
:103D8000884204D9A06B40F00070A0637DE003205E
:103D900084F834002068C0F82C80606C012800D0C2
:103DA0007F0220684FF4007100F046FF40F2FF5997
:103DB0004FF0010530B12268C2F83890A16B014381
:103DC000A16360E002204FEA4A239021CDE903106D
:103DD0004FF48012CDE90123CDE90585206801A9C2
:103DE00001F0C2F8BAF1010F06D902202063206861
:103DF000394600F0ADFF04E025633946206800F045
:103E0000C0FF0028D7D122E0406B000409D500276D
:103E1000206801F0F8F946F827007F1C082FF7D337
:103E20002036BBF1000F05D0FEF786FB0099411A42
:103E300059450CD32168C1F83890A06B40F0004080
:103E4000A06384F83450032007B0BDE8F08F2068E9
:103E5000416B11F4957FD7D0416BC90509D5BAF1F3
:103E6000010F06D9616C032903D001F031F8002855
:103E7000A1D12068416B090709D5C0F83890A06B23
:103E800040F0080028E084F834500120DCE7416B62
:103E9000890705D5C0F83890A06B40F002001BE000
:103EA000416B89061AD5C0F83890A06B40F020000D
:103EB00012E000BF01F0A7F9BBF1000F01C605D069
:103EC000FEF73AFB0099411A594507D32168C1F81A
:103ED0003890A06B40F00040A063D4E72068416BAD
:103EE0008902E7D4C0F8389084F834500020ABE75A
:103EF0002DE9F04F87B09A4616460D460446FEF768
:103F00001BFB83463DB194F83400012807D0A06B19
:103F100040F000500DE0A06B40F0006009E0E26D61
:103F2000002006EB0A01A063914204D9A06B40F087
:103F30000070A0639CE00321814684F8341021685E
:103F4000C862606C012800D0760220684FF40071CE
:103F500000F072FE40F2FF584FF0010730B12268C6
:103F6000C2F83880A16B0143A16317E0BAF1010FD9
:103F700006D9202020632068314600F0C3FF05E009
:103F8000102020632068314600F0D5FF060008D0DD
:103F90002168C1F83880A06B3043A06384F8347086
:103FA00066E04846B9464FEA4A239022CDE9040725
:103FB0004FF48011CDE90220CDE900132068694655
:103FC00000F0D2FF22E0406B40040AD55FF000070A
:103FD000206805EB870101F02AF97F1C082FF7D331
:103FE0002035109830B1FEF7A7FAA0EB0B0110981E
:103FF00081420BD32268C2F83880A06B3043A063A3
:1040000084F83490032007B0BDE8F08F2068416B3E
:1040100011F48D7FD7D0416BC90510D5BAF1010FCE
:104020000DD9616C03290AD000F052FF38B1236822
:104030004946C3F83880A26B0243A26316E02068A9
:10404000416B090708D5C0F83880A06B40F0080024
:10405000A06384F834900BE0416B89070AD5494688
:10406000C0F83880A06B40F002000CE084F83410F7
:104070000120C8E7416BC0F83880C906494604D51D
:10408000A06B40F01000A063F0E784F8341000202B
:10409000B9E7401EB0F1807F10B501D3012010BDFB
:1040A0004FF0E02460610F21601701F0E1FB002078
:1040B000A0610721216110BD10B5040003D094F860
:1040C0003D0010B107E0012010BD002084F83C0045
:1040D000204600F00CF8022084F83D002068211DE5
:1040E00001F0E4FA012084F83D00002010BD704783
:1040F000022180F83D10012201680B6843F00103A2
:104100000B6080F83D2000207047FEE701688A6957
:10411000D243920701D400228A6200688169C943B0
:10412000C90703D0816941F0010181617047000036
:104130002DE9F0410446006890460E468069C04370
:10414000C0062FD40025202720688069C043800640
:1041500011D5701CF8D02EB1FEF7EEF9A0EB0800D7
:10416000B042F1D984F8417084F84250032084F8B9
:104170004050BDE8F08121681020C8612068C76107
:104180002046FFF7C3FF20680422074943680B401D
:104190004360626484F8417084F84250012084F8DE
:1041A0004050E6E70020E4E700E800FE2DE9F84390
:1041B000174604464FF400501E46DAB20090002322
:1041C0002046DDE9089800F05FF84246494620465F
:1041D00000F0BDF818B1606C04281CD018E0012E66
:1041E000FDB209D02068390A81624246494620461C
:1041F00000F0ADF80028EED1206885620022402151
:104200004B462046CDF8008000F050F8002800D042
:104210000320BDE8F8830120FBE72DE9F8430446BD
:1042200017464FF400501E46DAB20090C3022046F3
:10423000DDE9089800F028F842464946204600F09B
:1042400086F818B1606C04281CD018E0012EFDB26D
:1042500009D02068390A816242464946204600F06A
:1042600076F80028EED120688562002280214B4636
:104270002046CDF8008000F019F8002800D0032077
:10428000BDE8F8830120FBE730B5C1F30901064D15
:1042900041EA02410268039C1943506821432840C7
:1042A0000143516030BD0000009800FC2DE9F04151
:1042B0001D4617460E460446DDF8188013E0681CBC
:1042C00011D02DB1FEF738F9A0EB0800A8420AD9A9
:1042D0000020202184F8411084F8420084F8400036
:1042E0000320BDE8F0812068806936EA000004D030
:1042F0000020B842E3D00020F3E70120F9E770B5D1
:1043000016460D4604461BE0324629462046FFF776
:104310000FFF08B1012070BD25B1FEF70DF9801B1C
:10432000A8420DD9626C002084F84000202142F0A0
:104330002002626484F8411084F84200032070BDBA
:1043400020688069C0438006DED4002070BD70B54F
:1043500016460D4604461DE0324629462046FFF724
:10436000E7FE08B1012070BD681C13D025B1FEF72F
:10437000E3F8801BA8420DD9626C002084F840004D
:10438000202142F02002626484F8411084F8420047
:10439000032070BD20688069C0438007DCD4002002
:1043A00070BD10B50446FEF7CDF82046BDE81040BC
:1043B000AFF3008010B50446FEF7DEF8002818D1F0
:1043C0000C48844201D10C4800E00C4801210C4A01
:1043D000206000206260C4E9020120616061E06148
:1043E0002062204600F00EF82046BDE81040FEF79F
:1043F000C7B810BD94640120006000400054004024
:1044000032279140F0B54A4900224A4B87B04A4EC4
:104410004FF00407494D9842494C4FF01200D1F833
:1044200000C04FF0020345D14CF0080CC1F800C0A9
:10443000D1F800C00CF0080CCDF814C0D1F800C0C1
:104440004CF0020CC1F800C009680DF1080C01F035
:1044500002010591D902CDE900108CE88C003948A1
:104460006946FDF773FF802000900B2130460491D0
:104470006946FDF76BFF286840F080702860286867
:1044800000F080700590206840F080702060206807
:1044900020F08070206000220F215F20FEF74EFB8D
:1044A0005F20FEF73DFB00220F216020FEF746FB58
:1044B000602038E04CF0020CC1F800C009680DF132
:1044C000080C01F0020105914FF48071CDE9001054
:1044D0008CE88C0069463046FDF738FF4FF40070D9
:1044E000694600903046FDF731FF286840F400101F
:1044F0002860286800F400100590206840F400103F
:104500002060206820F40010206000220F211F206E
:10451000FEF714FB1F20FEF703FB00220F212020D3
:10452000FEF70CFB2020FEF7FBFA07B0F0BD000001
:1045300030380240946401200004024040380240B8
:1045400020380240000C0240FEB50D4606464FF4EE
:104550007A74DDE908018DE8130029463046FEF73C
:104560006BF8040003D029463046FFF71AFF2046B7
:10457000FEBDFEB50D4606464FF47A74DDE908012E
:104580008DE8130029463046FEF70CF9040003D0ED
:1045900029463046FFF705FF2046FEBD2DE9F843CA
:1045A000074613480E461349DDE908C81C46154660
:1045B00000234FF4403280E80E10FDF791FA0028F6
:1045C00014D10B483946FDF715FA00280ED10848DA
:1045D0002B46324641460094FDF752FB002805D198
:1045E000BDE8F84302480A21FDF7C4BABDE8F883E4
:1045F0002C68012000B002402DE9FE4F8146006882
:10460000882493468D888C2204EBCB178A46C36896
:104610009421BE46C459C3F30B432B4404F47044A5
:104620001F04019702EBCB1240F80E4001EBCB13B5
:10463000DAF800709C214FF0AC0C01EBCB1440F287
:10464000077102910CEBCB11D9F800C0982500201E
:10465000CDF800C0A02605EBCB15DCF80CC006EBAE
:10466000CB16CCF30B4C0CF1010C07EB0C08DDF86E
:1046700000C0019F48EA07084CF80E80D9F8007086
:10468000BAF80CC0B846FF68C7F30A0767444FEA98
:10469000074E58F8027007F4704C48F802C0D9F879
:1046A00000C0DAF80870DCF80C80C8F30A0808F1DA
:1046B0000108B84448EA0E084CF80280D9F80020F6
:1046C000D75827F00707D750D9F80070DAF810202C
:1046D000FA509AF831209AF818304FEA022C9AF8DA
:1046E0003220120442EA0362D9F800301F591851EF
:1046F0009AF8303043EA0C031343D9F800201351E1
:10470000D9F80020535923F0FF035351D9F8002062
:10471000DAF814305351D9F800209359029CA3437E
:104720009351D9F80030DAE9072422439A51D9F895
:10473000002053585050D9F80020DAF82400505087
:10474000DAF81000C8B301283AD004283AD0022879
:1047500038D0032836D0072834D00120D9F80030CB
:10476000B02505EBCB11B42284245D5802EBCB12AB
:1047700005F0E0255D50DAE9003504EBCB14EB1AC7
:10478000BAF8285043434543D9F80000DB1C43EAFC
:1047900005434350D9F8000081586FF30A01815056
:1047A000D9F80000DAF82C108150D9F8000001592E
:1047B00041F001010151BDE8FE8FFFE70420CDE784
:1047C0000320CBE70220C9E7FEE77047FDF7B2BD43
:1047D00070B50C46FC4905460020FCF7D5FFFA49A8
:1047E00003206B31FCF7D0FFF7490020891CFCF750
:1047F000CBFFF54902206231FCF7C6FFF2490020E9
:10480000891CFCF7C1FFF0490020091DFCF7BCFF23
:104810000A20FFF7DBFFEC490020891DFCF7B4FFFD
:10482000E94900200831FCF7AFFF0A20FFF7CEFF6F
:10483000E54900200A31FCF7A7FFE34900200C31CD
:10484000FCF7A2FFE04900200E31FCF79DFFDE4996
:1048500000201031FCF798FFDB4900201231FCF7F3
:1048600093FFD94900201431FCF78EFFD649002070
:10487000FCF78AFFD44900201631FCF785FFD249A6
:1048800000201831FCF780FFCF4900201A31FCF7D7
:104890007BFFCD4900201C31FCF776FFCA49002080
:1048A0001E31FCF771FFC84900202031FCF76CFF76
:1048B000C54900202231FCF767FFC349002024319D
:1048C000FCF762FFC04900201031FCF75DFFBE49D4
:1048D0000020FCF759FFBC4902206531FCF754FF6A
:1048E000B94900202631FCF74FFFB7490020283195
:1048F000FCF74AFFB44900202A31FCF745FFB249D2
:1049000000202C31FCF740FFAF4900202E31FCF78E
:104910003BFFAD4900203031FCF736FFAA490020AB
:104920001831FCF731FFA84900203231FCF72CFF89
:10493000A54900201C31FCF727FFA3490020343192
:10494000FCF722FFA04900203631FCF71DFF9E49ED
:1049500002206831FCF718FF9B490020891CFCF7F6
:1049600013FF994906207D31FCF70EFF9649002080
:104970003831FCF709FF94490E20A631FCF704FFFB
:10498000914900203A31FCF7FFFE8F490E20B531E6
:10499000FCF7FAFE8C4900203C31FCF7F5FE8A4911
:1049A0000A20C431FCF7F0FE874900203E31FCF7B5
:1049B000EBFE854900205A31FCF7E6FE82490020D3
:1049C000891CFCF7E1FE80490A20CF31FCF7DCFEB0
:1049D0007D4900204031FCF7D7FE7B490F20DA31BA
:1049E000FCF7D2FE784900203831FCF7CDFE76493D
:1049F0000F20EA31FCF7C8FE734900203A31FCF77A
:104A0000C3FE71490A20FA31FCF7BEFE6E49002050
:104A10003C31FCF7B9FE6D490F20FCF7B5FE6A4941
:104A200000203E31FCF7B0FE68490F201031FCF742
:104A3000ABFE654900204231FCF7A6FE63490A201F
:104A40002031FCF7A1FE604900204431FCF79CFEB8
:104A50005E490A202B31FCF797FE5B490020891C38
:104A6000FCF792FE59490A203631FCF78DFE564973
:104A700000204031FCF788FE54490F204131FCF7FB
:104A800083FE514900203831FCF77EFE4F490F204C
:104A90005131FCF779FE4C4900203A31FCF774FEA5
:104AA0004A490A206131FCF76FFE474900203C313A
:104AB000FCF76AFE45490F206C31FCF765FE424960
:104AC00000203E31FCF760FE40490F207C31FCF7AE
:104AD0005BFE3D4900201831FCF756FE3A490020A4
:104AE0005C31FCF751FE384900205E31FCF74CFE8A
:104AF000354900206031FCF747FE33490020FCF7C0
:104B000043FE314903206F31FCF73EFE2E49002061
:104B1000FCF73AFE2C490020FCF736FE2B4910200A
:104B20008139FCF731FE28490020FCF72DFE27498A
:104B300010207039FCF728FE234900204631FCF78D
:104B400023FE7820FFF742FE25B1022D07D11E4932
:104B5000483101E01C494A310020FCF715FE012CC8
:104B60000ED1194900204C31FCF70EFE16490420E5
:104B70007331FCF709FE144904207831FCF704FE78
:104B8000114900204E31FCF7FFFD0F490020503144
:104B9000FCF7FAFD0C4900205231FCF7F5FD0A49FB
:104BA00000205431FCF7F0FD074900205631FCF796
:104BB000EBFD05490020FCF7E7FD034900205831D3
:104BC000FCF7E2FD002070BD4E9E0008539F0008D8
:104BD000704730B585B00446372040220DF1080CEF
:104BE000CDE9001000236946150120468CE82C0011
:104BF00000F00CFB372141F28832204600F0C8F962
:104C000005B030BD30B50B4A85B0044629201143AC
:104C100040220DF1080CCDE9001000236946150172
:104C200020468CE82C0000F0F1FA204600F066FAED
:104C300005B030BD0000108030B585B004461020AE
:104C40000DF1080C8501CDE90010402269460023D2
:104C500020468CE82C0000F0D9FA102141F288326D
:104C6000204600F095F905B030BD30B585B004465A
:104C7000062040220DF1080CCDE900100023694602
:104C8000150120468CE82C0000F0C0FA062141F204
:104C90008832204600F07CF905B030BD30B585B0D3
:104CA0000546002469464FF4806000940194029404
:104CB000CDE90340284600F0A9FA0B4A4FF4FA5018
:104CC00041F288311268B2FBF0F04843401E03D233
:104CD0004FF0004005B030BD696B0906F6D540F2D3
:104CE000FF512046A963F5E7889A002070B5082196
:104CF000044685B04FF4D5704026CA018DE84300C4
:104D000000256946CDE90352204600F07FFA0F4A9C
:104D10004FF4FA5041F288311268B2FBF0F0484388
:104D2000401E02D24FF000450CE0616B11F0450FC0
:104D3000F6D0606B400701D5042502E0606B4006A9
:104D400000D5A66305B0284670BD0000889A0020F3
:104D500030B585B00446122040220DF1080CCDE993
:104D6000001000236946150120468CE82C0000F055
:104D70004DFA122141F28832204600F009F905B0BF
:104D800030BD30B585B00446112040220DF1080C2D
:104D9000CDE9001000236946150120468CE82C005F
:104DA00000F034FA112141F28832204600F0F0F888
:104DB00005B030BD30B585B0044640210DF1040C7E
:104DC0000720009200230D018CE82B006946204645
:104DD00000F01CFA072141F28832204600F0D8F892
:104DE00005B030BD10B586B0044600210220C022B7
:104DF00043020493CDE90010CDE902216946204623
:104E000000F004FA204600F051F906B010BD30B5AC
:104E100085B0044609200DF1080CC022CDE9001030
:104E2000002369464FF4806520468CE82C0000F092
:104E3000EDF9204600F03AF905B030BD10B586B066
:104E40000446002133204022CDE90221CDE90010A3
:104E5000130169462046049300F0D8F9332141F24A
:104E60008832204600F094F806B010BD30B585B009
:104E700004460D2040220DF1080CCDE9001000235E
:104E80006946150120468CE82C0000F0BFF90D2181
:104E900041F28832204600F07BF805B030BD30B5D5
:104EA00085B00C460021054603204022CDE90221B1
:104EB000CDE90010130169462846049300F0A6F9D5
:104EC00003212246284600F039F905B030BD000024
:104ED00010B586B0044600210C204022CDE9022105
:104EE000CDE90010130169462046049300F08EF9C5
:104EF000034A0C21204600F04BF806B010BD00001C
:104F000000E1F50530B585B00446192040220DF1C9
:104F1000080CCDE9001000236946150120468CE8F5
:104F20002C0000F073F9192141F28832204600F07C
:104F30002FF805B030BD30B585B0044618204022AA
:104F40000DF1080CCDE9001000236946150120463B
:104F50008CE82C0000F05AF9182141F288322046E2
:104F600000F016F805B030BD70B50A6842624A68B4
:104F70008262C46AD1E90225D1E9043624F0F7013E
:104F80002A4333431A431143C162002070BD00001D
:104F900010B5444C4FF4FA532468B4FBF3F3534375
:104FA0005B1E02D24FF0004010BD426B12F0450F65
:104FB000F6D0426B520703D504218163084610BD29
:104FC000426BD20702D00121816303E00269D2B2B1
:104FD0008A4201D0012010BD40F2FF5181630021BF
:104FE00000F0F2F83049084201D1002010BD00283D
:104FF00002DA4FF0007010BD410001D5402010BD15
:10500000810001D5802010BDC10002D54FF4807011
:1050100010BD010102D54FF4007010BD410102D551
:105020004FF4806010BDC10102D54FF4006010BD87
:10503000010202D54FF4805010BD410202D54FF459
:10504000005010BD810202D54FF4804010BDC10256
:1050500002D54FF4004010BD410302D54FF400309B
:1050600010BD810302D54FF4802010BDC10302D5CD
:105070004FF4002010BD010402D54FF4801010BD84
:10508000410402D54FF4001010BD810402D54FF445
:10509000800010BD000702D54FF4000010BD4FF492
:1050A000803010BD889A002008E0FFFD124B4FF4BD
:1050B000FA5141F288321B68B3FBF1F15143491EAA
:1050C00002D24FF000407047426B12F0450FF6D00D
:1050D000416B490703D50421816308467047416B42
:1050E000C90703D0012181630846704740F2FF5190
:1050F0008163002070470000889A00200E4B4FF417
:10510000FA5141F288321B68B3FBF1F15143491E59
:1051100002D24FF000407047426B12F0450FF6D0BC
:10512000416B490703D5042181630846704740F26B
:10513000FF51816300207047889A002030B51F4DD1
:105140004FF4FA5341F288342D68B5FBF3F363430F
:105150005B1E02D24FF0004030BD446B14F0450F8F
:10516000F6D0436B5B0703D504218163084630BD4D
:10517000436BDB0702D00121816303E00369DBB2EB
:105180008B4201D0012030BD40F2FF5181630021EC
:1051900000F01AF810F4604F04D0410406D54FF423
:1051A000005030BD000C1080002030BD000402D53E
:1051B0004FF4805030BD4FF4803030BD889A0020CD
:1051C000006800F003007047084408B514300090F0
:1051D000006808BD70B511434268049EDDE90554BE
:1051E000334347F6FF6619432943B24321430A4339
:1051F0004260002070BD10B5032101600120FDF761
:1052000099F8002010BDD0F88000704770B50A688A
:105210008260C468D1E90125D1E90336210B2A4314
:10522000334309031A431143C160002070BD09686C
:10523000C0F88010002070472DE9F04F89B00E466D
:105240000446FDF779F90027009701970821089097
:105250003D462068FFF7F0FC002839D1B4F8501023
:1052600020680904FFF7B5FC002831D130234FF046
:10527000010CCDF81CC04FF480184FF00809CDF890
:105280000880CDE903934FF0020ACDE905A7206815
:1052900002A9FFF769FE2068FFF7D0FD002817D1AB
:1052A000EB4640F22A472068416B394213D1416BEB
:1052B000890204D5FFF7A7FF4BF825006D1CFDF709
:1052C0003BF901460898081A4045ECD34FF00040DE
:1052D00009B0BDE8F08F416B090703D5C0F83890DD
:1052E0000820F5E7416B890703D5C0F838A00220F4
:1052F000EEE7416B890603D5202181630846E7E785
:1053000040F2FF518163009800BA7060019800BAC2
:1053100030600020DCE710B590B004460120ADF805
:1053200038002068FFF74CFF002864D0606C032829
:1053300042D02068FFF756FD00285AD1206800218E
:10534000FFF742FF606704212068FFF73DFFA06779
:1053500008212068FFF738FFE0670C212068FFF77D
:1053600033FF616CC4F88000032925D020680EA9A2
:10537000FFF795FD00283CD1606C03281CD0BDF8D8
:105380003810216520680904FFF741FD002830D15D
:1053900020680021FFF718FF606604212068FFF7EE
:1053A00013FFA06608212068FFF70EFFE0660C21BE
:1053B0002068FFF709FF206704212068FFF704FF3A
:1053C000000DE06403A92046FEF74EFBB4F8500040
:1053D000002302042068FFF7EDFC002809D104F146
:1053E000100007C88DE8070094E80F00FFF7F2FEF1
:1053F000002010B010BD4FF08060FAE72DE9F843AF
:105400000025044600950068FFF748FC00281BD1E2
:105410002068FFF76BFC4FF080784FF6FF76E0B125
:105420004FF08057A5640098B04200F10100009051
:105430001BD020680021FFF7CCFB20B92068002199
:10544000FFF7E0FB10B13846BDE8F8832068002183
:10545000FFF7BAFEC00FE6D020E00127A76400984E
:10546000B04200F10100009001D14046ECE7206815
:105470000021FFF7AEFB0028E6D120684FF0804105
:10548000FFF7C0FB0028DFD120680021FFF79CFE5A
:10549000C10FE4D0400001D5676400E065640020DE
:1054A000D2E71CB50446002000900021019020683E
:1054B000FFF78AFE800102D54FF400601CBD6946EB
:1054C0002046FFF7B9FE0028F8D10198C0030CD59B
:1054D000B4F8501020680904FFF77BFB0028EDD1D9
:1054E00020680021FFF7C1FB1CBD4FF080601CBD90
:1054F0001CB5044600200090002101902068FFF7B1
:1055000063FE800102D54FF400601CBD6946204651
:10551000FFF792FE0028F8D1019840030CD5B4F8AB
:10552000501020680904FFF754FB0028EDD12068D3
:105530000221FFF79AFB1CBD4FF080601CBD0000EC
:1055400010B5064C01202070FBF78CFE18B92078AE
:1055500020F001002070207810BD00000000002025
:10556000144830B589B0154600780124C00702D030
:10557000032009B030BD41B1012908D002290CD067
:10558000032911D004242046F3E70024FBE76846F2
:10559000FBF756FE069800240AE06846FBF750FE2B
:1055A000079800242880EEE76846FBF749FE079835
:1055B0002860E8E7000000202DE9F0411E4617466C
:1055C0000A4C01250A4B084632463946FBF744FF90
:1055D00028B109E0641E02D20120BDE8F081FBF78A
:1055E00035FE0028F6D100252846F6E7A086010002
:1055F00000E1F50510B5064C01202070FBF726FEF2
:1056000018B9207820F001002070207810BD00002B
:10561000000000202DE9F0411E4617460A4C0125E6
:105620000A4B084632463946FBF724FF28B109E009
:10563000641E02D20120BDE8F081FBF707FE0028BE
:10564000F6D100252846F6E7A086010000E1F50521
:105650007047FDF75DB90000104A30B51048146876
:1056600000210F4B44F470041460083305680D4AA0
:105670000D4C45F00105056019600368051D1340D8
:10568000074A03600C322C600568E305034C25F4DF
:1056900080250560803C1160236030BD88ED00E00E
:1056A00000380240FFFFF6FE10300024F0B5274B13
:1056B0004FF0804E264D02689842264E264F274CCA
:1056C00009D0704507D0A84205D0B04203D0B842F7
:1056D00001D0A04205D1D1F804C022F070024CEAFA
:1056E000020298421BD0704519D0A84217D0B04290
:1056F00015D0B84213D0A04211D0194DA8420ED0F7
:10570000184DA8420BD0184DA84208D0174DA842FA
:1057100005D0174DA84202D0164DA84203D1CD683E
:1057200022F440722A434D6922F080022A4302602B
:1057300098428A68C2620A68826201D0A04201D19E
:105740000969016301214161F0BD000000000140D1
:105750000004004000080040000C0040000401402C
:105760000040014000440140004801400018004052
:10577000001C0040002000400148FEF71BBE000056
:10578000946401203EB50124002202AB8DF808206C
:10579000CDE900340A46234601460348FEF7D4FE0D
:1057A0009DF808003EBD0000946401201CB5CDE9C1
:1057B00000230A46014602480123FEF7C5FE1CBD30
:1057C0009464012007B5012382B004AACDE9002327
:1057D0000A4601460248FEF7CCFE05B000BD0000B7
:1057E0009464012015484FF0804138B50160144998
:1057F0000A6842F001020A600968114A01F00101D9
:1058000000914C3200214B1E146824F08074146007
:10581000146844F0807414604160C0E90331816011
:105820004161FEF749FC18B10020FBF7A7FBFEE73A
:10583000BDE838400148FEF75BBC0000B89C002082
:1058400040380240FEE700000FB4084B10B504A931
:1058500002AA039800F0EEF8044602A9002000F026
:1058600080FC204610BC5DF814FB0000636100085A
:10587000090700284FEA116104DB00F1E02080F8FD
:105880000014704700F00F0000F1E02080F8141DB4
:10589000704702E008C8121F08C1002AFAD17047F9
:1058A0007047002001E001C1121F002AFBD17047A0
:1058B0002DE9FF5F82B00021DDE90430020DDDF843
:1058C00040B0034318D044F61050A2F2FF324243D6
:1058D0001514119801281FD0A5EB0B00401C5FEA9E
:1058E000000A4FF000064E4FDFF83891B0465046A0
:1058F00015D5CAF1000413E0119801244AA3012828
:1059000001D16FEA0B010298119AC0E90031C0E998
:10591000024206B0BDE8F09FCBF10000DFE704468D
:105920000021404A491842EB0450CDE9001012E032
:10593000E00707D032463B4640464946FAF7FEFDAF
:105940008046894632463B4610461946FAF7F6FD30
:1059500006460F466410002CEAD1DDE90401DDE9BA
:105960000023BAF1000F06DAFAF7E8FD42464B468B
:10597000FAF7E4FD05E0FAF753FE42464B46FAF724
:105980004FFE04460E460022284BFAF7D1FE03D8FC
:105990004FF0FF30014607E00022254B20463146FC
:1059A000FAF725FDFAF7ABFE102409E0002C0ADB1C
:1059B0000A220023FAF7EAFC039B30321A55641ED0
:1059C00050EA0102F2D1641C039AC4F11103144499
:1059D000119A012A03D0012208430DD10AE008439D
:1059E00004D000204FF0110B119072E7A3EB0B05D0
:1059F0006D1E0DE05B4504DD4FF0000205F1010571
:105A000004E003DA4FF00002A5F10105002AECD012
:105A100002981199C0E90231C0E9004579E7000018
:105A2000000014400000F03F300000000000F04390
:105A30000000E03F2DE9FF4F95B09B4689460646A2
:105A400000250FE2252877D100242746F84A0121B6
:105A5000059400E0044316F8013F203B01FA03F0EF
:105A60001042F7D130782A2811D06FF02F03307808
:105A7000A0F13002092A16D8059A44F0020402EB7C
:105A8000820203EB42021044761C0590EFE759F8BE
:105A9000042B0592002A03DA504244F40054059086
:105AA00044F00204761C30782E2816D116F8010F27
:105AB00044F004042A280DD06FF02F023078A0F1B2
:105AC0003003092B09D807EB870302EB4303C71800
:105AD000761CF3E759F8047B761C30786C280FD0DD
