:020000040800F2
:10000000606E0220DD010008EF5600082150000854
:10001000ED5600084D1600083D5B0008000000008A
:10002000000000000000000000000000535900081C
:100030002720000800000000F1560008555900086C
:10004000F7010008F7010008F7010008F7010008B0
:10005000F7010008F7010008F7010008F7010008A0
:10006000F7010008F7010008F7010008F701000890
:10007000F7010008F7010008F7010008F701000880
:10008000F7010008F7010008F7010008F701000870
:10009000F7010008F7010008F7010008F701000860
:1000A000F7010008F7010008F7010008F701000850
:1000B000F7010008F7010008F7010008F701000840
:1000C000F7010008F7010008F7010008F701000830
:1000D000F7010008F7010008F7010008F701000820
:1000E000F7010008F7010008F7010008F701000810
:1000F000F7010008F7010008F7010008F701000800
:10010000F7010008F5560008F7010008F70100089C
:10011000F7010008F7010008F7010008F7010008DF
:10012000F7010008291F0008F7010008351F000823
:10013000411F0008F7010008F7010008F701000857
:10014000F7010008F7010008F7010008F7010008AF
:10015000F70100084D1F0008591F0008F7010008AB
:10016000F7010008F7010008F7010008F70100088F
:10017000F7010008F7010008791E000800000000E0
:10018000F7010008F7010008F7010008F70100086F
:10019000F7010008F7010008F7010008F70100085F
:1001A00011550008F7010008851E0008F701000836
:1001B000F7010008F7010008F7010008F70100083F
:1001C000F7010008F7010008DFF80CD000F0B0FAE2
:1001D0000048004761770008606E022006488047AB
:1001E00006480047FEE7FEE7FEE7FEE7FEE7FEE71C
:1001F000FEE7FEE7FEE7FEE759590008C9010008DF
:100200002DE9F003002590F900C0A1F101092E4667
:1002100000F101045FEA99071FD000BF04F1010853
:1002200094F90000844518F9014BBCBF6E1C84464C
:10023000A445BCBFAE1CA44698F9000008F1010417
:10024000844514F9018BBCBFEE1C8446C445BCBF79
:100250002E1DC4462D1D7F1EE0D119F0030013D0C2
:10026000B0F1004F054615D20028C8BF00270BDDAE
:1002700094F90080E04502DDCE19C446361A641CAC
:100280006D1E07F10107F3D182F800C01E60BDE8C2
:10029000F003704714F9015BAC45BCBF0E1AAC46C5
:1002A000401EF7D1F0E710B5431A934209D28318E4
:1002B000881803E010F8011D03F8011D521EF9D241
:1002C00010BD40EA01039B0703D009E008C9121FD3
:1002D00008C0042AFAD203E011F8013B00F8013B00
:1002E000521EF9D210BDD2B201E000F8012B491E16
:1002F000FBD270470022F6E710B513460A460446C3
:100300001946FFF7F0FF204610BD00F0004230F024
:1003100000400AD0C10D01F56071C0F3160042EA39
:100320000151C20840071143704700200146704741
:1003300030B50B46014600202022012409E021FAB5
:1003400002F59D4205D303FA02F5491B04FA02F5B2
:100350002844151EA2F10102F1DC30BD2DE9F05F49
:100360000546002092469B46884606468146402424
:100370001BE0284641464746224600F0FAF953461C
:100380005A46C01A914110D311461846224600F031
:10039000E1F92D1A67EB01084F46224601200021A2
:1003A00000F0D8F917EB00094E41201EA4F101041A
:1003B000DFDC484631462A464346BDE8F09F2DE93A
:1003C000FE4F804681EA0300C00F0C46009021F0EA
:1003D000004123F00045B8EB0200A94105D2404698
:1003E000214690461C460B46024623F0004010432F
:1003F00047D0270DC7F30A00C3F30A510290401AF1
:10040000019040286BDAC3F3130040F4801B00987E
:10041000924620B10023D2EB030A63EB0B0B019849
:100420005946C0F14002504600F094F906460D4688
:1004300050465946019A00F0ACF910EB08006141B2
:10044000002487EA115284EAE7731A4340D0009AE5
:1004500062B3019A012A4FEA075215DC001B61EBD7
:1004600002014FF0004202EA0752CDE90042001CAF
:1004700041F5801132462B4600F0ACF903B0BDE8DF
:10048000F08F40462146F9E7001B61EB0201001C9A
:1004900041F5801300185B412018A2F5001747EBC7
:1004A000030140EAD570B6196D4111E06D084FEABD
:1004B000360645EAC0754FEA0752001B61EB0201A0
:1004C000001C41F5801149084FEA300000195141E4
:1004D00032462B4603B0BDE8F04F00F06CB90098EF
:1004E000012240000023D0EB020263EBE07300988E
:1004F00021464FEAE074B8EB000061EB0401E9E744
:1005000083F000435BE781F0004158E72DE9FE4F9F
:1005100081EA030404F0004421F0004100944FF00C
:10052000000B23F0004350EA01045ED052EA0304BA
:100530005BD0C3F30A54C1F30A552C44A4F2F3343C
:100540000194A0FB0254C1F3130141F48011C3F3E1
:10055000130343F4801301FB024400FB034E840A9F
:10056000970A44EA815447EA8357A4FB0768029537
:100570008D0A05FB07854FEA932C04FB0C542705D5
:10058000029D4FEA065847EA1637B5EB08056EEBB1
:10059000070C870E920E47EA811742EA8312A7FBE7
:1005A0000201B6EB0B0164EB00042B0D43EA0C33A4
:1005B0005E1844EB1C50DA465146E7FB0201C5F3D6
:1005C00013044FEA0B3343EA14534FEA0432019CFD
:1005D00043EA0603A4F10C040294009CCDE900B4A4
:1005E00000F0F8F803B0BDE8F08F00200146F9E70D
:1005F0002DE9F04D81EA030404F0004B21F00045A1
:1006000014464FF0000A23F0004150EA050220D0C2
:1006100054EA01021DD0C5F30A570246C5F313037D
:10062000C1F31300C1F30A5640F4801543F480135C
:10063000A7EB0608101BD64608F2FD3873EB050041
:1006400002D308F1010801E092185B41B8F1000FF4
:1006500003DA00200146BDE8F08D00204FF4801140
:10066000064684460EE0171B73EB050705D3121BE5
:1006700063EB050306434CEA010C49084FEA3000DE
:1006800092185B4150EA0107EDD152EA030012D003
:1006900082EA040083EA0501084305D0101BAB4140
:1006A00006D20122002306E000224FF0004302E0C0
:1006B0006FF0010253101AEB06004CEB085110EBDF
:1006C0000A0041EB0B01BDE8F04D00F074B8C1F336
:1006D0000A52C1F3130140F2FF3341F480119A42F0
:1006E00002DA00200146704740F233439A42A2F2F8
:1006F000334202DC524200F03CB800F02BB800005C
:1007000030B5041E71F1000404DB4FF00044404298
:1007100064EB0101141E73F1000405DB1C464FF06D
:100720000043524263EB0403994208BF904230BD3C
:10073000064C074D06E0E06840F0010394E807002E
:1007400098471034AC42F6D3FFF742FDE898000812
:1007500018990008202A04DB203A00FA02F1002050
:1007600070479140C2F1200320FA03F319439040EF
:100770007047202A04DB203A21FA02F0002170475A
:1007800021FA02F3D040C2F12002914008431946F9
:100790007047202A06DBCB17203A41FA02F043EAE1
:1007A000E07306E041FA02F3D040C2F1200291402A
:1007B00008431946704710B5141E73F1000408DA97
:1007C000401C41F1000192185B411A4301D120F015
:1007D000010010BD2DE9F04D92469B4611B1B1FAD2
:1007E00081F202E0B0FA80F220329046FFF7B2FFC9
:1007F00004460F4640EA0A0041EA0B0153465A46B6
:10080000084313D0114653EA010019D0C8F1400241
:100810005046FFF7AEFF05460E4650465946424643
:10082000FFF798FF084305D0012004E02046394631
:10083000BDE8F08D0020054346EAE0762C433743BF
:100840000A986305E40AA0EB08000022FD0A44EAC6
:1008500047540A3002D500200146E9E70105101986
:100860006941DDE9084500196941BDE8F04DA2E79D
:1008700070B58D1810F8014B14F0030201D110F877
:10088000012B231106D110F8013B03E010F8016B96
:1008900001F8016B521EF9D1ABB110F8012B04F035
:1008A0000C048A1A0C2C03D0A2EB84129B1C08E0C7
:1008B00010F8014BA2EB0422F8E712F8014B01F803
:1008C000014B5B1EF9D5A942D4D3002070BD0000B6
:1008D00070B54FF49635284606F094FF194CA06485
:1008E00068B3284606F08EFFE06440B3284606F061
:1008F00089FF206618B34FF4804006F083FF6066DE
:10090000E8B14FF4806006F07DFFA066B8B12846DC
:1009100006F078FF206590B1284606F073FF606509
:1009200068B1284606F06EFFA06540B10648B7EEF4
:10093000000A80ED030A80ED040A002070BD01204A
:1009400070BD000008000120249C012010B5044661
:100950000548406801F0A0FC22460346BDE810406F
:100960000248002101F0C2BDA09A01208C6902203A
:1009700070477047F8B5204D064600201F4B802178
:1009800020226861286168602B60A861C5E90221A6
:1009900000F056F9602007F069F8962801D004208D
:1009A000F8BD174C6020174921600021A060124853
:1009B00000F06EF8284601F037FD2168022E2089EC
:1009C00080B20A6807D031469047284601F0A6FC5D
:1009D00000206660F8BD0321904740F20F1040F2FE
:1009E000BF33682200905021284601F06BFC284656
:1009F00001F0ACFCECE700008C690220000005501F
:100A0000A09A0120AC9A012070B500F0F1FA0546D9
:100A100000F0FEFA1C4CE16800292DD0A169226C7F
:100A200091422AD2A169814223D2E26B174EAA4297
:100A30000ED2D4E904013044A1F1804101F036F82E
:100A40006169206EE26B00EB81012069304405E0B2
:100A5000D4E904012A463044A1F1804101F026F88E
:100A6000E16B206900EB41002061606900EB8500CB
:100A70006061A069401CA06170BD002020616061C0
:100A80000121A061616370BD0800012000F807C06A
:100A90002DE9F0418046504886B0016841F00101DF
:100AA0000160006800F0010005904B48001F0168DC
:100AB00041F480010160016801F480010591016841
:100AC00041F001010160016801F001010591016837
:100AD00041F008010160016801F008010591016819
:100AE00041F010010160016801F0100105910168F9
:100AF00041F040010160016801F040010591016889
:100B000041F080010160006802250126694600F07D
:100B10008000059050200D278DE8610003242F48A8
:100B2000CDE9034702F04EFE082069468DE86100DA
:100B30002B48CDE9034702F045FE602069468DE869
:100B400061002848CDE9034702F03CFE28026946CF
:100B50008DE861002448CDE9034702F033FE4FF4ED
:100B6000BC4069468DE861002048CDE9034702F0AA
:100B700029FE1F482B0600215E13DF134360DA12A3
:100B80008160C1609311C0E90476C0E90914C162B3
:100B9000D500184E01630F2140F8186B80E82C0037
:100BA0001838C8F848000022C0F838804E2003F0FA
:100BB00049FA4E2003F039FA00220F21392003F0C0
:100BC00041FA392003F031FAD8F8480002F042FD2A
:100BD00006B0BDE8F0810000343802400000024059
:100BE000000C02400010024000180240001C0240AD
:100BF0002C690220286402400F4830B587B0016894
:100C000041F080010160006801AB00210B4D00F054
:100C100080000590012003224FF40054009483E8E3
:100C200007006946284602F0CDFD012221462846EC
:100C300002F0B8FE07B030BD30380240001C024060
:100C4000114830B587B0016841F08001016000684B
:100C500001AB00210D4D00F0800005900120032222
:100C60004FF40054009483E807006946284602F0D8
:100C7000A9FD00222146284602F094FE032002F03E
:100C800096FD07B030BD000030380240001C024025
:100C900010B50548012401F087FC00B90024FFF7D6
:100CA000ABFF204610BD00008C6902207047000099
:100CB0001CB5044600F0ACF9034600F099F9024671
:100CC0000020CDE900040648064C006800EB8001D6
:100CD00001EBC00104EB8101C96D04F0D9FB1CBD1F
:100CE000949A01202C6802200648C02330B40824BE
:100CF0000522046061034361C261C16230BC03F03C
:100D000009BA0000C49A0120014801F0E9BC0000C2
:100D1000889B012030B40A4C0A4B246804EB44043D
:100D200003EB84039B689C881D68E41DDB88E40852
:100D3000203A14FB02F203FB025230BC01F0B4B9BA
:100D4000949A012014690220094810B5006881694D
:100D500041F00101816101220648110302F022FEE7
:100D600001220548BDE81040082102F01BBE00002A
:100D70002C68022000200240002802402DE9F047A4
:100D8000002704461546894610463A4600E0521CA4
:100D900010F8011B0029FAD100F02AF9DFF89CC0F5
:100DA000012B274EDCF8001001EB410106EB81011D
:100DB00089688988B0FBF1F002D0022B09D104E0E8
:100DC000801A484304EB500002E0801A4843001B9D
:100DD00084B247F6FF71601E884200D30124E046CA
:100DE00000F006F90146D8F8000000EB400006EBE1
:100DF00080008068808807FB101189B2814213D37C
:100E0000012012E049462046FFF784FFD8F8000091
:100E10007F1CBFB26D1C00EB400006EB80008068B9
:100E20008088204484B2DBE700202A780AB10121BF
:100E300000E000210842E5D1BDE8F087949A012046
:100E4000146902207CB51C4B06460D461B4C1868E5
:100E500000EB800101EBC00004EB8000806C0228F5
:100E60001BD000F0C5F8196800FB056001EB810597
:100E700005EBC10104EB8101C96D01EB800118682C
:100E80000E4D0024E83500EB400355F82330CDE942
:100E90000043012304F0FCFA7CBD00F0A9F81968B6
:100EA00000FB056001EB810505EBC10104EB81014D
:100EB000C96D01EB4001E2E7949A01202C68022001
:100EC000194B70B506460D461868184C00EB8001AA
:100ED00001EBC00004EB8000016EB14213D3416E00
:100EE000A94210D3806C02280ED000F081F8196856
:100EF00005FB006001EB810303EBC10104EB810101
:100F0000C96D41F8202070BD00F072F8196805FB2A
:100F1000006001EB810303EBC10104EB8101C96DAA
:100F200021F8102070BD0000949A01202C68022046
:100F30002DE9F0411C4616460D460746FFF782FF95
:100F40002819324681B23846FFF77CFF22462946EF
:100F5000384600F009F8B81922462946BDE8F041A4
:100F600080B200F001B800007CB51F4C05460B466E
:100F70001E4E206800EB800101EBC00006EB8000F4
:100F8000806C022821D000F033F8216800FB035068
:100F900001EB810303EBC10106EB8101C96D01EB9C
:100FA000800500BF00F024F82468401E0F4BE83392
:100FB00004EB440153F8211013460122CDE900014E
:100FC0002946204604F064FA7CBD00F011F821683F
:100FD00000FB035001EB810303EBC10106EB810130
:100FE000C96D01EB4005DDE7949A01202C680220D1
:100FF0000548006800EB800101EBC000034901EBEC
:101000008000006E70470000949A01202C68022036
:101010000548006800EB800101EBC000034901EBCB
:101020008000406E70470000949A01202C680220D6
:101030002DE9F041244C2820092140F21B1604F12F
:10104000140840F21525352240F21D1C0B2340F2F6
:10105000352788E8EF1000212046FFF745FE4FF4C2
:10106000F07222664FF488716166002084F83400C3
:1010700084F8350084F836006060A060134AE060B0
:1010800022602061204602F0D7FE18B900212046D8
:1010900000F060F80C4802F021FF0B48002102F03C
:1010A000A7FF01220A48110302F07CFC0948012233
:1010B000082102F077FC00F071F9074800F0FAF817
:1010C0000020BDE8F08100002C680220006801408B
:1010D0000020024000280240989A012030B58DB0CF
:1010E0000A46002304460093FFF782FFCDE901037F
:1010F000FFF78EFFFF21039007208DF83030099213
:101100004FF4C0658DF83130CDE9043106938DF888
:101110003230CDE90750FFF76BFF0A90FFF778FFF9
:101120000B9022460948694602F05CFE074904EB31
:1011300044004FF0FF34E83101EB80022306546095
:10114000034C946041F820300DB030BD2C68022073
:10115000989A01204748F0B5016887B041F0806156
:101160000160006800F08060059042481438016812
:1011700041F400010160016801F40001059101687A
:1011800041F010010160016801F010010591016852
:1011900041F040010160016801F0400105910168E2
:1011A00041F480710160016801F48071059101686A
:1011B00041F400710160016801F40071059101685A
:1011C00041F480610160016801F48061059101686A
:1011D00041F480710160016801F48071059101683A
:1011E00041F480610160006802240E2500F48060F3
:1011F00005901020CDE9000402A8002180E832000B
:101200001D48694602F0DEFAE602694609200490AC
:101210001A48CDE9006402F0D5FA194F4FF467403F
:10122000CDE9000469463846049502F0CBFA4EF643
:10123000FF706946CDE900041248049502F0C2FA35
:101240000495F720104D6946CDE90004284602F0C8
:10125000B9FA012469463846CDE9006402F0B2FAD1
:1012600008206946CDE90004284602F0ABFA07B031
:10127000F0BD000044380240001002400018024057
:10128000002002400024024000280240014908607A
:1012900070470000949A01200449054A096801EB4F
:1012A000410102EB8101486070470000949A0120DF
:1012B000146902200449054A096801EB410102EB67
:1012C0008101886070470000949A0120146902200F
:1012D000094A8423012903EBC01011680B5808D078
:1012E00023F001030B501068416A41F00101416293
:1012F000704743F00103F5E72C6802200349044AD4
:10130000096801EB410142F821007047949A0120DD
:101310001469022030B5002887B01BD10F490E4D4B
:10132000086840F480700860086803220C4C00F4E0
:101330008070059001202168CDE90010CDE90202FE
:101340006946284602F03EFA2088002281B22846EB
:1013500002F028FB07B030BD0020024030380240C8
:10136000907A0008002806D1044901220248098821
:1013700089B202F017BB704700200240907A000843
:10138000002805D104490348098889B202F006BB48
:101390007047000000200240907A00081B4802229B
:1013A0002DE9F04100F13401174E072306600425B2
:1013B00081E82C00CB6000240A61D7014A61102328
:1013C0008A61910244604026C0E902454A00C0E9B2
:1013D0000741C0E909241030002180E8C800103816
:1013E00000F05EF809490948343103F099FC084DD2
:1013F00010B10120287000E02C7040F2036000F072
:1014000009F82878BDE8F081400100A04867022073
:10141000859A01202DE9F843204C102700254FF62E
:10142000FF780126009521468146C4E90067C4E99A
:101430000265A1F15000424603F0A6FC012002F033
:10144000B6F902202146C4E90007C4E90265A1F10A
:101450005000424603F098FC03214246C4E90017BD
:1014600008202146C4E90205A1F1500003F08CFCDC
:101470004FF40870009004214246C4E90260C4E9B8
:1014800000172146A1F1500003F07EFCA4F15000AA
:101490004946BDE8F84303F065BC000098670220A8
:1014A000F0B504464F4887B0016841F00101016082
:1014B00000684C4900F0010005900839086840F4C4
:1014C00080000860086800F480000590086840F01B
:1014D00004000860086800F004000590086840F007
:1014E00008000860086800F008000590086840F0EF
:1014F00010000860086800F010000590086840F0CF
:1015000020000860086800F020000590086840F09E
:1015100040000860086800F040000590086840F04E
:1015200080000860086801210C2200F0800005900E
:101530000220CDE9010108230093CDE903022A48E6
:10154000694602F03FF94CF2037000902748694663
:1015500002F038F94FF6837000902548694602F092
:1015600031F94FF63F0000902248694602F02AF90F
:1015700048F2331000902048694602F023F92820F1
:1015800000901E48694602F01DF91D494FF4007590
:1015900000224FF0800CEE006F004A606801C1E944
:1015A00002C5C1E904761831164EC300032581E84F
:1015B0000D00C1E903254A618A6141F8186D216374
:1015C0000F488C6301F047FF0D4802F043F80022FA
:1015D0000F21382002F036FD382002F026FD07B03A
:1015E000F0BD00003838024000080240000C024004
:1015F000001002400014024000180240001C02408B
:1016000088660220106402407047704770470000EF
:1016100070B50C4C00260C4D60807020A1802968AC
:101620008847696870208847512802D003263046D1
:1016300070BDA5607020607008212170E96888473E
:10164000F5E70000889A0120589A0120FEE702F091
:10165000AEB80000014803F037BE0000106202205F
:101660003EB50124002202AB8DF80820CDE90034FC
:101670000A4623460146034803F0E0FE9DF80800B1
:101680003EBD00001062022007B5012382B004AA0B
:10169000CDE900230A460146024803F0E4FE05B006
:1016A00000BD0000106202203B484FF0000C2DE905
:1016B000F043011D394A0B1D394C1D1DC1F800C0F6
:1016C00005261A602C600660BFF34F8FBFF36F8F43
:1016D0003448C0F800C0BFF34F8FBFF36F8F2E495F
:1016E00080390A6842F480220A60BFF34F8FBFF34B
:1016F0004F8FBFF36F8FC0F800C0BFF34F8FBFF3A2
:101700006F8F086840F400300860BFF34F8FBFF35D
:101710006F8FDFF88490A9F11009C9F800C0BFF3FA
:101720004F8FA9F104081F4A43F6FF731032D8F80F
:101730000000C0F34E34C0F3C90603EA4417304634
:1017400047EA80751560401EFAD2641EF5D2BFF3D9
:101750004F8FBFF36F8FC9F800C0BFF34F8FD8F81A
:101760000000C0F34E34C0F3C90503EA441628460E
:1017700046EA80771760401EFAD2641EF5D2BFF3A6
:101780004F8F086840F480300860BFF34F8FBFF37D
:101790006F8FBDE8F083000094ED00E010000120A1
:1017A0003D00020350EF00E0F8B5B0F5207F17468A
:1017B0000D4606464FF0010024D8B5F5F07F21D83C
:1017C000114802230024114900F1040C4FF4403267
:1017D0008CE81C000E4A02610E4A4261016001F071
:1017E0000DF80D4C10B1E06A401CE0620B4A334624
:1017F00005483946009501F0E5F810B1E06A401C53
:10180000E0620020F8BD0000889B012000B002408B
:10181000211800082D1800080800012000F807C052
:10182000014901204860704708000120014901205A
:10183000886070470800012070B51D4CF02001251C
:101840004FF0FF164FF4A0716564C4E90F102846ED
:10185000FFF790F808B1012070BD0020206103213E
:1018600060610722A0610223E56104F1200C8CE88D
:101870000E006060A0604FF4F0714FF420703246AB
:10188000FFF792FF10B1E06A401CE062606810B997
:10189000A0680028FAD06068012802D0E06A401CE5
:1018A000E0620448FFF752F8E560002070BD0000D8
:1018B0000800012000F807C02DE9FC41534C54A05A
:1018C00056A159A25AA35BA55CA65DA70FF2781C8E
:1018D0000FF27C1E04F1040820605FA0606288E8BB
:1018E000EE504FF0FF352846FFF7E2F95C48FFF76E
:1018F000E1FC5C48FFF702FD2846FFF7CDFCFFF74F
:1019000087FB85B2FFF774FB80B22946FFF780FEA4
:10191000002878D1FFF790FFC0B2012873D0FEF7FE
:10192000D7FF10F0FF0F6ED14F4D504E686B00285F
:10193000FCD00128FAD131680020496A6863E96760
:101940002863FFF7A5F900F0EBF84948016849075B
:10195000FCD54FF0FF20FFF7D1FC802338211A4639
:101960006020FFF7E5FA4FF07F40FFF7C7FC00F07B
:101970005BFB00F0FFF800F077FB24492831A1F66B
:10198000284005F0EBFC384B0A212048364A7833D2
:101990002830FEF735FC306833491C4A8031406AF4
:1019A000B432DFED340A0860EB6FC01A486000EE15
:1019B000100AB8EE400A20EE200A82ED000A10EE6E
:1019C000100AFEF7A2FCCDE90001A86F2AA195F943
:1019D000003054F820200D48323004F0B1F80323D1
:1019E000F5210A2029A2FFF7C9F9084A0323F521A6
:1019F00032320A20FFF7C2F9FFF71EFF012001F083
:101A0000D6FE93E7FFE7BDE8FC81000070A8012047
:101A1000616972706C616E65000000006175746FC1
:101A20006D6F62696C65000062697264000000009D
:101A3000636174006465657200000000646F670094
:101A400066726F6700000000686F727365000000C7
:101A50007368697000000000747275636B000000A9
:101A6000989A0120FF0000FF08000120489B0120F8
:101A70004868014077CCAB31202573205B25645D3D
:101A800020746D3A25322E3366000000202020207D
:101A90002020202020202020202020202020202046
:101AA0002020202020202020202020002DE9F84385
:101AB0008046184814460D460022174FFF234FF466
:101AC0008031C0E901120226C260C0E90C23076020
:101AD000C0E90A2600F092FE002819D10D48012124
:101AE00000F0A2FD002813D10120009009482346F0
:101AF0002A46414600F04CFF002809D105480A213A
:101B000000F0C0FE002803D00448C16A491CC1622D
:101B1000BDE8F883889B012000B002400800012046
:101B20002DE9F0471248602700254FF038094FF0A3
:101B300040418046C0F85C105FF0000405EB0906E8
:101B4000FFF756FAE319D8F85CC006FB0030D8F866
:101B5000641004EBC512641C802C5CF8200041F872
:101B60002200EDD36D1C802DE6D3BDE8F087000088
:101B7000080001202DE9F04F94489BB04FF0000978
:101B8000CA46816E0591406E4FEACA1101F5C072D6
:101B900007920023803A089280310A910A9903EB58
:101BA000CA12CC1850F8225000EB82010D95089A09
:101BB000C5F307464D680F951A44C5F307453544EC
:101BC0008E680C96C968C6F307460E9150F82470CB
:101BD000C1F307410B970E4400EB8401AC19C7F326
:101BE00007474D68274412958D681195129DCC6862
:101BF00000EB82011394C5F30746119D50F8224073
:101C00001094BC19C5F30745079A2544139C1A4440
:101C1000C4F307464C6816943544109CC4F3074639
:101C20008C6815943544CC6800EB8201179450F809
:101C300022400994169CD1F804E0D1F808B0C4F30E
:101C40000744C9682544159C1A91C4F30746179C9C
:101C5000AA19C4F30747099CD119C4F307450D44D9
:101C6000CEF307441A992C44CBF307422244C1F324
:101C700007411144C1F30B1CBCF1FF0F01D94FF018
:101C8000FF0C0D991A9FCEF30725CBF30726C1F35E
:101C900007220F99C7F307270CF0FF0CCDF850C0AF
:101CA000C1F307210A440C99C1F307240E99C1F32B
:101CB00007212144179C0A440B99C4F30728099C67
:101CC000C1F307210A441299C4F30724C1F3072181
:101CD0000A441199C1F307210A441399C1F307215A
:101CE0000A441099C1F307210A441699C1F3072148
:101CF0001144159AC2F30722114401EB080202991C
:101D000022442A4432443A446CF31741C2F30B1282
:101D1000FF2A00D9FF220D9CE5B20F9CE4B22544B6
:101D20000C9CE6B20E9CE4B2344425440B9CE4B215
:101D30002544129CE4B22544119CE4B22544139C32
:101D4000E4B22544109CE4B22544169CE4B2254438
:101D5000159CE6B2179C2E44E7B2099C374404F068
:101D6000FF0C1A9C0EF0FF0567442F440BF0FF0692
:101D7000D5B2BA19E4B2224465F30F21C2F30B12B3
:101D8000FF2A00D9FF22059FFF26114C62F30701AD
:101D90001B1D66F31F61029104EB090647F8291029
:101DA0001499802B04F8091086F8005409F10109F0
:101DB00086F80028FFF4F2AE0AF1040ABAF1800FA7
:101DC000FFF4E2AE1BB0BDE8F08F00000800012078
:101DD000709C012010B5806B816C496D022906D082
:101DE000012180F83510C16C41F04001C16400F060
:101DF000C5FA10BD10B5816B0C468A6B886C016802
:101E0000CAB10A68A36B02F40022DB0706D12AB12B
:101E1000C968E26B01EBC201002207E00A68120305
:101E200019D40969E26B01EBC201012200F0E9FD5E
:101E3000A06B401E0EE00868000302D5606CC8600D
:101E400009E00868000306D4E26B606C00EB8200D6
:101E50000861206CA063A06B216C88420BD12068C4
:101E6000C16841F00101C16020680068800702D5A7
:101E7000012084F8350010BD014800F087BA000049
:101E80008C690220FEF740BFF0B50468254E059D21
:101E900096FAA6F7666CB7FA87F7BB402B4306F0B5
:101EA00040451D4365640368DA634268B2F5403F0C
:101EB00002D00068C160F0BD01F47F42856801F482
:101EC0007F04224301F07F4301F47F0701F47F4642
:101ED000CCB2BDB1012D16D001F47F02C1F3C40113
:101EE000D20C022D11D0032D14D0320B390D150157
:101EF0001A0F45EA0123210943EA02320A43006826
:101F00008263F0BD1A432243F9E7B30A5B0143EA57
:101F1000C222F3E7F40ADB0F640144EA822242EAB8
:101F2000C332EBE70000FF3F0148806C01F0BEBA0E
:101F30008C6902200148C06B01F0B8BADC63022052
:101F40000148C06E01F0B2BA606402200148006C22
:101F500001F0ACBADC6302200148006F01F0A6BAC0
:101F6000E464022001681823CAB2103AB2FBF3F20B
:101F7000054B6FF30901032A9B5CC36500D9091D5A
:101F80008165084670470000807A000810B58369B3
:101F90004FF0C074826A0146002053B1B3F5005F70
:101FA00015D072B1012A0CD0022A0AD0032A09D115
:101FB00004E01AB1012A06D0022A03D1C96AC90174
:101FC00000D5012010BDC96AA142FAD010BD002A77
:101FD000F7D0012AF2D0022AF3D0032AF3D010BDA1
:101FE00010B5046863608368402B036803D0996070
:101FF0000068C26010BD9A600068C16010BD30B555
:102000000468256825F4802525600468636083687A
:10201000402B036803D099600068C26030BD9A60AD
:102020000068C16030BD70472DE9F0410D4E0025BC
:102030004FF04040F0650024FEF7DAFF04F5A07190
:10204000736E05FB0010F76D04EBC512641C802C49
:1020500053F8221047F82010EED36D1C802DEAD3E0
:10206000BDE8F081080001202DE9F0410D4E00256A
:102070004FF04040F0650024FEF7BAFF04F5E07130
:10208000B36E05FB0010F76D04EB4512641C202CA9
:1020900053F8221047F82010EED36D1C202DEAD300
:1020A000BDE8F081080001202DE9F74F29480026FE
:1020B000DFF89CA0006800EB40000AEB800080681D
:1020C0008588C788E81D834620F00700401B00F084
:1020D000FF0939E04FEADB010298012901FB060004
:1020E00009D0022909D0017842788378080440EAAF
:1020F0000220184303E0007801E0008840BA002481
:1021000080461AE02A1B02EB09010120491E884083
:1021100010EA080F009800EB04020E48016890B224
:1021200001EB410202D05AF8222002E00AEB8201C0
:102130004A680199FEF7C4FE641CAC42E2D30198E0
:10214000401C80B20190761CBE42C3D3BDE8FE8F16
:1021500014690220949A0120F0B5D1E90125D1E952
:102160000343D1E905762A43D1F800C044EA0304C9
:10217000D1E9073542EA0402496A42EA0702BCF1A2
:10218000010F42EA060208D004681A432A430A43B0
:10219000E30BDB031A4302600BE0066844682B4341
:1021A00026F4F84529430B4303606FF30E042243E2
:1021B00042600020F0BD426942EA410141610020D5
:1021C0007047F8B505461446D1E90003D1E902216C
:1021D0006FF01F06184306EB421242EA4121084302
:1021E0000090286101F0E4FB064609E0601C07D07E
:1021F00024B101F0DDFB801BA04201D90320F8BD12
:10220000A8698006F2D40020F8BD00002DE9F04353
:10221000914691E81C006FF00F05521E2E0105EB50
:1022200003131A430B7E06EB04268C8A2F034FEA16
:10223000054C0D8A32434FF07F4808EB0366CB68AC
:10224000B9F1010F07EB05450CEB04540CD0816884
:102250003F1107EB03331A432A432243324301F071
:1022600070410A43826011E08168DFF828C0C768C6
:102270001B03A3F5805323432A4301EA0C01324395
:102280000B43836007F070442243C2600020BDE826
:10229000F0830000FF0F0FFF01004FF0000008D097
:1022A000012909D002290AD0032901D14FF416309F
:1022B00070474FF4165070474FF4164070474FF474
:1022C0007F407047F0B590F83450059C012D1FD029
:1022D000104E012580F83450022780F8357096FAA8
:1022E000A6FC0D4EBCFA8CF796FAA6FCBC4050F842
:1022F000347BBCFA8CFC00261C4302FA0CF27C6294
:102300000A4350F8343C1A62457006703046F0BDFE
:102310000220F0BD0000FF3F0000FF1F10B590F845
:102320003410012910D0012180F83410022280F8E5
:10233000352050F8342B0023146824F00404146072
:1023400041700370184610BD022010BD10B590F802
:102350003410012910D0012180F83410022280F8B5
:10236000352050F8342B0023146844F00404146022
:1023700041700370184610BD022010BD10B5FEF765
:10238000F7FA10BD10B5FEF7F4FA10BD2DE9F041D3
:1023900004460068234F0426056969070BD546618A
:1023A000E06C40F00200E06484F83560A06C0765E2
:1023B000A06C01F03EF8A8070DD521680220486105
:1023C000E06C40F00100E06484F83560A06C0765C3
:1023D000A06C01F02EF8E80605D5216810204861B0
:1023E000204600F07DF8280705D5216808204861BF
:1023F000204600F013F9E80712D020680168890729
:1024000003D5C16821F01E01C16020680121C268A6
:1024100022F00102C260206841612046FFF7B2FF4E
:10242000BDE8F081D51D00082DE9F041040003D07E
:1024300094F8350018B105E00120BDE8F081204690
:1024400000F052F8022084F835002068234A016821
:1024500011400160D4E90453E168D4E90102294341
:102460001843A36908431043D4E9081518430843E7
:102470002168D4E90A322843256B18430B681043BE
:10248000284318430860606810281BD14FF47F4030
:10249000637FA17F0502020490FAA0F095FAA5F7E8
:1024A000B0FA80F5207F92FAA2F6E27FAB40B7FA4D
:1024B00087F72568B6FA86F6B940B240184311434B
:1024C0000843A861206800220121C36843F01E036D
:1024D000C360E26484F835101046AEE707F0E0FF11
:1024E00010B5FEF791FA10BD70470000F8B504462C
:1024F00090F83400012829D0012084F83400022506
:1025000084F8355025682E6846F480462E6025688C
:102510002E6826F002062E6025682E680E432E6077
:10252000A66C00251E491F4FF1630604D4F848C06D
:10253000B342CCF84C70A76C3D65A563256407D207
:102540002168A06C283101F0F5F81FE00220F8BDE9
:10255000A76C7964A063E363626405E0E06B400804
:10256000E063A06B4000A063E06BB042F6D2A06BCA
:10257000801EA063A16BE36BE06B2164009002EB13
:1025800083032168A06C283100F042FA20680168BA
:1025900041F001010160002084F83450F8BD0000D2
:1025A000F51D0008D51D00081B4B4FF4FA5170B5FE
:1025B000CA1004461B68002590F83400B3FBF1F103
:1025C000012801FB02F125D0012684F834600220A5
:1025D00084F835002068026822F001020260206859
:1025E000491E05D2E16C032541F02001E16402E0BF
:1025F0000268D207F4D1016821F480410160A06C27
:10260000343400F0CDFEA1690020A1616670207015
:10261000284670BD022070BDB89A012010B5FEF7A3
:1026200045FB10BD70470000F0B590F8384000EB56
:1026300001121832012C4FF440332BD0012680F8C0
:102640003860022480F8394093FAA3F7234CD2E98A
:102650000135B7FA87F7BD401D430A2B1CD0092B63
:102660001AD04FF07F47D36897FAA7F7B7FA87F7E2
:10267000BB402B430029016812D0CD69A5431D43FF
:10268000CD61016813680B6151680A291AD00929C4
:1026900018D01CE00220F0BDD36803F07F43E8E7C8
:1026A0004D6AA5431D434D62016813688B615168F3
:1026B0000A2901D009290AD1D168026821F07F4195
:1026C000916204E0D168026821F07F41116200212B
:1026D00080F8396080F838100846F0BD0F0003FF1D
:1026E0002DE9F0470446006800274FF004084FF03A
:1026F000010946680568F10714D0E90512D5036899
:1027000023F480730360E06B40F00100E063206815
:10271000C0F8089084F8398084F83870616909B18C
:1027200020468847B00615D5A80413D52068202276
:10273000036823F40053036020688260E06B40F07C
:102740000200E06384F8398084F83870616909B167
:1027500020468847300715D5280513D5206808225C
:10276000036823F40063036020688260E06B40F03C
:102770000400E06384F8398084F83870616909B135
:102780002046884770070CD568050AD5206802687E
:1027900022F4806202602068C0F80880204600F0C1
:1027A0005AF8B00713D5A80511D52068022203688E
:1027B00023F40073036020688260E06BE06384F8B8
:1027C000399084F83870216909B120468847F006AD
:1027D00012D5E80410D52068016821F48051016009
:1027E000226810219160E16BE16384F83990204602
:1027F00084F83870FFF716FFBDE8F08770B5040065
:1028000004D094F83900002510B106E0012070BD15
:10281000204684F8385000F01FF8022084F8390070
:10282000D4E900030121026822F440321A43026015
:102830002068A368426B22F007021A4342632068B3
:10284000E368026C6FF30D021A430264E56384F8D7
:102850003910002070BD7047094808B5016841F47F
:102860000001016000680022114600F400000090A1
:102870005A2001F0E7FBBDE808405A2001F0D5BB23
:10288000303802402DE9F8430026044604270D465F
:1028900000964FF0030800680068C00727D001F0D9
:1028A00087F881461FE04068009010F0210F11D09A
:1028B0000098800603D5E06B40F00200E0630098CA
:1028C000C00703D0E06B40F00100E06320682121E5
:1028D000816034E0681C06D0C5B301F069F8A0EB54
:1028E0000900A8423CD8206841688907DBD52068E8
:1028F000C169890602D4406A80063FD501F058F8C4
:10290000814637E04068009010F0290F1FD00098F2
:10291000000703D5E06B40F00400E06300988006F8
:1029200003D5E06B40F00200E0630098C00703D0DD
:10293000E06B40F00100E06321682920886084F8A2
:102940003970012084F83860BDE8F88308E0681C1D
:1029500010D02DB101F02CF8A0EB0900A84209D944
:10296000E16B84F8386041F02001E16384F839803C
:102970000320E9E720684168C906C3D5226812210F
:102980000120916084F83900002084F83860DBE78A
:10299000F8B50446069894F83850012D10D0012659
:1029A00084F83860022584F8395000902046FFF7FB
:1029B0006BFA2068016841F0010101600020F8BD58
:1029C0000220F8BDF8B50446069894F83850012D59
:1029D00015D0012684F83860022584F8395000901B
:1029E0002046FFF751FA2068016841F40C5101605C
:1029F0002068016841F0010101600020F8BD02205B
:102A0000F8BD006812B1016100207047C160FBE7AA
:102A10002DE9F84F044680684FF4807A0A9D80289B
:102A20004FF00000009012D094F83400012812D02A
:102A300094F835700126002084F83460012F0CD002
:102A40000221009184F834000098BDE8F88FC4F8A2
:102A500054A00120F9E70220F7E7022684F8356048
:102A600060652068066846F4802606602068036179
:102A70002B462046FFF7B4FAFF4B4FF4006BFF4D97
:102A80004FF4001EFC4E6033FC4F6035DFF8EC83E2
:102A90001836DFF8E4C31837DFF8E09308F1480888
:102AA00021680CF1780CF44809F17809F34A4145A2
:102AB00034D9814205D0914203D0994201D0A94234
:102AC00001D1202125E0B14205D0B94203D06145B2
:102AD00001D0494501D159461BE0DFF89C8308F13C
:102AE0003008414511D0DFF8948308F130084145A2
:102AF0000BD0DFF8848308F19008414505D0DFF85A
:102B00007C8308F19008414501D1714601E04FF006
:102B10000061DFF86883A8F1040839E0DFF8588322
:102B200008F1A808414536D9814205D0914203D029
:102B3000994201D0A94201D1202125E0B14205D01E
:102B4000B94203D0614501D0494501D159461BE046
:102B5000DFF8248308F13008414511D0DFF81C83E9
:102B600008F1300841450BD0DFF80C8308F19008DC
:102B7000414505D0DFF8048308F19008414501D1B3
:102B8000714601E04FF00061DFF8F082A8F108081B
:102B9000C8F8001072E0DFF8E08208F1480841450B
:102BA00036D9814205D0914203D0994201D0A94241
:102BB00001D1202125E0B14205D0B94203D06145C1
:102BC00001D0494501D159461BE0DFF8AC8208F13C
:102BD0003008414511D0DFF8A48208F130084145A2
:102BE0000BD0DFF8948208F19008414505D0DFF85A
:102BF0008C8208F19008414501D1714601E04FF007
:102C00000061DFF87482A8F11008C8F80C1035E0F4
:102C1000814205D0914203D0994201D0A94201D10D
:102C2000202125E0B14205D0B94203D0614501D051
:102C3000494501D159461BE0DFF83C8208F13008D4
:102C4000414511D0DFF8348208F1300841450BD0FE
:102C5000DFF8248208F19008414505D0DFF81C8296
:102C600008F19008414501D1714601E04FF0006143
:102C7000DFF80482A8F11008C8F808104FF4806B40
:102C8000DFF8F8814FF4801E216808F148084145BB
:102C900034D9814205D0914203D0994201D0A94252
:102CA00001D1102125E0B14205D0B94203D06145E0
:102CB00001D0494501D159461BE0DFF8BC8108F13C
:102CC0003008414511D0DFF8B48108F130084145A2
:102CD0000BD0DFF8A48108F19008414505D0DFF85A
:102CE0009C8108F19008414501D1714601E04FF007
:102CF0008061DFF88881A8F1040839E0DFF8788185
:102D000008F1A808414536D9814205D0914203D047
:102D1000994201D0A94201D1102125E0B14205D04C
:102D2000B94203D0614501D0494501D159461BE064
:102D3000DFF8448108F13008414511D0DFF83C81CB
:102D400008F1300841450BD0DFF82C8108F19008DC
:102D5000414505D0DFF8248108F19008414501D1B3
:102D6000714601E04FF08061DFF81081A8F108089A
:102D7000C8F8001072E0DFF8008108F1480841450A
:102D800036D9814205D0914203D0994201D0A9425F
:102D900001D1102125E0B14205D0B94203D06145EF
:102DA00001D0494501D159461BE0DFF8CC8008F13C
:102DB0003008414511D0DFF8C48008F130084145A2
:102DC0000BD0DFF8B48008F19008414505D0DFF85A
:102DD000AC8008F19008414501D1714601E04FF007
:102DE0008061DFF89480A8F11008C8F80C1035E075
:102DF000814205D0914203D0994201D0A94201D12C
:102E0000102125E0B14205D0B94203D0614501D07F
:102E1000494501D159461BE0DFF85C8008F13008D4
:102E2000414511D0DFF8548008F1300841450BD0FE
:102E3000DFF8448008F19008414505D0DFF83C8078
:102E400008F19008414501D1714601E04FF08061E1
:102E5000DFF82480A8F11008C8F808104FF4007BB0
:102E6000DFF818804FF4002E216808F1480841452A
:102E700035D981420AD003E010600240106402405C
:102E8000914203D0994201D0A94201D1082121E009
:102E9000B14205D0B94203D0614501D0494501D1C5
:102EA000594617E0DFF8EC8441450FD0DFF8E8849D
:102EB00041450BD0DFF8DC8408F16008414505D0BE
:102EC000DFF8D48408F16008414501D1714601E082
:102ED0004FF00071DFF8C084A8F1340835E0DFF866
:102EE000B48408F17808414532D9814205D0914235
:102EF00003D0994201D0A94201D1082121E0B14279
:102F000005D0B94203D0614501D0494501D15946A8
:102F100017E0DFF8808441450FD0DFF87C8441451D
:102F20000BD0DFF8708408F16008414505D0DFF868
:102F3000688408F16008414501D1714601E04FF015
:102F40000071DFF85484A8F13808C8F800106AE06E
:102F5000DFF8408408F11808414532D9814205D094
:102F6000914203D0994201D0A94201D1082121E028
:102F7000B14205D0B94203D0614501D0494501D1E4
:102F8000594617E0DFF80C8441450FD0DFF808847C
:102F900041450BD0DFF8FC8308F16008414505D0BE
:102FA000DFF8F48308F16008414501D1714601E082
:102FB0004FF00071DFF8DC83A8F14008C8F80C106E
:102FC00031E0814205D0914203D0994201D0A9421B
:102FD00001D1082121E0B14205D0B94203D06145B9
:102FE00001D0494501D1594617E0DFF8A883414592
:102FF0000FD0DFF8A48341450BD0DFF8988308F1A8
:103000006008414505D0DFF8908308F1600841452C
:1030100001D1714601E04FF00071DFF87883A8F12B
:103020004008C8F808104FF4802EDFF86C83216840
:10303000DFF868B308F11808414530D9814205D05E
:10304000914203D0994201D0A94201D1594621E0D1
:10305000B14205D0B94203D0614501D0494501D103
:10306000514617E0DFF82C8341450FD0DFF8288365
:1030700041450BD0DFF81C8308F16008414505D0BD
:10308000DFF8148308F16008414501D1714601E081
:103090004FF08071DFF80083A8F1340835E0DFF8E5
:1030A000F48208F17808414532D9814205D0914235
:1030B00003D0994201D0A94201D1594621E0B14241
:1030C00005D0B94203D0614501D0494501D15146EF
:1030D00017E0DFF8C08241450FD0DFF8BC824145E0
:1030E0000BD0DFF8B08208F16008414505D0DFF869
:1030F000A88208F16008414501D1714601E04FF016
:103100008071DFF89482A8F13808C8F800106AE0EE
:10311000DFF8808208F11808414532D9814205D094
:10312000914203D0994201D0A94201D1594621E0F0
:10313000B14205D0B94203D0614501D0494501D122
:10314000514617E0DFF84C8241450FD0DFF8488246
:1031500041450BD0DFF83C8208F16008414505D0BD
:10316000DFF8348208F16008414501D1714601E081
:103170004FF08071DFF81C82A8F14008C8F80C10ED
:1031800031E0814205D0914203D0994201D0A94259
:1031900001D1594621E0B14205D0B94203D0614581
:1031A00001D0494501D1514617E0DFF8E88141459A
:1031B0000FD0DFF8E48141450BD0DFF8D88108F16A
:1031C0006008414505D0DFF8D08108F1600841452D
:1031D00001D1714601E04FF08071DFF8B881A8F1AC
:1031E0004008C8F808104FF4803BDFF8AC814FF47A
:1031F000800EDFF8A8A1216808F11808AAF1030AD7
:10320000414527D9814205D0914203D0994201D04E
:10321000A94201D150461AE0B14205D0B94203D0CB
:10322000614501D0494501D1402010E05948814213
:103230000AD05948814207D056486030814203D0B5
:1032400055486030814201D1584600E070465249ED
:1032500034392CE0DFF83C8108F17808414528D961
:10326000814205D0914203D0994201D0A94201D1B7
:1032700050461AE0B14205D0B94203D0614501D0B1
:10328000494501D1402010E0424881420AD04248DD
:10329000814207D03F486030814203D03E486030D1
:1032A000814201D1584600E070463B4938390860F8
:1032B00056E0DFF8E08008F11808414528D981423E
:1032C00005D0914203D0994201D0A94201D1504684
:1032D0001AE0B14205D0B94203D0614501D0494559
:1032E00001D1402010E02B4881420AD02A48814277
:1032F00007D028486030814203D02748603081429F
:1033000001D1584600E0704622494039C86027E0A4
:10331000814205D0914203D0994201D0A94201D106
:1033200050461AE0B14205D0B94203D0614501D000
:10333000494501D1402010E0164881420AD0164884
:10334000814207D013486030814203D01248603078
:10335000814201D1584600E070460E4940398860EC
:103360002068016841F0160101602068416941F060
:1033700080014161206C08B9A06C20B1206801680F
:1033800041F0080101602068016841F0010101601D
:10339000FFF75ABB406002404064024004008000D6
:1033A0002DE9F041876D044600F002FB064694F8D3
:1033B00035000025022806D080206065012084F8B1
:1033C0003450BDE8F0812068016821F016010160E9
:1033D0002068416921F080014161206C08B9A06C2E
:1033E00020B12068016821F00801016020680168AF
:1033F00021F0010101600CE000F0DAFA801B0528E1
:1034000007D920216165032084F8345084F8350001
:10341000D7E720680068C007EED194F85C203F2011
:1034200001219040B86084F8345084F835100020B1
:10343000C7E790F83510022903D0802141650120AB
:103440007047052180F835100068016821F00101FE
:1034500001600020704770B5040025D094F8350055
:10346000022820D0206800252122016821F00101D6
:1034700001602068056020684560206885602068DC
:10348000C56020680561206842612046FEF76AFD3C
:1034900094F85C203F2191408160656584F8355047
:1034A000002084F8345070BD012070BD2DE9F84330
:1034B00004464FF00008654B0820CDF800804FF41B
:1034C0001652A56D94F85C101B682E68B3FBF2F7DA
:1034D00000FA01F131420FD021680A6852070BD57A
:1034E0000A6822F004020A6094F85C108840A86020
:1034F000606D40F00100606594F85C1054488840AD
:10350000304208D021684969090604D5A860606D79
:1035100040F0020060654E4894F85C10C01C884082
:10352000304208D021680968890704D5A860606D19
:1035300040F00400606594F85C1010208840304230
:1035400018D021680968090714D5A86020680168A7
:10355000490304D50068000308D5A16C07E00168A1
:10356000C90503D4016821F008010160216C09B18B
:103570002046884794F85C1020204FF001098840CD
:10358000304231D021680968C9062DD5A86094F869
:10359000350005282068016806D0490347D5006832
:1035A00000031DD4616C1CE021F01601016020684D
:1035B000416921F080014161206C08B9A06C20B103
:1035C0002068016821F00801016094F85C303F2216
:1035D0009A40AA6084F8348084F83590216D1FE009
:1035E000E16B09B120468847606D00282BD0606DE3
:1035F000C00714D0052084F835002068016821F048
:10360000010101600098401C0090B84203D8206876
:103610000068C007F6D184F8348084F83590E16CF6
:10362000002910D001B02046BDE8F04308470168EA
:10363000C905D5D4036823F01003036084F83480EF
:1036400084F83590CCE7BDE8F8830000B89A0120F3
:10365000010080002DE9F047044600F0A9F9054675
:1036600064B14FF0000984F83490022184F83510D9
:103670002068016821F0010101600EE00120BDE831
:10368000F08700BF00F094F9401B052805D92021E0
:103690006165032084F83500F1E720680068C00701
:1036A000F0D1D4E90020D4E90251D4E9043C284304
:1036B00004F1180519430843116895E8E00140EA50
:1036C0000C001B4B2843194040EA060040EA070063
:1036D000B8F1040F40EA010003D1D4E90B131943F8
:1036E0000843106020680126656A4069042D20F0B7
:1036F000070045EA00050AD1A06A05432046FEF707
:1037000045FC20B14020606584F83560B6E720684C
:1037100045612046FEF726FC94F85C303F229A4033
:103720008260C4F8549084F835600020A7E7000058
:103730003F8010F02DE9F041044690F83400002558
:103740000128A66D0ED094F835C00127002084F81A
:103750003470BCF1010F07D0022584F834002846EC
:10376000BDE8F0810220FBE7022784F83570606530
:103770002046FEF744FC94F85C103F208840B0607F
:103780002068016841F0160101602068416941F03C
:1037900080014161206C20B12068016841F008017E
:1037A00001602068016841F001010160D7E731B58F
:1037B00000F0FEF8044600F0FBF80099001B884278
:1037C000F9D338BD2DE9F84FDFF89CE100224FF026
:1037D00001084FF0030B4FF00F0A00BF0B6808FA07
:1037E00002F42340A34271D14D68022D01D0122D65
:1037F0000FD1D5080E69570700EB8505A9462D6A3C
:10380000FF0E0AFA07FCBE4025EA0C052E43C9F854
:1038100020600F79550006680BFA05FC07F00307D6
:1038200026EA0C06AF40374307604E68012E05D0EC
:10383000022E03D0112E01D0122E0ED18668CF6831
:1038400026EA0C06AF403743876046680F79A643E7
:10385000C7F30017974037434760C4688E6824EA6F
:103860000C04AE402643C6604C68E40075D53F4C5E
:10387000256845F480452560246822F003069507F5
:1038800004F4804400943A4C2D0F2644D6F808489E
:10389000DFF8E0C00AFA05F7604524EA070401D121
:1038A00000272EE0344FB84201D1012729E0334FE1
:1038B000B84201D1022724E0314FB84201D1032799
:1038C0001FE0304FB84202D104271AE045E02E4FE6
:1038D000B84201D1052714E02C4FB84201D1062788
:1038E0000FE02B4FB84201D107270AE0294FB84219
:1038F00001D1082705E0284FB84201D1092700E08F
:103900000A27AF4027437546C6F808784E68DEF8A8
:103910000040F60324EA030400D51C43124E2C6039
:10392000361D4D683468AD0324EA030400D51C43FA
:103930000D4F346008374D683C68ED0224EA0304FB
:1039400000D51C43084D3C600C354E682C68B6020F
:1039500024EA030400D51C432C60521C102AFFF4F7
:103960003DAFBDE8F88F0000003C01404438024004
:103970000030014000000240000402400008024004
:10398000000C0240001002400014024000180240E7
:10399000001C0240002002400024024042694A40CC
:1039A000426170470AB1816170470904FBE700007A
:1039B0000148006870470000549A012010B50400C7
:1039C00014D0242084F841002068016821F001010E
:1039D0000160204600F0D6F90020606484F84100C0
:1039E000206384F8420084F8400010BD012010BD1F
:1039F00090F841007047000070B5040004D094F8BE
:103A00004100002510B106E0012070BD204684F879
:103A1000405000F0B8F9242084F841002068016883
:103A200021F001010160D4E9001020F0706008610C
:103A30002068816821F400418160E06821680128E4
:103A4000A06806D040F404408860E068022803D0F3
:103A500006E040F40040F7E721684FF4006048605A
:103A600020212068114A4368134343602068C268DC
:103A700022F40042C26054F8106B0DCC104340EAAF
:103A80000320F06054F81C3CD4E900021043186095
:103A900054F81C0D026842F001020260656484F86B
:103AA0004110256384F84250002070BD0080000260
:103AB0002DE9FF4F83B0044690F841009A469346A3
:103AC000DDE91087DDF84890202875D15FEA08000D
:103AD00073D0002F71D094F8400001286CD00120E1
:103AE00084F84000FFF764FF012206461923009086
:103AF000D103204601F064FB002875D10025C4F8ED
:103B00002480222184F84110402084F8420065641A
:103B10006785534665635A4604992046CDE9009669
:103B200001F0CEFA28B1606C84F8405004285FD0D0
:103B30005AE0618DFF274FF41050FF294FF0807835
:103B40004FF0007A04D927853A464346009005E0B5
:103B5000618D53462185009094F8282020460499D1
:103B600001F01CFB00224B4604212046009601F088
:103B700027FBC8BB2168606A496A421C6262017007
:103B8000208D401E0004000C2085618DA1F10101F3
:103B900061851DD1608DD8B100224B468021204621
:103BA000009601F00DFBF8B9608DFF2806D9278536
:103BB0003A464346009507E02CE019E0608D5346F5
:103BC0002085009594F828202046049901F0E6FA13
:103BD000608D0028C6D132464946204601F019FBC7
:103BE00040B1606C042803D0032007B0BDE8F08F1B
:103BF0000120FAE720682021074AC1612068436854
:103C00001340436084F8411084F84250002084F847
:103C10004050EAE70220E8E700E800FE2DE9FF4F08
:103C200083B0044690F841009A469346DDE9108738
:103C3000DDF84890202870D15FEA08006ED0002F90
:103C40006CD094F84000012867D0012084F840002F
:103C5000FFF7AEFE0122064619230090D10320464D
:103C600001F0AEFA002854D10025C4F824802121A7
:103C700084F84110402084F842006564678553460B
:103C800065635A4604992046CDE9009601F04FFA43
:103C900028B1606C84F8405004286CD039E0608D05
:103CA000FF274FF08078FF284FF0007A04D927854E
:103CB0003A464346009505E0608D534620850095C1
:103CC00094F828202046049901F068FA32464946C3
:103CD000204601F0C6FA18B1606C04284BD018E0F9
:103CE000606A411C6162216800788862608D401EB4
:103CF0006085208D401E0004000C208521D1608D40
:103D0000F8B100224B4680212046009601F058FA77
:103D100028B1032007B0BDE8F08F2EE02BE0608DC6
:103D2000FF2804D927853A464346009505E0608D73
:103D300053462085009594F828202046049901F0E8
:103D40002DFA608D0028C1D132464946204601F047
:103D500060FA0028C0D120682021094AC16120688A
:103D600043681340436084F8411084F842500020B7
:103D700084F84050CEE70120CCE70220CAE70000DB
:103D800000E800FE7047704702480168491C016066
:103D900070470000549A0120074810B5016841F4AB
:103DA00000710160032000F06DF90F2000F006F8AB
:103DB00000F03AF9002010BD003C0240084910B55F
:103DC00004464FF47A700968B1FBF0F001F0ECF8AA
:103DD00000222146501E00F035F9002010BD0000E1
:103DE000B89A01202DE9F041044690F8A00016464B
:103DF0000F4601281DD0012584F8A050022084F828
:103E0000A10006EB860000EBC600342204EB800024
:103E10003830FCF748FA32463946204601F07EFB3E
:103E2000216800204D6284F8A15084F8A000BDE80C
:103E3000F0810220FBE7704790F8A100704770B551
:103E40000446006804250026816B490715D5816B5F
:103E5000490712D5416B21F0040141632068C56315
:103E6000D4F8A40040F00100C4F8A40084F8A150E4
:103E7000204684F8A060FFF7DEFF2068816B890789
:103E800016D5816B890713D5426B022122F00202FD
:103E900042632068C163D4F8A40040F00200C4F873
:103EA000A40084F8A150204684F8A060FFF7C3FF67
:103EB0002068816BC90710D0816BC9070DD0426B98
:103EC000012122F0010242632068C16384F8A1103D
:103ED000204684F8A06000F081F870BD2DE9F04123
:103EE000040004D094F8A100002518B107E00120D7
:103EF000BDE8F081204684F8A05000F077F83648FD
:103F0000022184F8A110012202CC8B6923F07043B6
:103F10008B6194E84A001943E3681E4354F8043D5A
:103F200031439E693143996121688B6803408B60FE
:103F30002168A68AA7698B683B4343EA06438B60E6
:103F40002168CB680340CB602168A38B276ACE68C9
:103F50003E4346EA0346CE6021680B6903400B618D
:103F60002168A68CA76A0B693B4343EA06430B61B1
:103F700021684B6903404B612168A38D266B48691A
:103F8000304340EA03404861236894F8351094F8C0
:103F90003600DE6A000406F07F46DE62236840EAEF
:103FA000012094F83460D96A31430143D962206812
:103FB000416B41F0040141632068416B41F0020113
:103FC00041632068816941F001018161C4F8A45016
:103FD00084F8A12000208BE700F800F0024A0121BC
:103FE0005160002100F004B800000120704700007B
:103FF00070B590F8A020012A12D0012280F8A020EC
:10400000022380F8A13050F8A03B064D00245E6BDF
:1040100046F001065E63296042700470204670BD60
:10402000022070BD406801407047002809DB41094B
:1040300000F01F028900012001F1E0219040C1F849
:10404000000170470E4BF0B41B680D46C3F302230A
:10405000C3F10706042E00D90426191D072901D231
:10406000002300E0DB1E012404FA06F19C40491EF7
:104070002940641E994014402143F0BC01F074BDF6
:104080000CED00E0064900F0070210B54FF6FF0402
:104090000868044B204040EA02201843086010BD25
:1040A0000CED00E00000FA051848F8B5016841F091
:1040B000805101600068164C00F08050009020682C
:1040C00040F480302060FFF773FC4FF47A760546A9
:1040D00005E000BFFFF76CFC401BB0420FD86068E2
:1040E000C003F7D5206840F400302060FFF760FC83
:1040F000054606E0FFF75CFC401BB04201D90320F7
:10410000F8BD60688003F5D50020F8BD4038024056
:10411000007000402DE9F84F04460078DFF828844D
:104120004FF000063546C0070ED0D8F8001021F435
:104130000001C8F80010D8F80010626B1143C8F8ED
:104140000010606B00B901262068000310D5FE48FE
:10415000E26B8430016821F4401111430160E06B8F
:10416000B0F5801F01D010B102E0012600E001256A
:104170002068C00210D5F448226C8430016821F414
:10418000400111430160206CB0F5800F01D010B1E7
:1041900002E0012600E001252068C10100D50126CA
:1041A000800659D5E8483830016841F080510160F7
:1041B0000068DFF8989300F080500090D9F8001064
:1041C00041F48071C9F80010FFF7F2FB074604E0E4
:1041D000FFF7EEFBC01B64287ED8D9F80000C005AD
:1041E000F6D5D94F6837386810F4407023D0218E47
:1041F00001F4407181421ED03868396820F4407063
:1042000041F480313960396821F480313960386097
:104210003868C0070FD0FFF7CBFB814641F2883AE0
:1042200006E000BFFFF7C4FBA0EB09015145D3D85E
:1042300038688007F6D5206BC0F3012103297CD0B4
:10424000D8F8001021F4F811C8F80010218E386851
:10425000C1F30B01084338602078C00609D5BA487D
:104260008430016821F0807101600168A26B114304
:1042700001602188B4488830490405D5626E016820
:1042800021F44031114301602188090405D5A26E53
:10429000016821F44021114301602168C90305D55B
:1042A000E26E016821F44011114301602168890325
:1042B00005D5226F016821F4400111430160217886
:1042C000490605D5626C016821F0030111430160C4
:1042D0002178090607D500E001E1A26C016821F010
:1042E0000C01114301602188C90505D5E26C016804
:1042F00021F03001114301602188890505D5226D27
:10430000016821F0C001114301602188490505D5EC
:10431000626D016821F44071114301602188090533
:1043200005D5A26D016821F4406111430160218827
:10433000C90407D5E26D016800E023E021F4405193
:10434000114301602188890405D5226E016821F49A
:104350004041114301602168490205D5A26F0168FF
:1043600021F08061114301602168890215D5E26F57
:10437000016821F0006111430160E16FB1F1006F4C
:104380000AD00AE0724AD8F80030104023F4F8123C
:104390000243C8F8002059E7012521680A0700D523
:1043A0000125490305D5626F016821F04071114371
:1043B00001602168090206D5D4F88020016821F047
:1043C000805111430160012E4FF4403B4FF0706962
:1043D0004FF0E04A03D02068B0F1007F7ED15A4E02
:1043E000083E306820F080603060FFF7E1FA074651
:1043F00005E000BFFFF7DCFAC01B64286FD8524805
:10440000083800680001F5D42078DFF83CE1C007E7
:104410000EF17C0E33D0606B88BBDEF800209BFA77
:10442000ABF7DEF8000099FAA9FCB7FA87F847F66F
:10443000C07602F44032616896FAA6F722FA08F2D2
:10444000BCFA8CF8B7FA87FC9BFAABF600F0706008
:1044500001FA0CF1B6FA86F699FAA9F720FA08F0F3
:10446000B2409AFAAAFCA668B7FA87F71143B84097
:10447000BCFA8CF2014396403143CEF8001020681C
:10448000010303D5E16BB1F5801F05D0C00241D512
:10449000206CB0F5800F3DD1DEF800009BFAABF741
:1044A000DEF8003047F6C07600F44030B7FA87FCFB
:1044B000616896FAA6F620FA0CF099FAA9FC9BFA24
:1044C000ABF7BCFA8CF8B6FA86F69AFAAAFCB7FAF9
:1044D00087F7B140B840BCFA8CFC01E08CE006E103
:1044E000E6689AFAAAF203F0E043B2FA82F7164AB3
:1044F00006FA08F623FA0CF301438432BB40314339
:104500001943CEF800101068616A20F01F00491EA0
:10451000084310602068C00139D5DEF8001099FA10
:10452000A9F0DEF8003047F6C0769AFAAAFC9BFAAA
:10453000ABF796FAA6F601F07061BCFA8CFCB7FAFC
:1045400087F7B0FA80F005E00838024000700040BC
:10455000FFFCFF0FC1400091B6FA86F8216999FA75
:10456000A9F6606803F0E042B6FA86F6B94000FAB0
:1045700008F0084300999AFAAAF722FA0CF2B1401F
:10458000B7FA87F60843B2401043CEF8000020681F
:10459000800120D547F6C07004F1080190FAA0F21E
:1045A00060689BFAABFCB2FA82F346C9BCFA8CFC99
:1045B000984099FAA9F806FA0CF69AFAAAF7B8FA06
:1045C00088FC304302FA0CF2B7FA87F61043B14088
:1045D0000843CEF800007B4E306840F080603060C9
:1045E000FFF7E6F9074604E0FFF7E2F9C01B64288D
:1045F0007DD830680001F7D5002D79D0714D28683D
:1046000020F080502860FFF7D3F9064605E000BF90
:10461000FFF7CEF9801B642869D86A480068C04358
:104620008000F5D56748216888300A0301D5E26B20
:104630001AB1C9023CD5216CD1BB02689BFAABF61A
:1046400047F6C071B6FA86F7066802F4403291FA6E
:10465000A1FC6169FA4099FAA9F7BCFA8CFC9BFAB3
:10466000ABF501FA0CF1B7FA87F89AFAAAF7B5FA9E
:1046700085FCA56906F0E04602FA0CF2B7FA87F766
:104680009AFAAAF3FE4011434E4A05FA08F5B3FA26
:1046900083F38C329E402943314301606FF0FF0762
:1046A0001168A36A21F4F85107EB03231943116041
:1046B0002168890235D5E16FB1F1006F31D1016810
:1046C00099FAA9F2056847F6C07601F0706196FA8A
:1046D000A6F7B2FA82F29AFAAAF69BFAABFC21FA92
:1046E00002F8216AB6FA86F6BCFA8CFC01E060E0BA
:1046F00066E06269B7FA87F701FA0CF199FAA9FC4A
:10470000BA4005F0E0459AFAAAF3BCFA8CF7F540F6
:104710000A4308FA07F1B3FA83F30A439D402A4398
:1047200002602178090736D5016802689BFAABF769
:1047300099FAA9FC47F6C07302F44032214DB7FA4A
:1047400087F893FAA3F7636922FA08F2BCFA8CF8A7
:10475000B7FA87FC9BFAABF601F0706103FA0CF331
:10476000B6FA86F621FA08F199FAA9F7B2409AFA50
:10477000AAFCE669B7FA87F78C351343B940BCFA4F
:104780008CF20B439640334303602868E16A20F4BF
:104790004030084328600B4C206840F08050206077
:1047A000FFF706F9054607E0FFF702F9401B64280A
:1047B00002D90320BDE8F88F2068C0438000F3D4FD
:1047C0000020F7E7003802402DE9F047DFF84C8180
:1047D00005460E46D8F8000000F00F00B0420CD29B
:1047E000D8F8001021F00F013143C8F80010D8F8B4
:1047F000000000F00F00B04265D12878484C8007D7
:1048000005D5A968206820F0F000084320602878CA
:10481000C00747D0424968680839012816D009689E
:10482000022816D0890700294DDA216821F00301FA
:1048300001432160FFF7BCF86968074641F2883000
:1048400001290FD00229814619D027E00968890380
:10485000E9E78901E7E700BFFFF7AAF8C11B49456F
:1048600001D918E081462068C0F381000128F3D106
:1048700018E000BFFFF79CF8C11B49450BD8206822
:10488000C0F381000228F5D10CE000BFFFF790F8DB
:10489000C11B494502D90320BDE8F087206810F00C
:1048A0000C0FF3D1D8F80010404601F00F01B142CF
:1048B0000BD9016821F00F0131430160006800F05D
:1048C0000F00B04201D00120E6E72878400705D567
:1048D000E968206820F4E050084320602878000749
:1048E00006D52869216821F4604141EAC0002060B2
:1048F00000F01CF82168F02292FAA2F201F0F00117
:10490000B2FA82F2D140074A515CC84006490860B9
:104910000F20FFF753FA0020BEE70000003C0240E2
:1049200008380240D6980008B89A01201D4930B5D1
:104930001D48096811F00C011AD01C4B042916D02F
:10494000082915D1174947F6C072091F0C680D6870
:1049500004F03F046D020CD50D68B3FBF4F092FA3D
:10496000A2F31540B3FA83F2D54068430BE0184632
:1049700030BD0B68B0FBF4F092FAA2F41340B4FA25
:1049800084F2D340584309684FF4403292FAA2F2BD
:1049900001F44031B2FA82F2D140491C4900B0FB27
:1049A000F1F030BD083802400024F40040787D0169
:1049B0002DE9F84FDFF860A3054600780027AAF13B
:1049C000040B41F28838ABF10404C0074CD0DAF88C
:1049D00000105046C1F38101012908D00068C0F3DE
:1049E000810002280AD1DBF80000400206D52068C9
:1049F000800339D5686800287CD035E06868B0F558
:104A0000803F0BD010B1B0F5A02F11D0206820F45A
:104A100080302060206820F4802002E0206840F48C
:104A200080302060686890B1FEF7C2FF06460AE059
:104A3000206840F480202060F0E700BFFEF7B8FF58
:104A4000811B414577D820688003F7D50CE0FEF73D
:104A5000AFFF064605E000BFFEF7AAFF811B4145F8
:104A6000F0D820688003F7D42878800752D5DAF888
:104A7000001050464FF0F80911F00C0F08D00068F4
:104A8000C0F38100022815D1DBF80000400211D4E8
:104A90002068800702D5E86801282BD1296922689F
:104AA00099FAA9F0B0FA80F0814022F0F8000843AA
:104AB00020602FE0E868002820681CD040F001004A
:104AC0002060FEF775FF064605E000BFFEF770FFA9
:104AD000801B0228B6D820688007F7D5286922688D
:104AE00099FAA9F1B1FA81F1884022F0F801014365
:104AF00021600FE00DE120F001002060FEF758FF7B
:104B0000064604E0FEF754FF801B02289AD820686E
:104B10008007F7D42878000729D57F4869696C3069
:104B200000298146016811D041F001010160FEF7C2
:104B30003FFF064605E082E0FEF73AFF801B0228B1
:104B40007DD8D9F800008007F6D510E021F00101EA
:104B50000160FEF72DFF064605E000BFFEF728FFC7
:104B6000801B02286BD8D9F800008007F6D428787B
:104B7000400768D5DFF8A09109F13809D9F800009D
:104B8000C0000BD4D9F8001041F08051C9F80010D2
:104B9000D9F80000012700F0805000905F480168BC
:104BA000C90510D4016841F480710160FEF700FF6F
:104BB000064604E0FEF7FCFE801B64283FD85748F9
:104BC0000068C005F6D5544EA868683601280AD09A
:104BD00008B1052811D0306820F00100306030683D
:104BE00020F0040002E0306840F001003060A86866
:104BF00090B1FEF7DDFE00900AE0306840F004005E
:104C00003060F0E7FEF7D4FE0099411A414578D8AC
:104C100030688007F6D50CE0FEF7CAFE009005E08C
:104C2000FEF7C6FE0099411A41456AD830688007F0
:104C3000F6D42FB1D9F8001021F0805101E060E0E6
:104C400001E0C9F80010A869F0B3DAF80010C1F368
:104C5000810102295DD00228206820F08070206048
:104C600003D0FEF7A5FE05464EE0FEF7A1FE064680
:104C700005E000BFFEF79CFE801B022841D820689B
:104C80008001F7D447F6C0704FF0FF36D5E909131D
:104C900090FAA0F24FF44037B2FA82F297FAA7F7EF
:104CA00006EB53039140D5E907064FF0706CEA6AB2
:104CB000B7FA87F79CFAACF5BB4019433043B5FA15
:104CC00085F308439A4000E021E0104340F0005093
:104CD000CBF80000206840F080702060FEF768FE8E
:104CE000054604E0FEF764FE401B022809D8206850
:104CF0008001F7D50BE000BFFEF75AFE401B0228EB
:104D000002D90320BDE8F88F20688001F4D4002088
:104D1000F8E70120F6E70000083802400070004084
:104D200070B504000D4603D094F82C0010B107E0D4
:104D3000012070BD002084F82D00204600F011F8FD
:104D4000022084F82C002068211DFDF705FAD4E923
:104D500000022946FDF75AFA012084F82C000020B1
:104D600070BD704710B5044690F82C00022809D099
:104D7000022084F82C002068FDF71DFA012084F839
:104D80002C00002010BD000070B5044690F82C00E7
:104D90000D4602280DD0022084F82C002068FDF773
:104DA00010FA2868022805D05FF0010084F82C0072
:104DB000002070BD0520F9E710B5FCF725FC10BDFB
:104DC000704770B5B0F8501000250446006809041B
:104DD00000F096FC18B1A16B0143A16304E02068C8
:104DE000002100F04FFD0546C5F3432070BD0000D3
:104DF00070B504460068012540F2FF56416BC905B5
:104E000048D5290281632068C16B21F49D71C1637B
:104E1000206B0007206B20D5800702D4206B800612
:104E200009D5206800F086FC28B1A16B0143A1637D
:104E30002046FFF7C5FF2068866384F83450206B56
:104E4000C00702D1206B800703D5204600F0A4F8EC
:104E500070BD204600F0A4F870BD0006FCD5206BA4
:104E6000800609D5206800F065FC28B1A16B0143DC
:104E7000A1632046FFF7A4FF206BC007ECD1206B95
:104E80008007E9D42068C16A21F00801C16284F872
:104E90003450DEE7416B490410D54FF48041816303
:104EA000266A0025206806EB850100F005FD6D1CD3
:104EB000082DF7D3206A2030206270BD416B0904B1
:104EC00010D54FF400418163A66A0025206800F0E8
:104ED000DFFC46F825006D1C082DF7D3A06A2030B2
:104EE000A06270BD416B11F03A0FFAD0416B890797
:104EF00003D5A16B41F00201A163416B090703D502
:104F0000A16B41F00801A163416B890603D5A16B38
:104F100041F02001A163416BC90603D5A16B41F0AB
:104F20001001A16386632068C16B21F49D71C16388
:104F3000206B000623D5206C58B115490165206C03
:104F4000FEF777FA0028CCD0206CBDE8704000F066
:104F5000DCBCE06B58B10F490165E06BFEF769FA04
:104F60000028BED0E06BBDE8704000F0AABC002075
:104F7000A06384F834502046FFF71EFF70BD206BFD
:104F80000007FBD584F834502046FFF719FF70BDA9
:104F90000B590008C358000810B5FCF736FB10BDCC
:104FA00010B5FCF733FB10BD401EB0F1807F10B58B
:104FB00001D3012010BD4FF0E02460610F21601784
:104FC00000F0D2FD0020A0610721216110BD10B5C5
:104FD000040003D094F83D0010B107E0012010BD9B
:104FE000002084F83C00204600F00CF8022084F8F1
:104FF0003D002068211D00F0D9FC012084F83D000F
:10500000002010BD7047022180F83D100122016888
:105010000B6843F001030B6080F83D2000207047CF
:10502000FEE701688A69D243920701D400228A62AE
:1050300000688169C943C90703D0816941F0010152
:10504000816170472DE9F0410446006890460E46A4
:105050008069C043C0062FD40025202720688069BE
:10506000C043800611D5701CF8D02EB1FEF7A0FC0D
:10507000A0EB0800B042F1D984F8417084F84250A6
:10508000032084F84050BDE8F08121681020C861F9
:105090002068C7612046FFF7C4FF20680422074943
:1050A00043680B404360626484F8417084F8425066
:1050B000012084F84050E6E70020E4E700E800FE25
:1050C0002DE9F843174604464FF400501E46DAB265
:1050D000009000232046DDE9089800F05FF8424682
:1050E0004946204600F0BDF818B1606C04281CD079
:1050F00018E0012EFDB209D02068390A81624246CB
:105100004946204600F0ADF80028EED120688562BF
:10511000002240214B462046CDF8008000F050F898
:10512000002800D00320BDE8F8830120FBE72DE92B
:10513000F843044617464FF400501E46DAB200907A
:10514000C3022046DDE9089800F028F842464946A7
:10515000204600F086F818B1606C04281CD018E0D6
:10516000012EFDB209D02068390A816242464946C3
:10517000204600F076F80028EED1206885620022F3
:1051800080214B462046CDF8008000F019F8002819
:1051900000D00320BDE8F8830120FBE730B5C1F360
:1051A0000901064D41EA02410268039C1943506817
:1051B000214328400143516030BD0000009800FCAD
:1051C0002DE9F0411D4617460E460446DDF81880CD
:1051D00013E0681C11D02DB1FEF7EAFBA0EB08002C
:1051E000A8420AD90020202184F8411084F8420006
:1051F00084F840000320BDE8F0812068806936EA29
:10520000000004D00020B842E3D00020F3E70120E2
:10521000F9E770B516460D4604461BE032462946AE
:105220002046FFF70FFF08B1012070BD25B1FEF742
:10523000BFFB801BA8420DD9626C002084F840009F
:10524000202142F02002626484F8411084F8420078
:10525000032070BD20688069C0438006DED4002032
:1052600070BD70B516460D4604461DE0324629460F
:105270002046FFF7E7FE08B1012070BD681C13D07F
:1052800025B1FEF795FB801BA8420DD9626C00206A
:1052900084F84000202142F02002626484F841102A
:1052A00084F84200032070BD20688069C0438007F5
:1052B000DCD4002070BD10B50446FEF77FFB20460D
:1052C000BDE81040AFF3008010B50446FEF790FB38
:1052D000002818D10C48844201D10C4800E00C4849
:1052E00001210C4A206000206260C4E902012061B3
:1052F0006061E0612062204600F00EF82046BDE8C3
:105300001040FEF779BB10BDC4610220005C004074
:105310000054004032279140F0B542490022424BF0
:1053200087B0424D4FF48076414C9842D1F800C08E
:105330004FF012004FF002034FF0040737D14CF04A
:10534000800CC1F800C009680DF1080C01F0800163
:1053500005918021CDE900108CE88C00354F69461D
:105360003846FEF72FFA694638460096FEF72AFAC5
:10537000286840F400002860286800F400000590C8
:10538000206840F400002060206820F400002060C5
:1053900000220F214820FEF755FE4820FEF745FE6B
:1053A00000220F214920FEF74DFE492035E04CF048
:1053B000020CC1F800C00968CDE9022301F0020126
:1053C000CDE90471CDE900601B4E69463046FEF719
:1053D000F9F97015694600903046FEF7F3F9286830
:1053E00040F400102860286800F400100590206840
:1053F00040F400102060206820F40010206000229B
:105400000F211F20FEF71EFE1F20FEF70EFE0022BA
:105410000F212020FEF716FE2020FEF706FE07B023
:10542000F0BD000030380240C46102204038024024
:1054300020380240001C024000040240FEB50D4628
:1054400006464FF47A74DDE908018DE81300294619
:105450003046FEF72DFB040003D029463046FFF707
:105460002AFF2046FEBDFEB50D4606464FF47A746F
:10547000DDE908018DE8130029463046FEF7CEFB32
:10548000040003D029463046FFF715FF2046FEBD35
:105490002DE9F84307461B480E461546DDE9081876
:1054A0004FF440321C464260174A126802EB8203F6
:1054B00003EBC202A0F1A80303EB8202926C022A62
:1054C00000D000228260114A0260C1600D48FDF7E1
:1054D00095F9002814D10B483946FDF7A5F80028A6
:1054E0000ED108482B46324641460094FDF750FA4B
:1054F000002805D1BDE8F84302480A21FDF7C2B9EA
:10550000BDE8F883D4680220949A012000B00240DC
:105510000148FEF794BC00002C6802202DE9FE4FE4
:1055200081460068882493468D888C2204EBCB1733
:105530008A46C3689421BE46C459C3F30B432B4427
:1055400004F470441F04019702EBCB1240F80E40A4
:1055500001EBCB13DAF800709C214FF0AC0C01EB9F
:10556000CB1440F2077102910CEBCB11D9F800C0BB
:1055700098250020CDF800C0A02605EBCB15DCF85F
:105580000CC006EBCB16CCF30B4C0CF1010C07EB6B
:105590000C08DDF800C0019F48EA07084CF80E80AF
:1055A000D9F80070BAF80CC0B846FF68C7F30A070C
:1055B00067444FEA074E58F8027007F4704C48F8F9
:1055C00002C0D9F800C0DAF80870DCF80C80C8F323
:1055D0000A0808F10108B84448EA0E084CF80280AD
:1055E000D9F80020D75827F00707D750D9F800700E
:1055F000DAF81020FA509AF831209AF818304FEA69
:10560000022C9AF83220120442EA0362D9F80030E0
:105610001F5918519AF8303043EA0C031343D9F854
:1056200000201351D9F80020535923F0FF035351A0
:10563000D9F80020DAF814305351D9F800209359E2
:10564000029CA3439351D9F80030DAE9072422439E
:105650009A51D9F8002053585050D9F80020DAF860
:1056600024005050DAF81000C8B301283AD00428BA
:105670003AD0022838D0032836D0072834D0012069
:10568000D9F80030B02505EBCB11B42284245D5845
:1056900002EBCB1205F0E0255D50DAE9003504EBB2
:1056A000CB14EB1ABAF8285043434543D9F800000D
:1056B000DB1C43EA05434350D9F8000081586FF3DF
:1056C0000A018150D9F80000DAF82C108150D9F87D
:1056D0000000015941F001010151BDE8FE8FFFE7D3
:1056E0000420CDE70320CBE70220C9E7FEE770479F
:1056F000704700000148FFF77BBB0000DC6302201D
:1057000030B585B004460D2040220DF1080CCDE9DE
:10571000001000236946150120468CE82C0000F09B
:10572000BAF80D2141F28832204600F01DF805B08C
:1057300030BD000010B586B0044600210C20402288
:10574000CDE90221CDE900101301694620460493FA
:1057500000F0A1F8034A0C21204600F005F806B03D
:1057600010BD000000E1F50510B5444C4FF4FA53AC
:105770002468B4FBF3F353435B1E02D24FF00040A6
:1057800010BD426B12F0450FF6D0426B520703D5A5
:1057900004218163084610BD426BD20702D001216B
:1057A000816303E00269D2B28A4201D0012010BDB8
:1057B00040F2FF518163002100F064F83049084253
:1057C00001D1002010BD002802DA4FF0007010BD9A
:1057D000410001D5402010BD810001D5802010BDC1
:1057E000C10002D54FF4807010BD010102D54FF405
:1057F000007010BD410102D54FF4806010BDC101A1
:1058000002D54FF4006010BD010202D54FF4805064
:1058100010BD410202D54FF4005010BD810202D5E7
:105820004FF4804010BDC10202D54FF4004010BDBE
:10583000410302D54FF4003010BD810302D54FF46F
:10584000802010BDC10302D54FF4002010BD01041B
:1058500002D54FF4801010BD410402D54FF4001062
:1058600010BD810402D54FF4800010BD000702D5A1
:105870004FF4000010BD4FF4803010BDB89A0120E5
:1058800008E0FFFD084408B514300090006808BD2A
:10589000D0F88000704770B50A688260C468D1E9AA
:1058A0000125D1E90336210B2A43334309031A4367
:1058B0001143C160002070BD0968C0F8801000204D
:1058C000704770B5846B0025E06B00B1E563206C18
:1058D000002816D12046FFF774FA0121A563062897
:1058E00084F8341001D005280BD12068FFF722FF7F
:1058F000A16B0843A063A06B0028204602D0FFF7ED
:105900005BFA70BDFFF75CFA70BD70B5846B002563
:10591000206C00B12564E06B002816D12046FFF70B
:1059200050FA0121A563062884F8341001D0052817
:105930000BD12068FFF7FEFEA16B0843A063A06BAC
:105940000028204602D0FFF737FA70BDFFF738FA7B
:1059500070BD7047FEF718BA104A30B51048146889
:1059600000210F4B44F470041460083305680D4A9D
:105970000D4C45F00105056019600368051D1340D5
:10598000074A03600C322C600568E305034C25F4DC
:1059900080250560803C1160236030BD88ED00E00B
:1059A00000380240FFFFF6FE10300024F0B5274B10
:1059B0004FF0804E264D02689842264E264F274CC7
:1059C00009D0704507D0A84205D0B04203D0B842F4
:1059D00001D0A04205D1D1F804C022F070024CEAF7
:1059E000020298421BD0704519D0A84217D0B0428D
:1059F00015D0B84213D0A04211D0194DA8420ED0F4
:105A0000184DA8420BD0184DA84208D0174DA842F7
:105A100005D0174DA84202D0164DA84203D1CD683B
:105A200022F440722A434D6922F080022A43026028
:105A300098428A68C2620A68826201D0A04201D19B
:105A40000969016301214161F0BD000000000140CE
:105A50000004004000080040000C00400004014029
:105A6000004001400044014000480140001800404F
:105A7000001C004000200040FDF799BE0148FFF7E0
:105A800023BC0000C46102203EB50124002202AB09
:105A90008DF80820CDE900340A4623460146034824
:105AA000FFF7CCFC9DF808003EBD0000C461022059
:105AB00007B5012382B004AACDE900230A460146B6
:105AC0000248FFF7D0FC05B000BD0000C461022011
:105AD00018484FF0804138B5016017490A6842F014
